{
	"contracts/ParkingSensor.sol": {
		"ParkingSensor": {
			"abi": [
				{
					"anonymous": false,
					"inputs": [
						{
							"indexed": false,
							"internalType": "uint256",
							"name": "id",
							"type": "uint256"
						},
						{
							"indexed": false,
							"internalType": "bool",
							"name": "occupied",
							"type": "bool"
						},
						{
							"indexed": false,
							"internalType": "uint256",
							"name": "durationInPreviousState",
							"type": "uint256"
						},
						{
							"indexed": false,
							"internalType": "string",
							"name": "vehicleRegisteration",
							"type": "string"
						}
					],
					"name": "SensorReadingUpdate",
					"type": "event"
				},
				{
					"anonymous": false,
					"inputs": [
						{
							"indexed": false,
							"internalType": "uint256",
							"name": "id",
							"type": "uint256"
						},
						{
							"indexed": false,
							"internalType": "uint256",
							"name": "x",
							"type": "uint256"
						},
						{
							"indexed": false,
							"internalType": "uint256",
							"name": "y",
							"type": "uint256"
						}
					],
					"name": "SensorRegistered",
					"type": "event"
				},
				{
					"inputs": [
						{
							"internalType": "uint256",
							"name": "_id",
							"type": "uint256"
						},
						{
							"internalType": "uint256",
							"name": "_x",
							"type": "uint256"
						},
						{
							"internalType": "uint256",
							"name": "_y",
							"type": "uint256"
						}
					],
					"name": "RegisterSensor",
					"outputs": [],
					"stateMutability": "nonpayable",
					"type": "function"
				},
				{
					"inputs": [
						{
							"internalType": "uint256",
							"name": "_id",
							"type": "uint256"
						}
					],
					"name": "getSensorData",
					"outputs": [
						{
							"components": [
								{
									"internalType": "uint256",
									"name": "id",
									"type": "uint256"
								},
								{
									"internalType": "uint256",
									"name": "x",
									"type": "uint256"
								},
								{
									"internalType": "uint256",
									"name": "y",
									"type": "uint256"
								},
								{
									"internalType": "bool",
									"name": "occupied",
									"type": "bool"
								},
								{
									"internalType": "uint256",
									"name": "modifiedTimeStamp",
									"type": "uint256"
								},
								{
									"internalType": "string",
									"name": "vehicleRegisteration",
									"type": "string"
								},
								{
									"internalType": "bool",
									"name": "registered",
									"type": "bool"
								}
							],
							"internalType": "struct ParkingSensor.Sensor",
							"name": "",
							"type": "tuple"
						}
					],
					"stateMutability": "view",
					"type": "function"
				},
				{
					"inputs": [
						{
							"internalType": "uint256",
							"name": "",
							"type": "uint256"
						}
					],
					"name": "sensors",
					"outputs": [
						{
							"internalType": "uint256",
							"name": "id",
							"type": "uint256"
						},
						{
							"internalType": "uint256",
							"name": "x",
							"type": "uint256"
						},
						{
							"internalType": "uint256",
							"name": "y",
							"type": "uint256"
						},
						{
							"internalType": "bool",
							"name": "occupied",
							"type": "bool"
						},
						{
							"internalType": "uint256",
							"name": "modifiedTimeStamp",
							"type": "uint256"
						},
						{
							"internalType": "string",
							"name": "vehicleRegisteration",
							"type": "string"
						},
						{
							"internalType": "bool",
							"name": "registered",
							"type": "bool"
						}
					],
					"stateMutability": "view",
					"type": "function"
				},
				{
					"inputs": [
						{
							"internalType": "uint256",
							"name": "_id",
							"type": "uint256"
						},
						{
							"internalType": "bool",
							"name": "_occupied",
							"type": "bool"
						},
						{
							"internalType": "string",
							"name": "_vehicleRegisteration",
							"type": "string"
						}
					],
					"name": "updateSensorReadings",
					"outputs": [],
					"stateMutability": "nonpayable",
					"type": "function"
				}
			],
			"devdoc": {
				"kind": "dev",
				"methods": {},
				"version": 1
			},
			"evm": {
				"assembly": "    /* \"contracts/ParkingSensor.sol\":33:2530  contract ParkingSensor {... */\n  mstore(0x40, 0x80)\n  callvalue\n  dup1\n  iszero\n  tag_1\n  jumpi\n  revert(0x00, 0x00)\ntag_1:\n  pop\n  dataSize(sub_0)\n  dup1\n  dataOffset(sub_0)\n  0x00\n  codecopy\n  0x00\n  return\nstop\n\nsub_0: assembly {\n        /* \"contracts/ParkingSensor.sol\":33:2530  contract ParkingSensor {... */\n      mstore(0x40, 0x80)\n      callvalue\n      dup1\n      iszero\n      tag_1\n      jumpi\n      revert(0x00, 0x00)\n    tag_1:\n      pop\n      jumpi(tag_2, lt(calldatasize, 0x04))\n      shr(0xe0, calldataload(0x00))\n      dup1\n      0x013b4727\n      eq\n      tag_3\n      jumpi\n      dup1\n      0x412f2e82\n      eq\n      tag_4\n      jumpi\n      dup1\n      0xed044aa3\n      eq\n      tag_5\n      jumpi\n      dup1\n      0xf8e21dad\n      eq\n      tag_6\n      jumpi\n    tag_2:\n      revert(0x00, 0x00)\n        /* \"contracts/ParkingSensor.sol\":745:1348  function RegisterSensor(uint _id, uint _x, uint _y) public {... */\n    tag_3:\n      tag_7\n      0x04\n      dup1\n      calldatasize\n      sub\n      dup2\n      add\n      swap1\n      tag_8\n      swap2\n      swap1\n      tag_9\n      jump\t// in\n    tag_8:\n      tag_10\n      jump\t// in\n    tag_7:\n      stop\n        /* \"contracts/ParkingSensor.sol\":255:293  mapping(uint => Sensor) public sensors */\n    tag_4:\n      tag_11\n      0x04\n      dup1\n      calldatasize\n      sub\n      dup2\n      add\n      swap1\n      tag_12\n      swap2\n      swap1\n      tag_13\n      jump\t// in\n    tag_12:\n      tag_14\n      jump\t// in\n    tag_11:\n      mload(0x40)\n      tag_15\n      swap8\n      swap7\n      swap6\n      swap5\n      swap4\n      swap3\n      swap2\n      swap1\n      tag_16\n      jump\t// in\n    tag_15:\n      mload(0x40)\n      dup1\n      swap2\n      sub\n      swap1\n      return\n        /* \"contracts/ParkingSensor.sol\":2423:2528  function getSensorData(uint _id) public view returns (Sensor memory) {... */\n    tag_5:\n      tag_17\n      0x04\n      dup1\n      calldatasize\n      sub\n      dup2\n      add\n      swap1\n      tag_18\n      swap2\n      swap1\n      tag_13\n      jump\t// in\n    tag_18:\n      tag_19\n      jump\t// in\n    tag_17:\n      mload(0x40)\n      tag_20\n      swap2\n      swap1\n      tag_21\n      jump\t// in\n    tag_20:\n      mload(0x40)\n      dup1\n      swap2\n      sub\n      swap1\n      return\n        /* \"contracts/ParkingSensor.sol\":1354:2417  function updateSensorReadings(uint _id, ... */\n    tag_6:\n      tag_22\n      0x04\n      dup1\n      calldatasize\n      sub\n      dup2\n      add\n      swap1\n      tag_23\n      swap2\n      swap1\n      tag_24\n      jump\t// in\n    tag_23:\n      tag_25\n      jump\t// in\n    tag_22:\n      stop\n        /* \"contracts/ParkingSensor.sol\":745:1348  function RegisterSensor(uint _id, uint _x, uint _y) public {... */\n    tag_10:\n        /* \"contracts/ParkingSensor.sol\":823:830  sensors */\n      0x00\n        /* \"contracts/ParkingSensor.sol\":823:835  sensors[_id] */\n      0x00\n        /* \"contracts/ParkingSensor.sol\":831:834  _id */\n      dup5\n        /* \"contracts/ParkingSensor.sol\":823:835  sensors[_id] */\n      dup2\n      mstore\n      0x20\n      add\n      swap1\n      dup2\n      mstore\n      0x20\n      add\n      0x00\n      keccak256\n        /* \"contracts/ParkingSensor.sol\":823:846  sensors[_id].registered */\n      0x06\n      add\n      0x00\n      swap1\n      sload\n      swap1\n      0x0100\n      exp\n      swap1\n      div\n      0xff\n      and\n        /* \"contracts/ParkingSensor.sol\":822:846  !sensors[_id].registered */\n      iszero\n        /* \"contracts/ParkingSensor.sol\":814:876  require(!sensors[_id].registered, \"Sensor Already Registered\") */\n      tag_27\n      jumpi\n      mload(0x40)\n      0x08c379a000000000000000000000000000000000000000000000000000000000\n      dup2\n      mstore\n      0x04\n      add\n      tag_28\n      swap1\n      tag_29\n      jump\t// in\n    tag_28:\n      mload(0x40)\n      dup1\n      swap2\n      sub\n      swap1\n      revert\n    tag_27:\n        /* \"contracts/ParkingSensor.sol\":901:902  0 */\n      0x00\n        /* \"contracts/ParkingSensor.sol\":895:897  _x */\n      dup3\n        /* \"contracts/ParkingSensor.sol\":895:902  _x != 0 */\n      sub\n        /* \"contracts/ParkingSensor.sol\":886:935  require((_x != 0), \"geolocation x value invalid\") */\n      tag_30\n      jumpi\n      mload(0x40)\n      0x08c379a000000000000000000000000000000000000000000000000000000000\n      dup2\n      mstore\n      0x04\n      add\n      tag_31\n      swap1\n      tag_32\n      jump\t// in\n    tag_31:\n      mload(0x40)\n      dup1\n      swap2\n      sub\n      swap1\n      revert\n    tag_30:\n        /* \"contracts/ParkingSensor.sol\":960:961  0 */\n      0x00\n        /* \"contracts/ParkingSensor.sol\":954:956  _y */\n      dup2\n        /* \"contracts/ParkingSensor.sol\":954:961  _y != 0 */\n      sub\n        /* \"contracts/ParkingSensor.sol\":945:994  require((_y != 0), \"geolocation y value invalid\") */\n      tag_33\n      jumpi\n      mload(0x40)\n      0x08c379a000000000000000000000000000000000000000000000000000000000\n      dup2\n      mstore\n      0x04\n      add\n      tag_34\n      swap1\n      tag_35\n      jump\t// in\n    tag_34:\n      mload(0x40)\n      dup1\n      swap2\n      sub\n      swap1\n      revert\n    tag_33:\n        /* \"contracts/ParkingSensor.sol\":1020:1296  Sensor(... */\n      mload(0x40)\n      dup1\n      0xe0\n      add\n      0x40\n      mstore\n      dup1\n        /* \"contracts/ParkingSensor.sol\":1062:1065  _id */\n      dup5\n        /* \"contracts/ParkingSensor.sol\":1020:1296  Sensor(... */\n      dup2\n      mstore\n      0x20\n      add\n        /* \"contracts/ParkingSensor.sol\":1086:1088  _x */\n      dup4\n        /* \"contracts/ParkingSensor.sol\":1020:1296  Sensor(... */\n      dup2\n      mstore\n      0x20\n      add\n        /* \"contracts/ParkingSensor.sol\":1109:1111  _y */\n      dup3\n        /* \"contracts/ParkingSensor.sol\":1020:1296  Sensor(... */\n      dup2\n      mstore\n      0x20\n      add\n        /* \"contracts/ParkingSensor.sol\":1139:1144  false */\n      0x00\n        /* \"contracts/ParkingSensor.sol\":1020:1296  Sensor(... */\n      iszero\n      iszero\n      dup2\n      mstore\n      0x20\n      add\n        /* \"contracts/ParkingSensor.sol\":1181:1196  block.timestamp */\n      timestamp\n        /* \"contracts/ParkingSensor.sol\":1020:1296  Sensor(... */\n      dup2\n      mstore\n      0x20\n      add\n      mload(0x40)\n      dup1\n      0x20\n      add\n      0x40\n      mstore\n      dup1\n      0x00\n      dup2\n      mstore\n      pop\n      dup2\n      mstore\n      0x20\n      add\n        /* \"contracts/ParkingSensor.sol\":1268:1272  true */\n      0x01\n        /* \"contracts/ParkingSensor.sol\":1020:1296  Sensor(... */\n      iszero\n      iszero\n      dup2\n      mstore\n      pop\n        /* \"contracts/ParkingSensor.sol\":1005:1012  sensors */\n      0x00\n        /* \"contracts/ParkingSensor.sol\":1005:1017  sensors[_id] */\n      0x00\n        /* \"contracts/ParkingSensor.sol\":1013:1016  _id */\n      dup6\n        /* \"contracts/ParkingSensor.sol\":1005:1017  sensors[_id] */\n      dup2\n      mstore\n      0x20\n      add\n      swap1\n      dup2\n      mstore\n      0x20\n      add\n      0x00\n      keccak256\n        /* \"contracts/ParkingSensor.sol\":1005:1296  sensors[_id] = Sensor(... */\n      0x00\n      dup3\n      add\n      mload\n      dup2\n      0x00\n      add\n      sstore\n      0x20\n      dup3\n      add\n      mload\n      dup2\n      0x01\n      add\n      sstore\n      0x40\n      dup3\n      add\n      mload\n      dup2\n      0x02\n      add\n      sstore\n      0x60\n      dup3\n      add\n      mload\n      dup2\n      0x03\n      add\n      exp(0x0100, 0x00)\n      dup2\n      sload\n      dup2\n      0xff\n      mul\n      not\n      and\n      swap1\n      dup4\n      iszero\n      iszero\n      mul\n      or\n      swap1\n      sstore\n      pop\n      0x80\n      dup3\n      add\n      mload\n      dup2\n      0x04\n      add\n      sstore\n      0xa0\n      dup3\n      add\n      mload\n      dup2\n      0x05\n      add\n      swap1\n      dup2\n      tag_36\n      swap2\n      swap1\n      tag_37\n      jump\t// in\n    tag_36:\n      pop\n      0xc0\n      dup3\n      add\n      mload\n      dup2\n      0x06\n      add\n      exp(0x0100, 0x00)\n      dup2\n      sload\n      dup2\n      0xff\n      mul\n      not\n      and\n      swap1\n      dup4\n      iszero\n      iszero\n      mul\n      or\n      swap1\n      sstore\n      pop\n      swap1\n      pop\n      pop\n        /* \"contracts/ParkingSensor.sol\":1312:1341  SensorRegistered(_id, _x, _y) */\n      0xce1de8c95a916bbe4adfe41d0c6b62c60b4cc659d1d42c2517fb1e444574f2c3\n        /* \"contracts/ParkingSensor.sol\":1329:1332  _id */\n      dup4\n        /* \"contracts/ParkingSensor.sol\":1334:1336  _x */\n      dup4\n        /* \"contracts/ParkingSensor.sol\":1338:1340  _y */\n      dup4\n        /* \"contracts/ParkingSensor.sol\":1312:1341  SensorRegistered(_id, _x, _y) */\n      mload(0x40)\n      tag_38\n      swap4\n      swap3\n      swap2\n      swap1\n      tag_39\n      jump\t// in\n    tag_38:\n      mload(0x40)\n      dup1\n      swap2\n      sub\n      swap1\n      log1\n        /* \"contracts/ParkingSensor.sol\":745:1348  function RegisterSensor(uint _id, uint _x, uint _y) public {... */\n      pop\n      pop\n      pop\n      jump\t// out\n        /* \"contracts/ParkingSensor.sol\":255:293  mapping(uint => Sensor) public sensors */\n    tag_14:\n      mstore(0x20, 0x00)\n      dup1\n      0x00\n      mstore\n      keccak256(0x00, 0x40)\n      0x00\n      swap2\n      pop\n      swap1\n      pop\n      dup1\n      0x00\n      add\n      sload\n      swap1\n      dup1\n      0x01\n      add\n      sload\n      swap1\n      dup1\n      0x02\n      add\n      sload\n      swap1\n      dup1\n      0x03\n      add\n      0x00\n      swap1\n      sload\n      swap1\n      0x0100\n      exp\n      swap1\n      div\n      0xff\n      and\n      swap1\n      dup1\n      0x04\n      add\n      sload\n      swap1\n      dup1\n      0x05\n      add\n      dup1\n      sload\n      tag_40\n      swap1\n      tag_41\n      jump\t// in\n    tag_40:\n      dup1\n      0x1f\n      add\n      0x20\n      dup1\n      swap2\n      div\n      mul\n      0x20\n      add\n      mload(0x40)\n      swap1\n      dup2\n      add\n      0x40\n      mstore\n      dup1\n      swap3\n      swap2\n      swap1\n      dup2\n      dup2\n      mstore\n      0x20\n      add\n      dup3\n      dup1\n      sload\n      tag_42\n      swap1\n      tag_41\n      jump\t// in\n    tag_42:\n      dup1\n      iszero\n      tag_43\n      jumpi\n      dup1\n      0x1f\n      lt\n      tag_44\n      jumpi\n      0x0100\n      dup1\n      dup4\n      sload\n      div\n      mul\n      dup4\n      mstore\n      swap2\n      0x20\n      add\n      swap2\n      jump(tag_43)\n    tag_44:\n      dup3\n      add\n      swap2\n      swap1\n      0x00\n      mstore\n      keccak256(0x00, 0x20)\n      swap1\n    tag_45:\n      dup2\n      sload\n      dup2\n      mstore\n      swap1\n      0x01\n      add\n      swap1\n      0x20\n      add\n      dup1\n      dup4\n      gt\n      tag_45\n      jumpi\n      dup3\n      swap1\n      sub\n      0x1f\n      and\n      dup3\n      add\n      swap2\n    tag_43:\n      pop\n      pop\n      pop\n      pop\n      pop\n      swap1\n      dup1\n      0x06\n      add\n      0x00\n      swap1\n      sload\n      swap1\n      0x0100\n      exp\n      swap1\n      div\n      0xff\n      and\n      swap1\n      pop\n      dup8\n      jump\t// out\n        /* \"contracts/ParkingSensor.sol\":2423:2528  function getSensorData(uint _id) public view returns (Sensor memory) {... */\n    tag_19:\n        /* \"contracts/ParkingSensor.sol\":2477:2490  Sensor memory */\n      tag_46\n      tag_47\n      jump\t// in\n    tag_46:\n        /* \"contracts/ParkingSensor.sol\":2509:2516  sensors */\n      0x00\n        /* \"contracts/ParkingSensor.sol\":2509:2521  sensors[_id] */\n      0x00\n        /* \"contracts/ParkingSensor.sol\":2517:2520  _id */\n      dup4\n        /* \"contracts/ParkingSensor.sol\":2509:2521  sensors[_id] */\n      dup2\n      mstore\n      0x20\n      add\n      swap1\n      dup2\n      mstore\n      0x20\n      add\n      0x00\n      keccak256\n        /* \"contracts/ParkingSensor.sol\":2502:2521  return sensors[_id] */\n      mload(0x40)\n      dup1\n      0xe0\n      add\n      0x40\n      mstore\n      swap1\n      dup2\n      0x00\n      dup3\n      add\n      sload\n      dup2\n      mstore\n      0x20\n      add\n      0x01\n      dup3\n      add\n      sload\n      dup2\n      mstore\n      0x20\n      add\n      0x02\n      dup3\n      add\n      sload\n      dup2\n      mstore\n      0x20\n      add\n      0x03\n      dup3\n      add\n      0x00\n      swap1\n      sload\n      swap1\n      0x0100\n      exp\n      swap1\n      div\n      0xff\n      and\n      iszero\n      iszero\n      iszero\n      iszero\n      dup2\n      mstore\n      0x20\n      add\n      0x04\n      dup3\n      add\n      sload\n      dup2\n      mstore\n      0x20\n      add\n      0x05\n      dup3\n      add\n      dup1\n      sload\n      tag_49\n      swap1\n      tag_41\n      jump\t// in\n    tag_49:\n      dup1\n      0x1f\n      add\n      0x20\n      dup1\n      swap2\n      div\n      mul\n      0x20\n      add\n      mload(0x40)\n      swap1\n      dup2\n      add\n      0x40\n      mstore\n      dup1\n      swap3\n      swap2\n      swap1\n      dup2\n      dup2\n      mstore\n      0x20\n      add\n      dup3\n      dup1\n      sload\n      tag_50\n      swap1\n      tag_41\n      jump\t// in\n    tag_50:\n      dup1\n      iszero\n      tag_51\n      jumpi\n      dup1\n      0x1f\n      lt\n      tag_52\n      jumpi\n      0x0100\n      dup1\n      dup4\n      sload\n      div\n      mul\n      dup4\n      mstore\n      swap2\n      0x20\n      add\n      swap2\n      jump(tag_51)\n    tag_52:\n      dup3\n      add\n      swap2\n      swap1\n      0x00\n      mstore\n      keccak256(0x00, 0x20)\n      swap1\n    tag_53:\n      dup2\n      sload\n      dup2\n      mstore\n      swap1\n      0x01\n      add\n      swap1\n      0x20\n      add\n      dup1\n      dup4\n      gt\n      tag_53\n      jumpi\n      dup3\n      swap1\n      sub\n      0x1f\n      and\n      dup3\n      add\n      swap2\n    tag_51:\n      pop\n      pop\n      pop\n      pop\n      pop\n      dup2\n      mstore\n      0x20\n      add\n      0x06\n      dup3\n      add\n      0x00\n      swap1\n      sload\n      swap1\n      0x0100\n      exp\n      swap1\n      div\n      0xff\n      and\n      iszero\n      iszero\n      iszero\n      iszero\n      dup2\n      mstore\n      pop\n      pop\n      swap1\n      pop\n        /* \"contracts/ParkingSensor.sol\":2423:2528  function getSensorData(uint _id) public view returns (Sensor memory) {... */\n      swap2\n      swap1\n      pop\n      jump\t// out\n        /* \"contracts/ParkingSensor.sol\":1354:2417  function updateSensorReadings(uint _id, ... */\n    tag_25:\n        /* \"contracts/ParkingSensor.sol\":1578:1581  _id */\n      dup3\n        /* \"contracts/ParkingSensor.sol\":671:678  sensors */\n      0x00\n        /* \"contracts/ParkingSensor.sol\":671:683  sensors[_id] */\n      0x00\n        /* \"contracts/ParkingSensor.sol\":679:682  _id */\n      dup3\n        /* \"contracts/ParkingSensor.sol\":671:683  sensors[_id] */\n      dup2\n      mstore\n      0x20\n      add\n      swap1\n      dup2\n      mstore\n      0x20\n      add\n      0x00\n      keccak256\n        /* \"contracts/ParkingSensor.sol\":671:694  sensors[_id].registered */\n      0x06\n      add\n      0x00\n      swap1\n      sload\n      swap1\n      0x0100\n      exp\n      swap1\n      div\n      0xff\n      and\n        /* \"contracts/ParkingSensor.sol\":663:721  require(sensors[_id].registered, \"Sensor Not Registered!\") */\n      tag_55\n      jumpi\n      mload(0x40)\n      0x08c379a000000000000000000000000000000000000000000000000000000000\n      dup2\n      mstore\n      0x04\n      add\n      tag_56\n      swap1\n      tag_57\n      jump\t// in\n    tag_56:\n      mload(0x40)\n      dup1\n      swap2\n      sub\n      swap1\n      revert\n    tag_55:\n        /* \"contracts/ParkingSensor.sol\":1593:1621  uint durationInPreviousState */\n      0x00\n        /* \"contracts/ParkingSensor.sol\":1624:1625  0 */\n      0x00\n        /* \"contracts/ParkingSensor.sol\":1593:1625  uint durationInPreviousState = 0 */\n      swap1\n      pop\n        /* \"contracts/ParkingSensor.sol\":1635:1682  string memory previousStateVehicleRegisteration */\n      0x00\n        /* \"contracts/ParkingSensor.sol\":1635:1687  string memory previousStateVehicleRegisteration = \"\" */\n      mload(0x40)\n      dup1\n      0x20\n      add\n      0x40\n      mstore\n      dup1\n      0x00\n      dup2\n      mstore\n      pop\n      swap1\n      pop\n        /* \"contracts/ParkingSensor.sol\":1702:1711  _occupied */\n      dup5\n        /* \"contracts/ParkingSensor.sol\":1701:1711  !_occupied */\n      iszero\n        /* \"contracts/ParkingSensor.sol\":1701:1736  !_occupied && sensors[_id].occupied */\n      dup1\n      iszero\n      tag_59\n      jumpi\n      pop\n        /* \"contracts/ParkingSensor.sol\":1715:1722  sensors */\n      0x00\n        /* \"contracts/ParkingSensor.sol\":1715:1727  sensors[_id] */\n      0x00\n        /* \"contracts/ParkingSensor.sol\":1723:1726  _id */\n      dup8\n        /* \"contracts/ParkingSensor.sol\":1715:1727  sensors[_id] */\n      dup2\n      mstore\n      0x20\n      add\n      swap1\n      dup2\n      mstore\n      0x20\n      add\n      0x00\n      keccak256\n        /* \"contracts/ParkingSensor.sol\":1715:1736  sensors[_id].occupied */\n      0x03\n      add\n      0x00\n      swap1\n      sload\n      swap1\n      0x0100\n      exp\n      swap1\n      div\n      0xff\n      and\n        /* \"contracts/ParkingSensor.sol\":1701:1736  !_occupied && sensors[_id].occupied */\n    tag_59:\n        /* \"contracts/ParkingSensor.sol\":1698:1871  if(!_occupied && sensors[_id].occupied){... */\n      iszero\n      tag_60\n      jumpi\n        /* \"contracts/ParkingSensor.sol\":1787:1794  sensors */\n      0x00\n        /* \"contracts/ParkingSensor.sol\":1787:1799  sensors[_id] */\n      0x00\n        /* \"contracts/ParkingSensor.sol\":1795:1798  _id */\n      dup8\n        /* \"contracts/ParkingSensor.sol\":1787:1799  sensors[_id] */\n      dup2\n      mstore\n      0x20\n      add\n      swap1\n      dup2\n      mstore\n      0x20\n      add\n      0x00\n      keccak256\n        /* \"contracts/ParkingSensor.sol\":1787:1820  sensors[_id].vehicleRegisteration */\n      0x05\n      add\n        /* \"contracts/ParkingSensor.sol\":1751:1820  previousStateVehicleRegisteration = sensors[_id].vehicleRegisteration */\n      dup1\n      sload\n      tag_61\n      swap1\n      tag_41\n      jump\t// in\n    tag_61:\n      dup1\n      0x1f\n      add\n      0x20\n      dup1\n      swap2\n      div\n      mul\n      0x20\n      add\n      mload(0x40)\n      swap1\n      dup2\n      add\n      0x40\n      mstore\n      dup1\n      swap3\n      swap2\n      swap1\n      dup2\n      dup2\n      mstore\n      0x20\n      add\n      dup3\n      dup1\n      sload\n      tag_62\n      swap1\n      tag_41\n      jump\t// in\n    tag_62:\n      dup1\n      iszero\n      tag_63\n      jumpi\n      dup1\n      0x1f\n      lt\n      tag_64\n      jumpi\n      0x0100\n      dup1\n      dup4\n      sload\n      div\n      mul\n      dup4\n      mstore\n      swap2\n      0x20\n      add\n      swap2\n      jump(tag_63)\n    tag_64:\n      dup3\n      add\n      swap2\n      swap1\n      0x00\n      mstore\n      keccak256(0x00, 0x20)\n      swap1\n    tag_65:\n      dup2\n      sload\n      dup2\n      mstore\n      swap1\n      0x01\n      add\n      swap1\n      0x20\n      add\n      dup1\n      dup4\n      gt\n      tag_65\n      jumpi\n      dup3\n      swap1\n      sub\n      0x1f\n      and\n      dup3\n      add\n      swap2\n    tag_63:\n      pop\n      pop\n      pop\n      pop\n      pop\n      swap1\n      pop\n        /* \"contracts/ParkingSensor.sol\":1834:1860  _vehicleRegisteration = \"\" */\n      mload(0x40)\n      dup1\n      0x20\n      add\n      0x40\n      mstore\n      dup1\n      0x00\n      dup2\n      mstore\n      pop\n      swap4\n      pop\n        /* \"contracts/ParkingSensor.sol\":1698:1871  if(!_occupied && sensors[_id].occupied){... */\n    tag_60:\n        /* \"contracts/ParkingSensor.sol\":1905:1914  _occupied */\n      dup5\n        /* \"contracts/ParkingSensor.sol\":1881:1888  sensors */\n      0x00\n        /* \"contracts/ParkingSensor.sol\":1881:1893  sensors[_id] */\n      0x00\n        /* \"contracts/ParkingSensor.sol\":1889:1892  _id */\n      dup9\n        /* \"contracts/ParkingSensor.sol\":1881:1893  sensors[_id] */\n      dup2\n      mstore\n      0x20\n      add\n      swap1\n      dup2\n      mstore\n      0x20\n      add\n      0x00\n      keccak256\n        /* \"contracts/ParkingSensor.sol\":1881:1902  sensors[_id].occupied */\n      0x03\n      add\n      0x00\n        /* \"contracts/ParkingSensor.sol\":1881:1914  sensors[_id].occupied = _occupied */\n      0x0100\n      exp\n      dup2\n      sload\n      dup2\n      0xff\n      mul\n      not\n      and\n      swap1\n      dup4\n      iszero\n      iszero\n      mul\n      or\n      swap1\n      sstore\n      pop\n        /* \"contracts/ParkingSensor.sol\":1960:1981  _vehicleRegisteration */\n      dup4\n        /* \"contracts/ParkingSensor.sol\":1924:1931  sensors */\n      0x00\n        /* \"contracts/ParkingSensor.sol\":1924:1936  sensors[_id] */\n      0x00\n        /* \"contracts/ParkingSensor.sol\":1932:1935  _id */\n      dup9\n        /* \"contracts/ParkingSensor.sol\":1924:1936  sensors[_id] */\n      dup2\n      mstore\n      0x20\n      add\n      swap1\n      dup2\n      mstore\n      0x20\n      add\n      0x00\n      keccak256\n        /* \"contracts/ParkingSensor.sol\":1924:1957  sensors[_id].vehicleRegisteration */\n      0x05\n      add\n        /* \"contracts/ParkingSensor.sol\":1924:1981  sensors[_id].vehicleRegisteration = _vehicleRegisteration */\n      swap1\n      dup2\n      tag_66\n      swap2\n      swap1\n      tag_37\n      jump\t// in\n    tag_66:\n      pop\n        /* \"contracts/ParkingSensor.sol\":2013:2020  sensors */\n      0x00\n        /* \"contracts/ParkingSensor.sol\":2013:2025  sensors[_id] */\n      0x00\n        /* \"contracts/ParkingSensor.sol\":2021:2024  _id */\n      dup8\n        /* \"contracts/ParkingSensor.sol\":2013:2025  sensors[_id] */\n      dup2\n      mstore\n      0x20\n      add\n      swap1\n      dup2\n      mstore\n      0x20\n      add\n      0x00\n      keccak256\n        /* \"contracts/ParkingSensor.sol\":2013:2043  sensors[_id].modifiedTimeStamp */\n      0x04\n      add\n      sload\n        /* \"contracts/ParkingSensor.sol\":1995:2010  block.timestamp */\n      timestamp\n        /* \"contracts/ParkingSensor.sol\":1995:2043  block.timestamp > sensors[_id].modifiedTimeStamp */\n      gt\n        /* \"contracts/ParkingSensor.sol\":1992:2143  if(block.timestamp > sensors[_id].modifiedTimeStamp){... */\n      iszero\n      tag_67\n      jumpi\n        /* \"contracts/ParkingSensor.sol\":2102:2109  sensors */\n      0x00\n        /* \"contracts/ParkingSensor.sol\":2102:2114  sensors[_id] */\n      0x00\n        /* \"contracts/ParkingSensor.sol\":2110:2113  _id */\n      dup8\n        /* \"contracts/ParkingSensor.sol\":2102:2114  sensors[_id] */\n      dup2\n      mstore\n      0x20\n      add\n      swap1\n      dup2\n      mstore\n      0x20\n      add\n      0x00\n      keccak256\n        /* \"contracts/ParkingSensor.sol\":2102:2132  sensors[_id].modifiedTimeStamp */\n      0x04\n      add\n      sload\n        /* \"contracts/ParkingSensor.sol\":2084:2099  block.timestamp */\n      timestamp\n        /* \"contracts/ParkingSensor.sol\":2084:2132  block.timestamp - sensors[_id].modifiedTimeStamp */\n      tag_68\n      swap2\n      swap1\n      tag_69\n      jump\t// in\n    tag_68:\n        /* \"contracts/ParkingSensor.sol\":2058:2132  durationInPreviousState = block.timestamp - sensors[_id].modifiedTimeStamp */\n      swap2\n      pop\n        /* \"contracts/ParkingSensor.sol\":1992:2143  if(block.timestamp > sensors[_id].modifiedTimeStamp){... */\n    tag_67:\n        /* \"contracts/ParkingSensor.sol\":2186:2201  block.timestamp */\n      timestamp\n        /* \"contracts/ParkingSensor.sol\":2153:2160  sensors */\n      0x00\n        /* \"contracts/ParkingSensor.sol\":2153:2165  sensors[_id] */\n      0x00\n        /* \"contracts/ParkingSensor.sol\":2161:2164  _id */\n      dup9\n        /* \"contracts/ParkingSensor.sol\":2153:2165  sensors[_id] */\n      dup2\n      mstore\n      0x20\n      add\n      swap1\n      dup2\n      mstore\n      0x20\n      add\n      0x00\n      keccak256\n        /* \"contracts/ParkingSensor.sol\":2153:2183  sensors[_id].modifiedTimeStamp */\n      0x04\n      add\n        /* \"contracts/ParkingSensor.sol\":2153:2201  sensors[_id].modifiedTimeStamp = block.timestamp */\n      dup2\n      swap1\n      sstore\n      pop\n        /* \"contracts/ParkingSensor.sol\":2217:2410  SensorReadingUpdate(_id, ... */\n      0x6d50cce71fc451f8e60c3dbc11e85adc8aa8e0072d6bf563acf5a97b1cd4e047\n        /* \"contracts/ParkingSensor.sol\":2237:2240  _id */\n      dup7\n        /* \"contracts/ParkingSensor.sol\":2275:2284  _occupied */\n      dup7\n        /* \"contracts/ParkingSensor.sol\":2319:2342  durationInPreviousState */\n      dup5\n        /* \"contracts/ParkingSensor.sol\":2376:2409  previousStateVehicleRegisteration */\n      dup5\n        /* \"contracts/ParkingSensor.sol\":2217:2410  SensorReadingUpdate(_id, ... */\n      mload(0x40)\n      tag_70\n      swap5\n      swap4\n      swap3\n      swap2\n      swap1\n      tag_71\n      jump\t// in\n    tag_70:\n      mload(0x40)\n      dup1\n      swap2\n      sub\n      swap1\n      log1\n        /* \"contracts/ParkingSensor.sol\":1583:2417  {... */\n      pop\n      pop\n        /* \"contracts/ParkingSensor.sol\":1354:2417  function updateSensorReadings(uint _id, ... */\n      pop\n      pop\n      pop\n      pop\n      jump\t// out\n    tag_47:\n      mload(0x40)\n      dup1\n      0xe0\n      add\n      0x40\n      mstore\n      dup1\n      0x00\n      dup2\n      mstore\n      0x20\n      add\n      0x00\n      dup2\n      mstore\n      0x20\n      add\n      0x00\n      dup2\n      mstore\n      0x20\n      add\n      iszero(iszero(0x00))\n      dup2\n      mstore\n      0x20\n      add\n      0x00\n      dup2\n      mstore\n      0x20\n      add\n      0x60\n      dup2\n      mstore\n      0x20\n      add\n      iszero(iszero(0x00))\n      dup2\n      mstore\n      pop\n      swap1\n      jump\t// out\n        /* \"#utility.yul\":7:82   */\n    tag_72:\n        /* \"#utility.yul\":40:46   */\n      0x00\n        /* \"#utility.yul\":73:75   */\n      0x40\n        /* \"#utility.yul\":67:76   */\n      mload\n        /* \"#utility.yul\":57:76   */\n      swap1\n      pop\n        /* \"#utility.yul\":7:82   */\n      swap1\n      jump\t// out\n        /* \"#utility.yul\":88:205   */\n    tag_73:\n        /* \"#utility.yul\":197:198   */\n      0x00\n        /* \"#utility.yul\":194:195   */\n      0x00\n        /* \"#utility.yul\":187:199   */\n      revert\n        /* \"#utility.yul\":211:328   */\n    tag_74:\n        /* \"#utility.yul\":320:321   */\n      0x00\n        /* \"#utility.yul\":317:318   */\n      0x00\n        /* \"#utility.yul\":310:322   */\n      revert\n        /* \"#utility.yul\":334:411   */\n    tag_75:\n        /* \"#utility.yul\":371:378   */\n      0x00\n        /* \"#utility.yul\":400:405   */\n      dup2\n        /* \"#utility.yul\":389:405   */\n      swap1\n      pop\n        /* \"#utility.yul\":334:411   */\n      swap2\n      swap1\n      pop\n      jump\t// out\n        /* \"#utility.yul\":417:539   */\n    tag_76:\n        /* \"#utility.yul\":490:514   */\n      tag_133\n        /* \"#utility.yul\":508:513   */\n      dup2\n        /* \"#utility.yul\":490:514   */\n      tag_75\n      jump\t// in\n    tag_133:\n        /* \"#utility.yul\":483:488   */\n      dup2\n        /* \"#utility.yul\":480:515   */\n      eq\n        /* \"#utility.yul\":470:533   */\n      tag_134\n      jumpi\n        /* \"#utility.yul\":529:530   */\n      0x00\n        /* \"#utility.yul\":526:527   */\n      0x00\n        /* \"#utility.yul\":519:531   */\n      revert\n        /* \"#utility.yul\":470:533   */\n    tag_134:\n        /* \"#utility.yul\":417:539   */\n      pop\n      jump\t// out\n        /* \"#utility.yul\":545:684   */\n    tag_77:\n        /* \"#utility.yul\":591:596   */\n      0x00\n        /* \"#utility.yul\":629:635   */\n      dup2\n        /* \"#utility.yul\":616:636   */\n      calldataload\n        /* \"#utility.yul\":607:636   */\n      swap1\n      pop\n        /* \"#utility.yul\":645:678   */\n      tag_136\n        /* \"#utility.yul\":672:677   */\n      dup2\n        /* \"#utility.yul\":645:678   */\n      tag_76\n      jump\t// in\n    tag_136:\n        /* \"#utility.yul\":545:684   */\n      swap3\n      swap2\n      pop\n      pop\n      jump\t// out\n        /* \"#utility.yul\":690:1309   */\n    tag_9:\n        /* \"#utility.yul\":767:773   */\n      0x00\n        /* \"#utility.yul\":775:781   */\n      0x00\n        /* \"#utility.yul\":783:789   */\n      0x00\n        /* \"#utility.yul\":832:834   */\n      0x60\n        /* \"#utility.yul\":820:829   */\n      dup5\n        /* \"#utility.yul\":811:818   */\n      dup7\n        /* \"#utility.yul\":807:830   */\n      sub\n        /* \"#utility.yul\":803:835   */\n      slt\n        /* \"#utility.yul\":800:919   */\n      iszero\n      tag_138\n      jumpi\n        /* \"#utility.yul\":838:917   */\n      tag_139\n      tag_73\n      jump\t// in\n    tag_139:\n        /* \"#utility.yul\":800:919   */\n    tag_138:\n        /* \"#utility.yul\":958:959   */\n      0x00\n        /* \"#utility.yul\":983:1036   */\n      tag_140\n        /* \"#utility.yul\":1028:1035   */\n      dup7\n        /* \"#utility.yul\":1019:1025   */\n      dup3\n        /* \"#utility.yul\":1008:1017   */\n      dup8\n        /* \"#utility.yul\":1004:1026   */\n      add\n        /* \"#utility.yul\":983:1036   */\n      tag_77\n      jump\t// in\n    tag_140:\n        /* \"#utility.yul\":973:1036   */\n      swap4\n      pop\n        /* \"#utility.yul\":929:1046   */\n      pop\n        /* \"#utility.yul\":1085:1087   */\n      0x20\n        /* \"#utility.yul\":1111:1164   */\n      tag_141\n        /* \"#utility.yul\":1156:1163   */\n      dup7\n        /* \"#utility.yul\":1147:1153   */\n      dup3\n        /* \"#utility.yul\":1136:1145   */\n      dup8\n        /* \"#utility.yul\":1132:1154   */\n      add\n        /* \"#utility.yul\":1111:1164   */\n      tag_77\n      jump\t// in\n    tag_141:\n        /* \"#utility.yul\":1101:1164   */\n      swap3\n      pop\n        /* \"#utility.yul\":1056:1174   */\n      pop\n        /* \"#utility.yul\":1213:1215   */\n      0x40\n        /* \"#utility.yul\":1239:1292   */\n      tag_142\n        /* \"#utility.yul\":1284:1291   */\n      dup7\n        /* \"#utility.yul\":1275:1281   */\n      dup3\n        /* \"#utility.yul\":1264:1273   */\n      dup8\n        /* \"#utility.yul\":1260:1282   */\n      add\n        /* \"#utility.yul\":1239:1292   */\n      tag_77\n      jump\t// in\n    tag_142:\n        /* \"#utility.yul\":1229:1292   */\n      swap2\n      pop\n        /* \"#utility.yul\":1184:1302   */\n      pop\n        /* \"#utility.yul\":690:1309   */\n      swap3\n      pop\n      swap3\n      pop\n      swap3\n      jump\t// out\n        /* \"#utility.yul\":1315:1644   */\n    tag_13:\n        /* \"#utility.yul\":1374:1380   */\n      0x00\n        /* \"#utility.yul\":1423:1425   */\n      0x20\n        /* \"#utility.yul\":1411:1420   */\n      dup3\n        /* \"#utility.yul\":1402:1409   */\n      dup5\n        /* \"#utility.yul\":1398:1421   */\n      sub\n        /* \"#utility.yul\":1394:1426   */\n      slt\n        /* \"#utility.yul\":1391:1510   */\n      iszero\n      tag_144\n      jumpi\n        /* \"#utility.yul\":1429:1508   */\n      tag_145\n      tag_73\n      jump\t// in\n    tag_145:\n        /* \"#utility.yul\":1391:1510   */\n    tag_144:\n        /* \"#utility.yul\":1549:1550   */\n      0x00\n        /* \"#utility.yul\":1574:1627   */\n      tag_146\n        /* \"#utility.yul\":1619:1626   */\n      dup5\n        /* \"#utility.yul\":1610:1616   */\n      dup3\n        /* \"#utility.yul\":1599:1608   */\n      dup6\n        /* \"#utility.yul\":1595:1617   */\n      add\n        /* \"#utility.yul\":1574:1627   */\n      tag_77\n      jump\t// in\n    tag_146:\n        /* \"#utility.yul\":1564:1627   */\n      swap2\n      pop\n        /* \"#utility.yul\":1520:1637   */\n      pop\n        /* \"#utility.yul\":1315:1644   */\n      swap3\n      swap2\n      pop\n      pop\n      jump\t// out\n        /* \"#utility.yul\":1650:1768   */\n    tag_78:\n        /* \"#utility.yul\":1737:1761   */\n      tag_148\n        /* \"#utility.yul\":1755:1760   */\n      dup2\n        /* \"#utility.yul\":1737:1761   */\n      tag_75\n      jump\t// in\n    tag_148:\n        /* \"#utility.yul\":1732:1735   */\n      dup3\n        /* \"#utility.yul\":1725:1762   */\n      mstore\n        /* \"#utility.yul\":1650:1768   */\n      pop\n      pop\n      jump\t// out\n        /* \"#utility.yul\":1774:1864   */\n    tag_79:\n        /* \"#utility.yul\":1808:1815   */\n      0x00\n        /* \"#utility.yul\":1851:1856   */\n      dup2\n        /* \"#utility.yul\":1844:1857   */\n      iszero\n        /* \"#utility.yul\":1837:1858   */\n      iszero\n        /* \"#utility.yul\":1826:1858   */\n      swap1\n      pop\n        /* \"#utility.yul\":1774:1864   */\n      swap2\n      swap1\n      pop\n      jump\t// out\n        /* \"#utility.yul\":1870:1979   */\n    tag_80:\n        /* \"#utility.yul\":1951:1972   */\n      tag_151\n        /* \"#utility.yul\":1966:1971   */\n      dup2\n        /* \"#utility.yul\":1951:1972   */\n      tag_79\n      jump\t// in\n    tag_151:\n        /* \"#utility.yul\":1946:1949   */\n      dup3\n        /* \"#utility.yul\":1939:1973   */\n      mstore\n        /* \"#utility.yul\":1870:1979   */\n      pop\n      pop\n      jump\t// out\n        /* \"#utility.yul\":1985:2084   */\n    tag_81:\n        /* \"#utility.yul\":2037:2043   */\n      0x00\n        /* \"#utility.yul\":2071:2076   */\n      dup2\n        /* \"#utility.yul\":2065:2077   */\n      mload\n        /* \"#utility.yul\":2055:2077   */\n      swap1\n      pop\n        /* \"#utility.yul\":1985:2084   */\n      swap2\n      swap1\n      pop\n      jump\t// out\n        /* \"#utility.yul\":2090:2259   */\n    tag_82:\n        /* \"#utility.yul\":2174:2185   */\n      0x00\n        /* \"#utility.yul\":2208:2214   */\n      dup3\n        /* \"#utility.yul\":2203:2206   */\n      dup3\n        /* \"#utility.yul\":2196:2215   */\n      mstore\n        /* \"#utility.yul\":2248:2252   */\n      0x20\n        /* \"#utility.yul\":2243:2246   */\n      dup3\n        /* \"#utility.yul\":2239:2253   */\n      add\n        /* \"#utility.yul\":2224:2253   */\n      swap1\n      pop\n        /* \"#utility.yul\":2090:2259   */\n      swap3\n      swap2\n      pop\n      pop\n      jump\t// out\n        /* \"#utility.yul\":2265:2404   */\n    tag_83:\n        /* \"#utility.yul\":2354:2360   */\n      dup3\n        /* \"#utility.yul\":2349:2352   */\n      dup2\n        /* \"#utility.yul\":2344:2347   */\n      dup4\n        /* \"#utility.yul\":2338:2361   */\n      mcopy\n        /* \"#utility.yul\":2395:2396   */\n      0x00\n        /* \"#utility.yul\":2386:2392   */\n      dup4\n        /* \"#utility.yul\":2381:2384   */\n      dup4\n        /* \"#utility.yul\":2377:2393   */\n      add\n        /* \"#utility.yul\":2370:2397   */\n      mstore\n        /* \"#utility.yul\":2265:2404   */\n      pop\n      pop\n      pop\n      jump\t// out\n        /* \"#utility.yul\":2410:2512   */\n    tag_84:\n        /* \"#utility.yul\":2451:2457   */\n      0x00\n        /* \"#utility.yul\":2502:2504   */\n      0x1f\n        /* \"#utility.yul\":2498:2505   */\n      not\n        /* \"#utility.yul\":2493:2495   */\n      0x1f\n        /* \"#utility.yul\":2486:2491   */\n      dup4\n        /* \"#utility.yul\":2482:2496   */\n      add\n        /* \"#utility.yul\":2478:2506   */\n      and\n        /* \"#utility.yul\":2468:2506   */\n      swap1\n      pop\n        /* \"#utility.yul\":2410:2512   */\n      swap2\n      swap1\n      pop\n      jump\t// out\n        /* \"#utility.yul\":2518:2895   */\n    tag_85:\n        /* \"#utility.yul\":2606:2609   */\n      0x00\n        /* \"#utility.yul\":2634:2673   */\n      tag_157\n        /* \"#utility.yul\":2667:2672   */\n      dup3\n        /* \"#utility.yul\":2634:2673   */\n      tag_81\n      jump\t// in\n    tag_157:\n        /* \"#utility.yul\":2689:2760   */\n      tag_158\n        /* \"#utility.yul\":2753:2759   */\n      dup2\n        /* \"#utility.yul\":2748:2751   */\n      dup6\n        /* \"#utility.yul\":2689:2760   */\n      tag_82\n      jump\t// in\n    tag_158:\n        /* \"#utility.yul\":2682:2760   */\n      swap4\n      pop\n        /* \"#utility.yul\":2769:2834   */\n      tag_159\n        /* \"#utility.yul\":2827:2833   */\n      dup2\n        /* \"#utility.yul\":2822:2825   */\n      dup6\n        /* \"#utility.yul\":2815:2819   */\n      0x20\n        /* \"#utility.yul\":2808:2813   */\n      dup7\n        /* \"#utility.yul\":2804:2820   */\n      add\n        /* \"#utility.yul\":2769:2834   */\n      tag_83\n      jump\t// in\n    tag_159:\n        /* \"#utility.yul\":2859:2888   */\n      tag_160\n        /* \"#utility.yul\":2881:2887   */\n      dup2\n        /* \"#utility.yul\":2859:2888   */\n      tag_84\n      jump\t// in\n    tag_160:\n        /* \"#utility.yul\":2854:2857   */\n      dup5\n        /* \"#utility.yul\":2850:2889   */\n      add\n        /* \"#utility.yul\":2843:2889   */\n      swap2\n      pop\n        /* \"#utility.yul\":2610:2895   */\n      pop\n        /* \"#utility.yul\":2518:2895   */\n      swap3\n      swap2\n      pop\n      pop\n      jump\t// out\n        /* \"#utility.yul\":2901:3854   */\n    tag_16:\n        /* \"#utility.yul\":3170:3174   */\n      0x00\n        /* \"#utility.yul\":3208:3211   */\n      0xe0\n        /* \"#utility.yul\":3197:3206   */\n      dup3\n        /* \"#utility.yul\":3193:3212   */\n      add\n        /* \"#utility.yul\":3185:3212   */\n      swap1\n      pop\n        /* \"#utility.yul\":3222:3293   */\n      tag_162\n        /* \"#utility.yul\":3290:3291   */\n      0x00\n        /* \"#utility.yul\":3279:3288   */\n      dup4\n        /* \"#utility.yul\":3275:3292   */\n      add\n        /* \"#utility.yul\":3266:3272   */\n      dup11\n        /* \"#utility.yul\":3222:3293   */\n      tag_78\n      jump\t// in\n    tag_162:\n        /* \"#utility.yul\":3303:3375   */\n      tag_163\n        /* \"#utility.yul\":3371:3373   */\n      0x20\n        /* \"#utility.yul\":3360:3369   */\n      dup4\n        /* \"#utility.yul\":3356:3374   */\n      add\n        /* \"#utility.yul\":3347:3353   */\n      dup10\n        /* \"#utility.yul\":3303:3375   */\n      tag_78\n      jump\t// in\n    tag_163:\n        /* \"#utility.yul\":3385:3457   */\n      tag_164\n        /* \"#utility.yul\":3453:3455   */\n      0x40\n        /* \"#utility.yul\":3442:3451   */\n      dup4\n        /* \"#utility.yul\":3438:3456   */\n      add\n        /* \"#utility.yul\":3429:3435   */\n      dup9\n        /* \"#utility.yul\":3385:3457   */\n      tag_78\n      jump\t// in\n    tag_164:\n        /* \"#utility.yul\":3467:3533   */\n      tag_165\n        /* \"#utility.yul\":3529:3531   */\n      0x60\n        /* \"#utility.yul\":3518:3527   */\n      dup4\n        /* \"#utility.yul\":3514:3532   */\n      add\n        /* \"#utility.yul\":3505:3511   */\n      dup8\n        /* \"#utility.yul\":3467:3533   */\n      tag_80\n      jump\t// in\n    tag_165:\n        /* \"#utility.yul\":3543:3616   */\n      tag_166\n        /* \"#utility.yul\":3611:3614   */\n      0x80\n        /* \"#utility.yul\":3600:3609   */\n      dup4\n        /* \"#utility.yul\":3596:3615   */\n      add\n        /* \"#utility.yul\":3587:3593   */\n      dup7\n        /* \"#utility.yul\":3543:3616   */\n      tag_78\n      jump\t// in\n    tag_166:\n        /* \"#utility.yul\":3664:3673   */\n      dup2\n        /* \"#utility.yul\":3658:3662   */\n      dup2\n        /* \"#utility.yul\":3654:3674   */\n      sub\n        /* \"#utility.yul\":3648:3651   */\n      0xa0\n        /* \"#utility.yul\":3637:3646   */\n      dup4\n        /* \"#utility.yul\":3633:3652   */\n      add\n        /* \"#utility.yul\":3626:3675   */\n      mstore\n        /* \"#utility.yul\":3692:3770   */\n      tag_167\n        /* \"#utility.yul\":3765:3769   */\n      dup2\n        /* \"#utility.yul\":3756:3762   */\n      dup6\n        /* \"#utility.yul\":3692:3770   */\n      tag_85\n      jump\t// in\n    tag_167:\n        /* \"#utility.yul\":3684:3770   */\n      swap1\n      pop\n        /* \"#utility.yul\":3780:3847   */\n      tag_168\n        /* \"#utility.yul\":3842:3845   */\n      0xc0\n        /* \"#utility.yul\":3831:3840   */\n      dup4\n        /* \"#utility.yul\":3827:3846   */\n      add\n        /* \"#utility.yul\":3818:3824   */\n      dup5\n        /* \"#utility.yul\":3780:3847   */\n      tag_80\n      jump\t// in\n    tag_168:\n        /* \"#utility.yul\":2901:3854   */\n      swap9\n      swap8\n      pop\n      pop\n      pop\n      pop\n      pop\n      pop\n      pop\n      pop\n      jump\t// out\n        /* \"#utility.yul\":3860:3968   */\n    tag_86:\n        /* \"#utility.yul\":3937:3961   */\n      tag_170\n        /* \"#utility.yul\":3955:3960   */\n      dup2\n        /* \"#utility.yul\":3937:3961   */\n      tag_75\n      jump\t// in\n    tag_170:\n        /* \"#utility.yul\":3932:3935   */\n      dup3\n        /* \"#utility.yul\":3925:3962   */\n      mstore\n        /* \"#utility.yul\":3860:3968   */\n      pop\n      pop\n      jump\t// out\n        /* \"#utility.yul\":3974:4073   */\n    tag_87:\n        /* \"#utility.yul\":4045:4066   */\n      tag_172\n        /* \"#utility.yul\":4060:4065   */\n      dup2\n        /* \"#utility.yul\":4045:4066   */\n      tag_79\n      jump\t// in\n    tag_172:\n        /* \"#utility.yul\":4040:4043   */\n      dup3\n        /* \"#utility.yul\":4033:4067   */\n      mstore\n        /* \"#utility.yul\":3974:4073   */\n      pop\n      pop\n      jump\t// out\n        /* \"#utility.yul\":4079:4238   */\n    tag_88:\n        /* \"#utility.yul\":4153:4164   */\n      0x00\n        /* \"#utility.yul\":4187:4193   */\n      dup3\n        /* \"#utility.yul\":4182:4185   */\n      dup3\n        /* \"#utility.yul\":4175:4194   */\n      mstore\n        /* \"#utility.yul\":4227:4231   */\n      0x20\n        /* \"#utility.yul\":4222:4225   */\n      dup3\n        /* \"#utility.yul\":4218:4232   */\n      add\n        /* \"#utility.yul\":4203:4232   */\n      swap1\n      pop\n        /* \"#utility.yul\":4079:4238   */\n      swap3\n      swap2\n      pop\n      pop\n      jump\t// out\n        /* \"#utility.yul\":4244:4601   */\n    tag_89:\n        /* \"#utility.yul\":4322:4325   */\n      0x00\n        /* \"#utility.yul\":4350:4389   */\n      tag_175\n        /* \"#utility.yul\":4383:4388   */\n      dup3\n        /* \"#utility.yul\":4350:4389   */\n      tag_81\n      jump\t// in\n    tag_175:\n        /* \"#utility.yul\":4405:4466   */\n      tag_176\n        /* \"#utility.yul\":4459:4465   */\n      dup2\n        /* \"#utility.yul\":4454:4457   */\n      dup6\n        /* \"#utility.yul\":4405:4466   */\n      tag_88\n      jump\t// in\n    tag_176:\n        /* \"#utility.yul\":4398:4466   */\n      swap4\n      pop\n        /* \"#utility.yul\":4475:4540   */\n      tag_177\n        /* \"#utility.yul\":4533:4539   */\n      dup2\n        /* \"#utility.yul\":4528:4531   */\n      dup6\n        /* \"#utility.yul\":4521:4525   */\n      0x20\n        /* \"#utility.yul\":4514:4519   */\n      dup7\n        /* \"#utility.yul\":4510:4526   */\n      add\n        /* \"#utility.yul\":4475:4540   */\n      tag_83\n      jump\t// in\n    tag_177:\n        /* \"#utility.yul\":4565:4594   */\n      tag_178\n        /* \"#utility.yul\":4587:4593   */\n      dup2\n        /* \"#utility.yul\":4565:4594   */\n      tag_84\n      jump\t// in\n    tag_178:\n        /* \"#utility.yul\":4560:4563   */\n      dup5\n        /* \"#utility.yul\":4556:4595   */\n      add\n        /* \"#utility.yul\":4549:4595   */\n      swap2\n      pop\n        /* \"#utility.yul\":4326:4601   */\n      pop\n        /* \"#utility.yul\":4244:4601   */\n      swap3\n      swap2\n      pop\n      pop\n      jump\t// out\n        /* \"#utility.yul\":4673:6162   */\n    tag_90:\n        /* \"#utility.yul\":4786:4789   */\n      0x00\n        /* \"#utility.yul\":4822:4826   */\n      0xe0\n        /* \"#utility.yul\":4817:4820   */\n      dup4\n        /* \"#utility.yul\":4813:4827   */\n      add\n        /* \"#utility.yul\":4907:4911   */\n      0x00\n        /* \"#utility.yul\":4900:4905   */\n      dup4\n        /* \"#utility.yul\":4896:4912   */\n      add\n        /* \"#utility.yul\":4890:4913   */\n      mload\n        /* \"#utility.yul\":4926:4989   */\n      tag_180\n        /* \"#utility.yul\":4983:4987   */\n      0x00\n        /* \"#utility.yul\":4978:4981   */\n      dup7\n        /* \"#utility.yul\":4974:4988   */\n      add\n        /* \"#utility.yul\":4960:4972   */\n      dup3\n        /* \"#utility.yul\":4926:4989   */\n      tag_86\n      jump\t// in\n    tag_180:\n        /* \"#utility.yul\":4837:4999   */\n      pop\n        /* \"#utility.yul\":5078:5082   */\n      0x20\n        /* \"#utility.yul\":5071:5076   */\n      dup4\n        /* \"#utility.yul\":5067:5083   */\n      add\n        /* \"#utility.yul\":5061:5084   */\n      mload\n        /* \"#utility.yul\":5097:5160   */\n      tag_181\n        /* \"#utility.yul\":5154:5158   */\n      0x20\n        /* \"#utility.yul\":5149:5152   */\n      dup7\n        /* \"#utility.yul\":5145:5159   */\n      add\n        /* \"#utility.yul\":5131:5143   */\n      dup3\n        /* \"#utility.yul\":5097:5160   */\n      tag_86\n      jump\t// in\n    tag_181:\n        /* \"#utility.yul\":5009:5170   */\n      pop\n        /* \"#utility.yul\":5249:5253   */\n      0x40\n        /* \"#utility.yul\":5242:5247   */\n      dup4\n        /* \"#utility.yul\":5238:5254   */\n      add\n        /* \"#utility.yul\":5232:5255   */\n      mload\n        /* \"#utility.yul\":5268:5331   */\n      tag_182\n        /* \"#utility.yul\":5325:5329   */\n      0x40\n        /* \"#utility.yul\":5320:5323   */\n      dup7\n        /* \"#utility.yul\":5316:5330   */\n      add\n        /* \"#utility.yul\":5302:5314   */\n      dup3\n        /* \"#utility.yul\":5268:5331   */\n      tag_86\n      jump\t// in\n    tag_182:\n        /* \"#utility.yul\":5180:5341   */\n      pop\n        /* \"#utility.yul\":5427:5431   */\n      0x60\n        /* \"#utility.yul\":5420:5425   */\n      dup4\n        /* \"#utility.yul\":5416:5432   */\n      add\n        /* \"#utility.yul\":5410:5433   */\n      mload\n        /* \"#utility.yul\":5446:5503   */\n      tag_183\n        /* \"#utility.yul\":5497:5501   */\n      0x60\n        /* \"#utility.yul\":5492:5495   */\n      dup7\n        /* \"#utility.yul\":5488:5502   */\n      add\n        /* \"#utility.yul\":5474:5486   */\n      dup3\n        /* \"#utility.yul\":5446:5503   */\n      tag_87\n      jump\t// in\n    tag_183:\n        /* \"#utility.yul\":5351:5513   */\n      pop\n        /* \"#utility.yul\":5608:5612   */\n      0x80\n        /* \"#utility.yul\":5601:5606   */\n      dup4\n        /* \"#utility.yul\":5597:5613   */\n      add\n        /* \"#utility.yul\":5591:5614   */\n      mload\n        /* \"#utility.yul\":5627:5690   */\n      tag_184\n        /* \"#utility.yul\":5684:5688   */\n      0x80\n        /* \"#utility.yul\":5679:5682   */\n      dup7\n        /* \"#utility.yul\":5675:5689   */\n      add\n        /* \"#utility.yul\":5661:5673   */\n      dup3\n        /* \"#utility.yul\":5627:5690   */\n      tag_86\n      jump\t// in\n    tag_184:\n        /* \"#utility.yul\":5523:5700   */\n      pop\n        /* \"#utility.yul\":5798:5802   */\n      0xa0\n        /* \"#utility.yul\":5791:5796   */\n      dup4\n        /* \"#utility.yul\":5787:5803   */\n      add\n        /* \"#utility.yul\":5781:5804   */\n      mload\n        /* \"#utility.yul\":5851:5854   */\n      dup5\n        /* \"#utility.yul\":5845:5849   */\n      dup3\n        /* \"#utility.yul\":5841:5855   */\n      sub\n        /* \"#utility.yul\":5834:5838   */\n      0xa0\n        /* \"#utility.yul\":5829:5832   */\n      dup7\n        /* \"#utility.yul\":5825:5839   */\n      add\n        /* \"#utility.yul\":5818:5856   */\n      mstore\n        /* \"#utility.yul\":5877:5950   */\n      tag_185\n        /* \"#utility.yul\":5945:5949   */\n      dup3\n        /* \"#utility.yul\":5931:5943   */\n      dup3\n        /* \"#utility.yul\":5877:5950   */\n      tag_89\n      jump\t// in\n    tag_185:\n        /* \"#utility.yul\":5869:5950   */\n      swap2\n      pop\n        /* \"#utility.yul\":5710:5961   */\n      pop\n        /* \"#utility.yul\":6049:6053   */\n      0xc0\n        /* \"#utility.yul\":6042:6047   */\n      dup4\n        /* \"#utility.yul\":6038:6054   */\n      add\n        /* \"#utility.yul\":6032:6055   */\n      mload\n        /* \"#utility.yul\":6068:6125   */\n      tag_186\n        /* \"#utility.yul\":6119:6123   */\n      0xc0\n        /* \"#utility.yul\":6114:6117   */\n      dup7\n        /* \"#utility.yul\":6110:6124   */\n      add\n        /* \"#utility.yul\":6096:6108   */\n      dup3\n        /* \"#utility.yul\":6068:6125   */\n      tag_87\n      jump\t// in\n    tag_186:\n        /* \"#utility.yul\":5971:6135   */\n      pop\n        /* \"#utility.yul\":6152:6156   */\n      dup1\n        /* \"#utility.yul\":6145:6156   */\n      swap2\n      pop\n        /* \"#utility.yul\":4791:6162   */\n      pop\n        /* \"#utility.yul\":4673:6162   */\n      swap3\n      swap2\n      pop\n      pop\n      jump\t// out\n        /* \"#utility.yul\":6168:6529   */\n    tag_21:\n        /* \"#utility.yul\":6305:6309   */\n      0x00\n        /* \"#utility.yul\":6343:6345   */\n      0x20\n        /* \"#utility.yul\":6332:6341   */\n      dup3\n        /* \"#utility.yul\":6328:6346   */\n      add\n        /* \"#utility.yul\":6320:6346   */\n      swap1\n      pop\n        /* \"#utility.yul\":6392:6401   */\n      dup2\n        /* \"#utility.yul\":6386:6390   */\n      dup2\n        /* \"#utility.yul\":6382:6402   */\n      sub\n        /* \"#utility.yul\":6378:6379   */\n      0x00\n        /* \"#utility.yul\":6367:6376   */\n      dup4\n        /* \"#utility.yul\":6363:6380   */\n      add\n        /* \"#utility.yul\":6356:6403   */\n      mstore\n        /* \"#utility.yul\":6420:6522   */\n      tag_188\n        /* \"#utility.yul\":6517:6521   */\n      dup2\n        /* \"#utility.yul\":6508:6514   */\n      dup5\n        /* \"#utility.yul\":6420:6522   */\n      tag_90\n      jump\t// in\n    tag_188:\n        /* \"#utility.yul\":6412:6522   */\n      swap1\n      pop\n        /* \"#utility.yul\":6168:6529   */\n      swap3\n      swap2\n      pop\n      pop\n      jump\t// out\n        /* \"#utility.yul\":6535:6651   */\n    tag_91:\n        /* \"#utility.yul\":6605:6626   */\n      tag_190\n        /* \"#utility.yul\":6620:6625   */\n      dup2\n        /* \"#utility.yul\":6605:6626   */\n      tag_79\n      jump\t// in\n    tag_190:\n        /* \"#utility.yul\":6598:6603   */\n      dup2\n        /* \"#utility.yul\":6595:6627   */\n      eq\n        /* \"#utility.yul\":6585:6645   */\n      tag_191\n      jumpi\n        /* \"#utility.yul\":6641:6642   */\n      0x00\n        /* \"#utility.yul\":6638:6639   */\n      0x00\n        /* \"#utility.yul\":6631:6643   */\n      revert\n        /* \"#utility.yul\":6585:6645   */\n    tag_191:\n        /* \"#utility.yul\":6535:6651   */\n      pop\n      jump\t// out\n        /* \"#utility.yul\":6657:6790   */\n    tag_92:\n        /* \"#utility.yul\":6700:6705   */\n      0x00\n        /* \"#utility.yul\":6738:6744   */\n      dup2\n        /* \"#utility.yul\":6725:6745   */\n      calldataload\n        /* \"#utility.yul\":6716:6745   */\n      swap1\n      pop\n        /* \"#utility.yul\":6754:6784   */\n      tag_193\n        /* \"#utility.yul\":6778:6783   */\n      dup2\n        /* \"#utility.yul\":6754:6784   */\n      tag_91\n      jump\t// in\n    tag_193:\n        /* \"#utility.yul\":6657:6790   */\n      swap3\n      swap2\n      pop\n      pop\n      jump\t// out\n        /* \"#utility.yul\":6796:6913   */\n    tag_93:\n        /* \"#utility.yul\":6905:6906   */\n      0x00\n        /* \"#utility.yul\":6902:6903   */\n      0x00\n        /* \"#utility.yul\":6895:6907   */\n      revert\n        /* \"#utility.yul\":6919:7036   */\n    tag_94:\n        /* \"#utility.yul\":7028:7029   */\n      0x00\n        /* \"#utility.yul\":7025:7026   */\n      0x00\n        /* \"#utility.yul\":7018:7030   */\n      revert\n        /* \"#utility.yul\":7042:7222   */\n    tag_95:\n        /* \"#utility.yul\":7090:7167   */\n      0x4e487b7100000000000000000000000000000000000000000000000000000000\n        /* \"#utility.yul\":7087:7088   */\n      0x00\n        /* \"#utility.yul\":7080:7168   */\n      mstore\n        /* \"#utility.yul\":7187:7191   */\n      0x41\n        /* \"#utility.yul\":7184:7185   */\n      0x04\n        /* \"#utility.yul\":7177:7192   */\n      mstore\n        /* \"#utility.yul\":7211:7215   */\n      0x24\n        /* \"#utility.yul\":7208:7209   */\n      0x00\n        /* \"#utility.yul\":7201:7216   */\n      revert\n        /* \"#utility.yul\":7228:7509   */\n    tag_96:\n        /* \"#utility.yul\":7311:7338   */\n      tag_198\n        /* \"#utility.yul\":7333:7337   */\n      dup3\n        /* \"#utility.yul\":7311:7338   */\n      tag_84\n      jump\t// in\n    tag_198:\n        /* \"#utility.yul\":7303:7309   */\n      dup2\n        /* \"#utility.yul\":7299:7339   */\n      add\n        /* \"#utility.yul\":7441:7447   */\n      dup2\n        /* \"#utility.yul\":7429:7439   */\n      dup2\n        /* \"#utility.yul\":7426:7448   */\n      lt\n        /* \"#utility.yul\":7405:7423   */\n      0xffffffffffffffff\n        /* \"#utility.yul\":7393:7403   */\n      dup3\n        /* \"#utility.yul\":7390:7424   */\n      gt\n        /* \"#utility.yul\":7387:7449   */\n      or\n        /* \"#utility.yul\":7384:7472   */\n      iszero\n      tag_199\n      jumpi\n        /* \"#utility.yul\":7452:7470   */\n      tag_200\n      tag_95\n      jump\t// in\n    tag_200:\n        /* \"#utility.yul\":7384:7472   */\n    tag_199:\n        /* \"#utility.yul\":7492:7502   */\n      dup1\n        /* \"#utility.yul\":7488:7490   */\n      0x40\n        /* \"#utility.yul\":7481:7503   */\n      mstore\n        /* \"#utility.yul\":7271:7509   */\n      pop\n        /* \"#utility.yul\":7228:7509   */\n      pop\n      pop\n      jump\t// out\n        /* \"#utility.yul\":7515:7644   */\n    tag_97:\n        /* \"#utility.yul\":7549:7555   */\n      0x00\n        /* \"#utility.yul\":7576:7596   */\n      tag_202\n      tag_72\n      jump\t// in\n    tag_202:\n        /* \"#utility.yul\":7566:7596   */\n      swap1\n      pop\n        /* \"#utility.yul\":7605:7638   */\n      tag_203\n        /* \"#utility.yul\":7633:7637   */\n      dup3\n        /* \"#utility.yul\":7625:7631   */\n      dup3\n        /* \"#utility.yul\":7605:7638   */\n      tag_96\n      jump\t// in\n    tag_203:\n        /* \"#utility.yul\":7515:7644   */\n      swap2\n      swap1\n      pop\n      jump\t// out\n        /* \"#utility.yul\":7650:7958   */\n    tag_98:\n        /* \"#utility.yul\":7712:7716   */\n      0x00\n        /* \"#utility.yul\":7802:7820   */\n      0xffffffffffffffff\n        /* \"#utility.yul\":7794:7800   */\n      dup3\n        /* \"#utility.yul\":7791:7821   */\n      gt\n        /* \"#utility.yul\":7788:7844   */\n      iszero\n      tag_205\n      jumpi\n        /* \"#utility.yul\":7824:7842   */\n      tag_206\n      tag_95\n      jump\t// in\n    tag_206:\n        /* \"#utility.yul\":7788:7844   */\n    tag_205:\n        /* \"#utility.yul\":7862:7891   */\n      tag_207\n        /* \"#utility.yul\":7884:7890   */\n      dup3\n        /* \"#utility.yul\":7862:7891   */\n      tag_84\n      jump\t// in\n    tag_207:\n        /* \"#utility.yul\":7854:7891   */\n      swap1\n      pop\n        /* \"#utility.yul\":7946:7950   */\n      0x20\n        /* \"#utility.yul\":7940:7944   */\n      dup2\n        /* \"#utility.yul\":7936:7951   */\n      add\n        /* \"#utility.yul\":7928:7951   */\n      swap1\n      pop\n        /* \"#utility.yul\":7650:7958   */\n      swap2\n      swap1\n      pop\n      jump\t// out\n        /* \"#utility.yul\":7964:8112   */\n    tag_99:\n        /* \"#utility.yul\":8062:8068   */\n      dup3\n        /* \"#utility.yul\":8057:8060   */\n      dup2\n        /* \"#utility.yul\":8052:8055   */\n      dup4\n        /* \"#utility.yul\":8039:8069   */\n      calldatacopy\n        /* \"#utility.yul\":8103:8104   */\n      0x00\n        /* \"#utility.yul\":8094:8100   */\n      dup4\n        /* \"#utility.yul\":8089:8092   */\n      dup4\n        /* \"#utility.yul\":8085:8101   */\n      add\n        /* \"#utility.yul\":8078:8105   */\n      mstore\n        /* \"#utility.yul\":7964:8112   */\n      pop\n      pop\n      pop\n      jump\t// out\n        /* \"#utility.yul\":8118:8543   */\n    tag_100:\n        /* \"#utility.yul\":8196:8201   */\n      0x00\n        /* \"#utility.yul\":8221:8287   */\n      tag_210\n        /* \"#utility.yul\":8237:8286   */\n      tag_211\n        /* \"#utility.yul\":8279:8285   */\n      dup5\n        /* \"#utility.yul\":8237:8286   */\n      tag_98\n      jump\t// in\n    tag_211:\n        /* \"#utility.yul\":8221:8287   */\n      tag_97\n      jump\t// in\n    tag_210:\n        /* \"#utility.yul\":8212:8287   */\n      swap1\n      pop\n        /* \"#utility.yul\":8310:8316   */\n      dup3\n        /* \"#utility.yul\":8303:8308   */\n      dup2\n        /* \"#utility.yul\":8296:8317   */\n      mstore\n        /* \"#utility.yul\":8348:8352   */\n      0x20\n        /* \"#utility.yul\":8341:8346   */\n      dup2\n        /* \"#utility.yul\":8337:8353   */\n      add\n        /* \"#utility.yul\":8386:8389   */\n      dup5\n        /* \"#utility.yul\":8377:8383   */\n      dup5\n        /* \"#utility.yul\":8372:8375   */\n      dup5\n        /* \"#utility.yul\":8368:8384   */\n      add\n        /* \"#utility.yul\":8365:8390   */\n      gt\n        /* \"#utility.yul\":8362:8474   */\n      iszero\n      tag_212\n      jumpi\n        /* \"#utility.yul\":8393:8472   */\n      tag_213\n      tag_94\n      jump\t// in\n    tag_213:\n        /* \"#utility.yul\":8362:8474   */\n    tag_212:\n        /* \"#utility.yul\":8483:8537   */\n      tag_214\n        /* \"#utility.yul\":8530:8536   */\n      dup5\n        /* \"#utility.yul\":8525:8528   */\n      dup3\n        /* \"#utility.yul\":8520:8523   */\n      dup6\n        /* \"#utility.yul\":8483:8537   */\n      tag_99\n      jump\t// in\n    tag_214:\n        /* \"#utility.yul\":8202:8543   */\n      pop\n        /* \"#utility.yul\":8118:8543   */\n      swap4\n      swap3\n      pop\n      pop\n      pop\n      jump\t// out\n        /* \"#utility.yul\":8563:8903   */\n    tag_101:\n        /* \"#utility.yul\":8619:8624   */\n      0x00\n        /* \"#utility.yul\":8668:8671   */\n      dup3\n        /* \"#utility.yul\":8661:8665   */\n      0x1f\n        /* \"#utility.yul\":8653:8659   */\n      dup4\n        /* \"#utility.yul\":8649:8666   */\n      add\n        /* \"#utility.yul\":8645:8672   */\n      slt\n        /* \"#utility.yul\":8635:8757   */\n      tag_216\n      jumpi\n        /* \"#utility.yul\":8676:8755   */\n      tag_217\n      tag_93\n      jump\t// in\n    tag_217:\n        /* \"#utility.yul\":8635:8757   */\n    tag_216:\n        /* \"#utility.yul\":8793:8799   */\n      dup2\n        /* \"#utility.yul\":8780:8800   */\n      calldataload\n        /* \"#utility.yul\":8818:8897   */\n      tag_218\n        /* \"#utility.yul\":8893:8896   */\n      dup5\n        /* \"#utility.yul\":8885:8891   */\n      dup3\n        /* \"#utility.yul\":8878:8882   */\n      0x20\n        /* \"#utility.yul\":8870:8876   */\n      dup7\n        /* \"#utility.yul\":8866:8883   */\n      add\n        /* \"#utility.yul\":8818:8897   */\n      tag_100\n      jump\t// in\n    tag_218:\n        /* \"#utility.yul\":8809:8897   */\n      swap2\n      pop\n        /* \"#utility.yul\":8625:8903   */\n      pop\n        /* \"#utility.yul\":8563:8903   */\n      swap3\n      swap2\n      pop\n      pop\n      jump\t// out\n        /* \"#utility.yul\":8909:9702   */\n    tag_24:\n        /* \"#utility.yul\":8993:8999   */\n      0x00\n        /* \"#utility.yul\":9001:9007   */\n      0x00\n        /* \"#utility.yul\":9009:9015   */\n      0x00\n        /* \"#utility.yul\":9058:9060   */\n      0x60\n        /* \"#utility.yul\":9046:9055   */\n      dup5\n        /* \"#utility.yul\":9037:9044   */\n      dup7\n        /* \"#utility.yul\":9033:9056   */\n      sub\n        /* \"#utility.yul\":9029:9061   */\n      slt\n        /* \"#utility.yul\":9026:9145   */\n      iszero\n      tag_220\n      jumpi\n        /* \"#utility.yul\":9064:9143   */\n      tag_221\n      tag_73\n      jump\t// in\n    tag_221:\n        /* \"#utility.yul\":9026:9145   */\n    tag_220:\n        /* \"#utility.yul\":9184:9185   */\n      0x00\n        /* \"#utility.yul\":9209:9262   */\n      tag_222\n        /* \"#utility.yul\":9254:9261   */\n      dup7\n        /* \"#utility.yul\":9245:9251   */\n      dup3\n        /* \"#utility.yul\":9234:9243   */\n      dup8\n        /* \"#utility.yul\":9230:9252   */\n      add\n        /* \"#utility.yul\":9209:9262   */\n      tag_77\n      jump\t// in\n    tag_222:\n        /* \"#utility.yul\":9199:9262   */\n      swap4\n      pop\n        /* \"#utility.yul\":9155:9272   */\n      pop\n        /* \"#utility.yul\":9311:9313   */\n      0x20\n        /* \"#utility.yul\":9337:9387   */\n      tag_223\n        /* \"#utility.yul\":9379:9386   */\n      dup7\n        /* \"#utility.yul\":9370:9376   */\n      dup3\n        /* \"#utility.yul\":9359:9368   */\n      dup8\n        /* \"#utility.yul\":9355:9377   */\n      add\n        /* \"#utility.yul\":9337:9387   */\n      tag_92\n      jump\t// in\n    tag_223:\n        /* \"#utility.yul\":9327:9387   */\n      swap3\n      pop\n        /* \"#utility.yul\":9282:9397   */\n      pop\n        /* \"#utility.yul\":9464:9466   */\n      0x40\n        /* \"#utility.yul\":9453:9462   */\n      dup5\n        /* \"#utility.yul\":9449:9467   */\n      add\n        /* \"#utility.yul\":9436:9468   */\n      calldataload\n        /* \"#utility.yul\":9495:9513   */\n      0xffffffffffffffff\n        /* \"#utility.yul\":9487:9493   */\n      dup2\n        /* \"#utility.yul\":9484:9514   */\n      gt\n        /* \"#utility.yul\":9481:9598   */\n      iszero\n      tag_224\n      jumpi\n        /* \"#utility.yul\":9517:9596   */\n      tag_225\n      tag_74\n      jump\t// in\n    tag_225:\n        /* \"#utility.yul\":9481:9598   */\n    tag_224:\n        /* \"#utility.yul\":9622:9685   */\n      tag_226\n        /* \"#utility.yul\":9677:9684   */\n      dup7\n        /* \"#utility.yul\":9668:9674   */\n      dup3\n        /* \"#utility.yul\":9657:9666   */\n      dup8\n        /* \"#utility.yul\":9653:9675   */\n      add\n        /* \"#utility.yul\":9622:9685   */\n      tag_101\n      jump\t// in\n    tag_226:\n        /* \"#utility.yul\":9612:9685   */\n      swap2\n      pop\n        /* \"#utility.yul\":9407:9695   */\n      pop\n        /* \"#utility.yul\":8909:9702   */\n      swap3\n      pop\n      swap3\n      pop\n      swap3\n      jump\t// out\n        /* \"#utility.yul\":9708:9883   */\n    tag_102:\n        /* \"#utility.yul\":9848:9875   */\n      0x53656e736f7220416c7265616479205265676973746572656400000000000000\n        /* \"#utility.yul\":9844:9845   */\n      0x00\n        /* \"#utility.yul\":9836:9842   */\n      dup3\n        /* \"#utility.yul\":9832:9846   */\n      add\n        /* \"#utility.yul\":9825:9876   */\n      mstore\n        /* \"#utility.yul\":9708:9883   */\n      pop\n      jump\t// out\n        /* \"#utility.yul\":9889:10255   */\n    tag_103:\n        /* \"#utility.yul\":10031:10034   */\n      0x00\n        /* \"#utility.yul\":10052:10119   */\n      tag_229\n        /* \"#utility.yul\":10116:10118   */\n      0x19\n        /* \"#utility.yul\":10111:10114   */\n      dup4\n        /* \"#utility.yul\":10052:10119   */\n      tag_82\n      jump\t// in\n    tag_229:\n        /* \"#utility.yul\":10045:10119   */\n      swap2\n      pop\n        /* \"#utility.yul\":10128:10221   */\n      tag_230\n        /* \"#utility.yul\":10217:10220   */\n      dup3\n        /* \"#utility.yul\":10128:10221   */\n      tag_102\n      jump\t// in\n    tag_230:\n        /* \"#utility.yul\":10246:10248   */\n      0x20\n        /* \"#utility.yul\":10241:10244   */\n      dup3\n        /* \"#utility.yul\":10237:10249   */\n      add\n        /* \"#utility.yul\":10230:10249   */\n      swap1\n      pop\n        /* \"#utility.yul\":9889:10255   */\n      swap2\n      swap1\n      pop\n      jump\t// out\n        /* \"#utility.yul\":10261:10680   */\n    tag_29:\n        /* \"#utility.yul\":10427:10431   */\n      0x00\n        /* \"#utility.yul\":10465:10467   */\n      0x20\n        /* \"#utility.yul\":10454:10463   */\n      dup3\n        /* \"#utility.yul\":10450:10468   */\n      add\n        /* \"#utility.yul\":10442:10468   */\n      swap1\n      pop\n        /* \"#utility.yul\":10514:10523   */\n      dup2\n        /* \"#utility.yul\":10508:10512   */\n      dup2\n        /* \"#utility.yul\":10504:10524   */\n      sub\n        /* \"#utility.yul\":10500:10501   */\n      0x00\n        /* \"#utility.yul\":10489:10498   */\n      dup4\n        /* \"#utility.yul\":10485:10502   */\n      add\n        /* \"#utility.yul\":10478:10525   */\n      mstore\n        /* \"#utility.yul\":10542:10673   */\n      tag_232\n        /* \"#utility.yul\":10668:10672   */\n      dup2\n        /* \"#utility.yul\":10542:10673   */\n      tag_103\n      jump\t// in\n    tag_232:\n        /* \"#utility.yul\":10534:10673   */\n      swap1\n      pop\n        /* \"#utility.yul\":10261:10680   */\n      swap2\n      swap1\n      pop\n      jump\t// out\n        /* \"#utility.yul\":10686:10863   */\n    tag_104:\n        /* \"#utility.yul\":10826:10855   */\n      0x67656f6c6f636174696f6e20782076616c756520696e76616c69640000000000\n        /* \"#utility.yul\":10822:10823   */\n      0x00\n        /* \"#utility.yul\":10814:10820   */\n      dup3\n        /* \"#utility.yul\":10810:10824   */\n      add\n        /* \"#utility.yul\":10803:10856   */\n      mstore\n        /* \"#utility.yul\":10686:10863   */\n      pop\n      jump\t// out\n        /* \"#utility.yul\":10869:11235   */\n    tag_105:\n        /* \"#utility.yul\":11011:11014   */\n      0x00\n        /* \"#utility.yul\":11032:11099   */\n      tag_235\n        /* \"#utility.yul\":11096:11098   */\n      0x1b\n        /* \"#utility.yul\":11091:11094   */\n      dup4\n        /* \"#utility.yul\":11032:11099   */\n      tag_82\n      jump\t// in\n    tag_235:\n        /* \"#utility.yul\":11025:11099   */\n      swap2\n      pop\n        /* \"#utility.yul\":11108:11201   */\n      tag_236\n        /* \"#utility.yul\":11197:11200   */\n      dup3\n        /* \"#utility.yul\":11108:11201   */\n      tag_104\n      jump\t// in\n    tag_236:\n        /* \"#utility.yul\":11226:11228   */\n      0x20\n        /* \"#utility.yul\":11221:11224   */\n      dup3\n        /* \"#utility.yul\":11217:11229   */\n      add\n        /* \"#utility.yul\":11210:11229   */\n      swap1\n      pop\n        /* \"#utility.yul\":10869:11235   */\n      swap2\n      swap1\n      pop\n      jump\t// out\n        /* \"#utility.yul\":11241:11660   */\n    tag_32:\n        /* \"#utility.yul\":11407:11411   */\n      0x00\n        /* \"#utility.yul\":11445:11447   */\n      0x20\n        /* \"#utility.yul\":11434:11443   */\n      dup3\n        /* \"#utility.yul\":11430:11448   */\n      add\n        /* \"#utility.yul\":11422:11448   */\n      swap1\n      pop\n        /* \"#utility.yul\":11494:11503   */\n      dup2\n        /* \"#utility.yul\":11488:11492   */\n      dup2\n        /* \"#utility.yul\":11484:11504   */\n      sub\n        /* \"#utility.yul\":11480:11481   */\n      0x00\n        /* \"#utility.yul\":11469:11478   */\n      dup4\n        /* \"#utility.yul\":11465:11482   */\n      add\n        /* \"#utility.yul\":11458:11505   */\n      mstore\n        /* \"#utility.yul\":11522:11653   */\n      tag_238\n        /* \"#utility.yul\":11648:11652   */\n      dup2\n        /* \"#utility.yul\":11522:11653   */\n      tag_105\n      jump\t// in\n    tag_238:\n        /* \"#utility.yul\":11514:11653   */\n      swap1\n      pop\n        /* \"#utility.yul\":11241:11660   */\n      swap2\n      swap1\n      pop\n      jump\t// out\n        /* \"#utility.yul\":11666:11843   */\n    tag_106:\n        /* \"#utility.yul\":11806:11835   */\n      0x67656f6c6f636174696f6e20792076616c756520696e76616c69640000000000\n        /* \"#utility.yul\":11802:11803   */\n      0x00\n        /* \"#utility.yul\":11794:11800   */\n      dup3\n        /* \"#utility.yul\":11790:11804   */\n      add\n        /* \"#utility.yul\":11783:11836   */\n      mstore\n        /* \"#utility.yul\":11666:11843   */\n      pop\n      jump\t// out\n        /* \"#utility.yul\":11849:12215   */\n    tag_107:\n        /* \"#utility.yul\":11991:11994   */\n      0x00\n        /* \"#utility.yul\":12012:12079   */\n      tag_241\n        /* \"#utility.yul\":12076:12078   */\n      0x1b\n        /* \"#utility.yul\":12071:12074   */\n      dup4\n        /* \"#utility.yul\":12012:12079   */\n      tag_82\n      jump\t// in\n    tag_241:\n        /* \"#utility.yul\":12005:12079   */\n      swap2\n      pop\n        /* \"#utility.yul\":12088:12181   */\n      tag_242\n        /* \"#utility.yul\":12177:12180   */\n      dup3\n        /* \"#utility.yul\":12088:12181   */\n      tag_106\n      jump\t// in\n    tag_242:\n        /* \"#utility.yul\":12206:12208   */\n      0x20\n        /* \"#utility.yul\":12201:12204   */\n      dup3\n        /* \"#utility.yul\":12197:12209   */\n      add\n        /* \"#utility.yul\":12190:12209   */\n      swap1\n      pop\n        /* \"#utility.yul\":11849:12215   */\n      swap2\n      swap1\n      pop\n      jump\t// out\n        /* \"#utility.yul\":12221:12640   */\n    tag_35:\n        /* \"#utility.yul\":12387:12391   */\n      0x00\n        /* \"#utility.yul\":12425:12427   */\n      0x20\n        /* \"#utility.yul\":12414:12423   */\n      dup3\n        /* \"#utility.yul\":12410:12428   */\n      add\n        /* \"#utility.yul\":12402:12428   */\n      swap1\n      pop\n        /* \"#utility.yul\":12474:12483   */\n      dup2\n        /* \"#utility.yul\":12468:12472   */\n      dup2\n        /* \"#utility.yul\":12464:12484   */\n      sub\n        /* \"#utility.yul\":12460:12461   */\n      0x00\n        /* \"#utility.yul\":12449:12458   */\n      dup4\n        /* \"#utility.yul\":12445:12462   */\n      add\n        /* \"#utility.yul\":12438:12485   */\n      mstore\n        /* \"#utility.yul\":12502:12633   */\n      tag_244\n        /* \"#utility.yul\":12628:12632   */\n      dup2\n        /* \"#utility.yul\":12502:12633   */\n      tag_107\n      jump\t// in\n    tag_244:\n        /* \"#utility.yul\":12494:12633   */\n      swap1\n      pop\n        /* \"#utility.yul\":12221:12640   */\n      swap2\n      swap1\n      pop\n      jump\t// out\n        /* \"#utility.yul\":12646:12826   */\n    tag_108:\n        /* \"#utility.yul\":12694:12771   */\n      0x4e487b7100000000000000000000000000000000000000000000000000000000\n        /* \"#utility.yul\":12691:12692   */\n      0x00\n        /* \"#utility.yul\":12684:12772   */\n      mstore\n        /* \"#utility.yul\":12791:12795   */\n      0x22\n        /* \"#utility.yul\":12788:12789   */\n      0x04\n        /* \"#utility.yul\":12781:12796   */\n      mstore\n        /* \"#utility.yul\":12815:12819   */\n      0x24\n        /* \"#utility.yul\":12812:12813   */\n      0x00\n        /* \"#utility.yul\":12805:12820   */\n      revert\n        /* \"#utility.yul\":12832:13152   */\n    tag_41:\n        /* \"#utility.yul\":12876:12882   */\n      0x00\n        /* \"#utility.yul\":12913:12914   */\n      0x02\n        /* \"#utility.yul\":12907:12911   */\n      dup3\n        /* \"#utility.yul\":12903:12915   */\n      div\n        /* \"#utility.yul\":12893:12915   */\n      swap1\n      pop\n        /* \"#utility.yul\":12960:12961   */\n      0x01\n        /* \"#utility.yul\":12954:12958   */\n      dup3\n        /* \"#utility.yul\":12950:12962   */\n      and\n        /* \"#utility.yul\":12981:12999   */\n      dup1\n        /* \"#utility.yul\":12971:13052   */\n      tag_247\n      jumpi\n        /* \"#utility.yul\":13037:13041   */\n      0x7f\n        /* \"#utility.yul\":13029:13035   */\n      dup3\n        /* \"#utility.yul\":13025:13042   */\n      and\n        /* \"#utility.yul\":13015:13042   */\n      swap2\n      pop\n        /* \"#utility.yul\":12971:13052   */\n    tag_247:\n        /* \"#utility.yul\":13099:13101   */\n      0x20\n        /* \"#utility.yul\":13091:13097   */\n      dup3\n        /* \"#utility.yul\":13088:13102   */\n      lt\n        /* \"#utility.yul\":13068:13086   */\n      dup2\n        /* \"#utility.yul\":13065:13103   */\n      sub\n        /* \"#utility.yul\":13062:13146   */\n      tag_248\n      jumpi\n        /* \"#utility.yul\":13118:13136   */\n      tag_249\n      tag_108\n      jump\t// in\n    tag_249:\n        /* \"#utility.yul\":13062:13146   */\n    tag_248:\n        /* \"#utility.yul\":12883:13152   */\n      pop\n        /* \"#utility.yul\":12832:13152   */\n      swap2\n      swap1\n      pop\n      jump\t// out\n        /* \"#utility.yul\":13158:13299   */\n    tag_109:\n        /* \"#utility.yul\":13207:13211   */\n      0x00\n        /* \"#utility.yul\":13230:13233   */\n      dup2\n        /* \"#utility.yul\":13222:13233   */\n      swap1\n      pop\n        /* \"#utility.yul\":13253:13256   */\n      dup2\n        /* \"#utility.yul\":13250:13251   */\n      0x00\n        /* \"#utility.yul\":13243:13257   */\n      mstore\n        /* \"#utility.yul\":13287:13291   */\n      0x20\n        /* \"#utility.yul\":13284:13285   */\n      0x00\n        /* \"#utility.yul\":13274:13292   */\n      keccak256\n        /* \"#utility.yul\":13266:13292   */\n      swap1\n      pop\n        /* \"#utility.yul\":13158:13299   */\n      swap2\n      swap1\n      pop\n      jump\t// out\n        /* \"#utility.yul\":13305:13398   */\n    tag_110:\n        /* \"#utility.yul\":13342:13348   */\n      0x00\n        /* \"#utility.yul\":13389:13391   */\n      0x20\n        /* \"#utility.yul\":13384:13386   */\n      0x1f\n        /* \"#utility.yul\":13377:13382   */\n      dup4\n        /* \"#utility.yul\":13373:13387   */\n      add\n        /* \"#utility.yul\":13369:13392   */\n      div\n        /* \"#utility.yul\":13359:13392   */\n      swap1\n      pop\n        /* \"#utility.yul\":13305:13398   */\n      swap2\n      swap1\n      pop\n      jump\t// out\n        /* \"#utility.yul\":13404:13511   */\n    tag_111:\n        /* \"#utility.yul\":13448:13456   */\n      0x00\n        /* \"#utility.yul\":13498:13503   */\n      dup3\n        /* \"#utility.yul\":13492:13496   */\n      dup3\n        /* \"#utility.yul\":13488:13504   */\n      shl\n        /* \"#utility.yul\":13467:13504   */\n      swap1\n      pop\n        /* \"#utility.yul\":13404:13511   */\n      swap3\n      swap2\n      pop\n      pop\n      jump\t// out\n        /* \"#utility.yul\":13517:13910   */\n    tag_112:\n        /* \"#utility.yul\":13586:13592   */\n      0x00\n        /* \"#utility.yul\":13636:13637   */\n      0x08\n        /* \"#utility.yul\":13624:13634   */\n      dup4\n        /* \"#utility.yul\":13620:13638   */\n      mul\n        /* \"#utility.yul\":13659:13756   */\n      tag_254\n        /* \"#utility.yul\":13689:13755   */\n      0xffffffffffffffffffffffffffffffffffffffffffffffffffffffffffffffff\n        /* \"#utility.yul\":13678:13687   */\n      dup3\n        /* \"#utility.yul\":13659:13756   */\n      tag_111\n      jump\t// in\n    tag_254:\n        /* \"#utility.yul\":13777:13816   */\n      tag_255\n        /* \"#utility.yul\":13807:13815   */\n      dup7\n        /* \"#utility.yul\":13796:13805   */\n      dup4\n        /* \"#utility.yul\":13777:13816   */\n      tag_111\n      jump\t// in\n    tag_255:\n        /* \"#utility.yul\":13765:13816   */\n      swap6\n      pop\n        /* \"#utility.yul\":13849:13853   */\n      dup1\n        /* \"#utility.yul\":13845:13854   */\n      not\n        /* \"#utility.yul\":13838:13843   */\n      dup5\n        /* \"#utility.yul\":13834:13855   */\n      and\n        /* \"#utility.yul\":13825:13855   */\n      swap4\n      pop\n        /* \"#utility.yul\":13898:13902   */\n      dup1\n        /* \"#utility.yul\":13888:13896   */\n      dup7\n        /* \"#utility.yul\":13884:13903   */\n      and\n        /* \"#utility.yul\":13877:13882   */\n      dup5\n        /* \"#utility.yul\":13874:13904   */\n      or\n        /* \"#utility.yul\":13864:13904   */\n      swap3\n      pop\n        /* \"#utility.yul\":13593:13910   */\n      pop\n      pop\n        /* \"#utility.yul\":13517:13910   */\n      swap4\n      swap3\n      pop\n      pop\n      pop\n      jump\t// out\n        /* \"#utility.yul\":13916:13976   */\n    tag_113:\n        /* \"#utility.yul\":13944:13947   */\n      0x00\n        /* \"#utility.yul\":13965:13970   */\n      dup2\n        /* \"#utility.yul\":13958:13970   */\n      swap1\n      pop\n        /* \"#utility.yul\":13916:13976   */\n      swap2\n      swap1\n      pop\n      jump\t// out\n        /* \"#utility.yul\":13982:14124   */\n    tag_114:\n        /* \"#utility.yul\":14032:14041   */\n      0x00\n        /* \"#utility.yul\":14065:14118   */\n      tag_258\n        /* \"#utility.yul\":14083:14117   */\n      tag_259\n        /* \"#utility.yul\":14092:14116   */\n      tag_260\n        /* \"#utility.yul\":14110:14115   */\n      dup5\n        /* \"#utility.yul\":14092:14116   */\n      tag_75\n      jump\t// in\n    tag_260:\n        /* \"#utility.yul\":14083:14117   */\n      tag_113\n      jump\t// in\n    tag_259:\n        /* \"#utility.yul\":14065:14118   */\n      tag_75\n      jump\t// in\n    tag_258:\n        /* \"#utility.yul\":14052:14118   */\n      swap1\n      pop\n        /* \"#utility.yul\":13982:14124   */\n      swap2\n      swap1\n      pop\n      jump\t// out\n        /* \"#utility.yul\":14130:14205   */\n    tag_115:\n        /* \"#utility.yul\":14173:14176   */\n      0x00\n        /* \"#utility.yul\":14194:14199   */\n      dup2\n        /* \"#utility.yul\":14187:14199   */\n      swap1\n      pop\n        /* \"#utility.yul\":14130:14205   */\n      swap2\n      swap1\n      pop\n      jump\t// out\n        /* \"#utility.yul\":14211:14480   */\n    tag_116:\n        /* \"#utility.yul\":14321:14360   */\n      tag_263\n        /* \"#utility.yul\":14352:14359   */\n      dup4\n        /* \"#utility.yul\":14321:14360   */\n      tag_114\n      jump\t// in\n    tag_263:\n        /* \"#utility.yul\":14382:14473   */\n      tag_264\n        /* \"#utility.yul\":14431:14472   */\n      tag_265\n        /* \"#utility.yul\":14455:14471   */\n      dup3\n        /* \"#utility.yul\":14431:14472   */\n      tag_115\n      jump\t// in\n    tag_265:\n        /* \"#utility.yul\":14423:14429   */\n      dup5\n        /* \"#utility.yul\":14416:14420   */\n      dup5\n        /* \"#utility.yul\":14410:14421   */\n      sload\n        /* \"#utility.yul\":14382:14473   */\n      tag_112\n      jump\t// in\n    tag_264:\n        /* \"#utility.yul\":14376:14380   */\n      dup3\n        /* \"#utility.yul\":14369:14474   */\n      sstore\n        /* \"#utility.yul\":14287:14480   */\n      pop\n        /* \"#utility.yul\":14211:14480   */\n      pop\n      pop\n      pop\n      jump\t// out\n        /* \"#utility.yul\":14486:14559   */\n    tag_117:\n        /* \"#utility.yul\":14531:14534   */\n      0x00\n        /* \"#utility.yul\":14552:14553   */\n      0x00\n        /* \"#utility.yul\":14545:14553   */\n      swap1\n      pop\n        /* \"#utility.yul\":14486:14559   */\n      swap1\n      jump\t// out\n        /* \"#utility.yul\":14565:14754   */\n    tag_118:\n        /* \"#utility.yul\":14642:14674   */\n      tag_268\n      tag_117\n      jump\t// in\n    tag_268:\n        /* \"#utility.yul\":14683:14748   */\n      tag_269\n        /* \"#utility.yul\":14741:14747   */\n      dup2\n        /* \"#utility.yul\":14733:14739   */\n      dup5\n        /* \"#utility.yul\":14727:14731   */\n      dup5\n        /* \"#utility.yul\":14683:14748   */\n      tag_116\n      jump\t// in\n    tag_269:\n        /* \"#utility.yul\":14618:14754   */\n      pop\n        /* \"#utility.yul\":14565:14754   */\n      pop\n      pop\n      jump\t// out\n        /* \"#utility.yul\":14760:14946   */\n    tag_119:\n        /* \"#utility.yul\":14820:14940   */\n    tag_271:\n        /* \"#utility.yul\":14837:14840   */\n      dup2\n        /* \"#utility.yul\":14830:14835   */\n      dup2\n        /* \"#utility.yul\":14827:14841   */\n      lt\n        /* \"#utility.yul\":14820:14940   */\n      iszero\n      tag_273\n      jumpi\n        /* \"#utility.yul\":14891:14930   */\n      tag_274\n        /* \"#utility.yul\":14928:14929   */\n      0x00\n        /* \"#utility.yul\":14921:14926   */\n      dup3\n        /* \"#utility.yul\":14891:14930   */\n      tag_118\n      jump\t// in\n    tag_274:\n        /* \"#utility.yul\":14864:14865   */\n      0x01\n        /* \"#utility.yul\":14857:14862   */\n      dup2\n        /* \"#utility.yul\":14853:14866   */\n      add\n        /* \"#utility.yul\":14844:14866   */\n      swap1\n      pop\n        /* \"#utility.yul\":14820:14940   */\n      jump(tag_271)\n    tag_273:\n        /* \"#utility.yul\":14760:14946   */\n      pop\n      pop\n      jump\t// out\n        /* \"#utility.yul\":14952:15495   */\n    tag_120:\n        /* \"#utility.yul\":15053:15055   */\n      0x1f\n        /* \"#utility.yul\":15048:15051   */\n      dup3\n        /* \"#utility.yul\":15045:15056   */\n      gt\n        /* \"#utility.yul\":15042:15488   */\n      iszero\n      tag_276\n      jumpi\n        /* \"#utility.yul\":15087:15125   */\n      tag_277\n        /* \"#utility.yul\":15119:15124   */\n      dup2\n        /* \"#utility.yul\":15087:15125   */\n      tag_109\n      jump\t// in\n    tag_277:\n        /* \"#utility.yul\":15171:15200   */\n      tag_278\n        /* \"#utility.yul\":15189:15199   */\n      dup5\n        /* \"#utility.yul\":15171:15200   */\n      tag_110\n      jump\t// in\n    tag_278:\n        /* \"#utility.yul\":15161:15169   */\n      dup2\n        /* \"#utility.yul\":15157:15201   */\n      add\n        /* \"#utility.yul\":15354:15356   */\n      0x20\n        /* \"#utility.yul\":15342:15352   */\n      dup6\n        /* \"#utility.yul\":15339:15357   */\n      lt\n        /* \"#utility.yul\":15336:15385   */\n      iszero\n      tag_279\n      jumpi\n        /* \"#utility.yul\":15375:15383   */\n      dup2\n        /* \"#utility.yul\":15360:15383   */\n      swap1\n      pop\n        /* \"#utility.yul\":15336:15385   */\n    tag_279:\n        /* \"#utility.yul\":15398:15478   */\n      tag_280\n        /* \"#utility.yul\":15454:15476   */\n      tag_281\n        /* \"#utility.yul\":15472:15475   */\n      dup6\n        /* \"#utility.yul\":15454:15476   */\n      tag_110\n      jump\t// in\n    tag_281:\n        /* \"#utility.yul\":15444:15452   */\n      dup4\n        /* \"#utility.yul\":15440:15477   */\n      add\n        /* \"#utility.yul\":15427:15438   */\n      dup3\n        /* \"#utility.yul\":15398:15478   */\n      tag_119\n      jump\t// in\n    tag_280:\n        /* \"#utility.yul\":15057:15488   */\n      pop\n      pop\n        /* \"#utility.yul\":15042:15488   */\n    tag_276:\n        /* \"#utility.yul\":14952:15495   */\n      pop\n      pop\n      pop\n      jump\t// out\n        /* \"#utility.yul\":15501:15618   */\n    tag_121:\n        /* \"#utility.yul\":15555:15563   */\n      0x00\n        /* \"#utility.yul\":15605:15610   */\n      dup3\n        /* \"#utility.yul\":15599:15603   */\n      dup3\n        /* \"#utility.yul\":15595:15611   */\n      shr\n        /* \"#utility.yul\":15574:15611   */\n      swap1\n      pop\n        /* \"#utility.yul\":15501:15618   */\n      swap3\n      swap2\n      pop\n      pop\n      jump\t// out\n        /* \"#utility.yul\":15624:15793   */\n    tag_122:\n        /* \"#utility.yul\":15668:15674   */\n      0x00\n        /* \"#utility.yul\":15701:15752   */\n      tag_284\n        /* \"#utility.yul\":15749:15750   */\n      0x00\n        /* \"#utility.yul\":15745:15751   */\n      not\n        /* \"#utility.yul\":15737:15742   */\n      dup5\n        /* \"#utility.yul\":15734:15735   */\n      0x08\n        /* \"#utility.yul\":15730:15743   */\n      mul\n        /* \"#utility.yul\":15701:15752   */\n      tag_121\n      jump\t// in\n    tag_284:\n        /* \"#utility.yul\":15697:15753   */\n      not\n        /* \"#utility.yul\":15782:15786   */\n      dup1\n        /* \"#utility.yul\":15776:15780   */\n      dup4\n        /* \"#utility.yul\":15772:15787   */\n      and\n        /* \"#utility.yul\":15762:15787   */\n      swap2\n      pop\n        /* \"#utility.yul\":15675:15793   */\n      pop\n        /* \"#utility.yul\":15624:15793   */\n      swap3\n      swap2\n      pop\n      pop\n      jump\t// out\n        /* \"#utility.yul\":15798:16093   */\n    tag_123:\n        /* \"#utility.yul\":15874:15878   */\n      0x00\n        /* \"#utility.yul\":16020:16049   */\n      tag_286\n        /* \"#utility.yul\":16045:16048   */\n      dup4\n        /* \"#utility.yul\":16039:16043   */\n      dup4\n        /* \"#utility.yul\":16020:16049   */\n      tag_122\n      jump\t// in\n    tag_286:\n        /* \"#utility.yul\":16012:16049   */\n      swap2\n      pop\n        /* \"#utility.yul\":16082:16085   */\n      dup3\n        /* \"#utility.yul\":16079:16080   */\n      0x02\n        /* \"#utility.yul\":16075:16086   */\n      mul\n        /* \"#utility.yul\":16069:16073   */\n      dup3\n        /* \"#utility.yul\":16066:16087   */\n      or\n        /* \"#utility.yul\":16058:16087   */\n      swap1\n      pop\n        /* \"#utility.yul\":15798:16093   */\n      swap3\n      swap2\n      pop\n      pop\n      jump\t// out\n        /* \"#utility.yul\":16098:17493   */\n    tag_37:\n        /* \"#utility.yul\":16215:16252   */\n      tag_288\n        /* \"#utility.yul\":16248:16251   */\n      dup3\n        /* \"#utility.yul\":16215:16252   */\n      tag_81\n      jump\t// in\n    tag_288:\n        /* \"#utility.yul\":16317:16335   */\n      0xffffffffffffffff\n        /* \"#utility.yul\":16309:16315   */\n      dup2\n        /* \"#utility.yul\":16306:16336   */\n      gt\n        /* \"#utility.yul\":16303:16359   */\n      iszero\n      tag_289\n      jumpi\n        /* \"#utility.yul\":16339:16357   */\n      tag_290\n      tag_95\n      jump\t// in\n    tag_290:\n        /* \"#utility.yul\":16303:16359   */\n    tag_289:\n        /* \"#utility.yul\":16383:16421   */\n      tag_291\n        /* \"#utility.yul\":16415:16419   */\n      dup3\n        /* \"#utility.yul\":16409:16420   */\n      sload\n        /* \"#utility.yul\":16383:16421   */\n      tag_41\n      jump\t// in\n    tag_291:\n        /* \"#utility.yul\":16468:16535   */\n      tag_292\n        /* \"#utility.yul\":16528:16534   */\n      dup3\n        /* \"#utility.yul\":16520:16526   */\n      dup3\n        /* \"#utility.yul\":16514:16518   */\n      dup6\n        /* \"#utility.yul\":16468:16535   */\n      tag_120\n      jump\t// in\n    tag_292:\n        /* \"#utility.yul\":16562:16563   */\n      0x00\n        /* \"#utility.yul\":16586:16590   */\n      0x20\n        /* \"#utility.yul\":16573:16590   */\n      swap1\n      pop\n        /* \"#utility.yul\":16618:16620   */\n      0x1f\n        /* \"#utility.yul\":16610:16616   */\n      dup4\n        /* \"#utility.yul\":16607:16621   */\n      gt\n        /* \"#utility.yul\":16635:16636   */\n      0x01\n        /* \"#utility.yul\":16630:17248   */\n      dup2\n      eq\n      tag_294\n      jumpi\n        /* \"#utility.yul\":17292:17293   */\n      0x00\n        /* \"#utility.yul\":17309:17315   */\n      dup5\n        /* \"#utility.yul\":17306:17383   */\n      iszero\n      tag_295\n      jumpi\n        /* \"#utility.yul\":17358:17367   */\n      dup3\n        /* \"#utility.yul\":17353:17356   */\n      dup8\n        /* \"#utility.yul\":17349:17368   */\n      add\n        /* \"#utility.yul\":17343:17369   */\n      mload\n        /* \"#utility.yul\":17334:17369   */\n      swap1\n      pop\n        /* \"#utility.yul\":17306:17383   */\n    tag_295:\n        /* \"#utility.yul\":17409:17476   */\n      tag_296\n        /* \"#utility.yul\":17469:17475   */\n      dup6\n        /* \"#utility.yul\":17462:17467   */\n      dup3\n        /* \"#utility.yul\":17409:17476   */\n      tag_123\n      jump\t// in\n    tag_296:\n        /* \"#utility.yul\":17403:17407   */\n      dup7\n        /* \"#utility.yul\":17396:17477   */\n      sstore\n        /* \"#utility.yul\":17265:17487   */\n      pop\n        /* \"#utility.yul\":16600:17487   */\n      jump(tag_293)\n        /* \"#utility.yul\":16630:17248   */\n    tag_294:\n        /* \"#utility.yul\":16682:16686   */\n      0x1f\n        /* \"#utility.yul\":16678:16687   */\n      not\n        /* \"#utility.yul\":16670:16676   */\n      dup5\n        /* \"#utility.yul\":16666:16688   */\n      and\n        /* \"#utility.yul\":16716:16753   */\n      tag_297\n        /* \"#utility.yul\":16748:16752   */\n      dup7\n        /* \"#utility.yul\":16716:16753   */\n      tag_109\n      jump\t// in\n    tag_297:\n        /* \"#utility.yul\":16775:16776   */\n      0x00\n        /* \"#utility.yul\":16789:16997   */\n    tag_298:\n        /* \"#utility.yul\":16803:16810   */\n      dup3\n        /* \"#utility.yul\":16800:16801   */\n      dup2\n        /* \"#utility.yul\":16797:16811   */\n      lt\n        /* \"#utility.yul\":16789:16997   */\n      iszero\n      tag_300\n      jumpi\n        /* \"#utility.yul\":16882:16891   */\n      dup5\n        /* \"#utility.yul\":16877:16880   */\n      dup10\n        /* \"#utility.yul\":16873:16892   */\n      add\n        /* \"#utility.yul\":16867:16893   */\n      mload\n        /* \"#utility.yul\":16859:16865   */\n      dup3\n        /* \"#utility.yul\":16852:16894   */\n      sstore\n        /* \"#utility.yul\":16933:16934   */\n      0x01\n        /* \"#utility.yul\":16925:16931   */\n      dup3\n        /* \"#utility.yul\":16921:16935   */\n      add\n        /* \"#utility.yul\":16911:16935   */\n      swap2\n      pop\n        /* \"#utility.yul\":16980:16982   */\n      0x20\n        /* \"#utility.yul\":16969:16978   */\n      dup6\n        /* \"#utility.yul\":16965:16983   */\n      add\n        /* \"#utility.yul\":16952:16983   */\n      swap5\n      pop\n        /* \"#utility.yul\":16826:16830   */\n      0x20\n        /* \"#utility.yul\":16823:16824   */\n      dup2\n        /* \"#utility.yul\":16819:16831   */\n      add\n        /* \"#utility.yul\":16814:16831   */\n      swap1\n      pop\n        /* \"#utility.yul\":16789:16997   */\n      jump(tag_298)\n    tag_300:\n        /* \"#utility.yul\":17025:17031   */\n      dup7\n        /* \"#utility.yul\":17016:17023   */\n      dup4\n        /* \"#utility.yul\":17013:17032   */\n      lt\n        /* \"#utility.yul\":17010:17189   */\n      iszero\n      tag_301\n      jumpi\n        /* \"#utility.yul\":17083:17092   */\n      dup5\n        /* \"#utility.yul\":17078:17081   */\n      dup10\n        /* \"#utility.yul\":17074:17093   */\n      add\n        /* \"#utility.yul\":17068:17094   */\n      mload\n        /* \"#utility.yul\":17126:17174   */\n      tag_302\n        /* \"#utility.yul\":17168:17172   */\n      0x1f\n        /* \"#utility.yul\":17160:17166   */\n      dup10\n        /* \"#utility.yul\":17156:17173   */\n      and\n        /* \"#utility.yul\":17145:17154   */\n      dup3\n        /* \"#utility.yul\":17126:17174   */\n      tag_122\n      jump\t// in\n    tag_302:\n        /* \"#utility.yul\":17118:17124   */\n      dup4\n        /* \"#utility.yul\":17111:17175   */\n      sstore\n        /* \"#utility.yul\":17033:17189   */\n      pop\n        /* \"#utility.yul\":17010:17189   */\n    tag_301:\n        /* \"#utility.yul\":17235:17236   */\n      0x01\n        /* \"#utility.yul\":17231:17232   */\n      0x02\n        /* \"#utility.yul\":17223:17229   */\n      dup9\n        /* \"#utility.yul\":17219:17233   */\n      mul\n        /* \"#utility.yul\":17215:17237   */\n      add\n        /* \"#utility.yul\":17209:17213   */\n      dup9\n        /* \"#utility.yul\":17202:17238   */\n      sstore\n        /* \"#utility.yul\":16637:17248   */\n      pop\n      pop\n      pop\n        /* \"#utility.yul\":16600:17487   */\n    tag_293:\n      pop\n        /* \"#utility.yul\":16190:17493   */\n      pop\n      pop\n      pop\n        /* \"#utility.yul\":16098:17493   */\n      pop\n      pop\n      jump\t// out\n        /* \"#utility.yul\":17499:17941   */\n    tag_39:\n        /* \"#utility.yul\":17648:17652   */\n      0x00\n        /* \"#utility.yul\":17686:17688   */\n      0x60\n        /* \"#utility.yul\":17675:17684   */\n      dup3\n        /* \"#utility.yul\":17671:17689   */\n      add\n        /* \"#utility.yul\":17663:17689   */\n      swap1\n      pop\n        /* \"#utility.yul\":17699:17770   */\n      tag_304\n        /* \"#utility.yul\":17767:17768   */\n      0x00\n        /* \"#utility.yul\":17756:17765   */\n      dup4\n        /* \"#utility.yul\":17752:17769   */\n      add\n        /* \"#utility.yul\":17743:17749   */\n      dup7\n        /* \"#utility.yul\":17699:17770   */\n      tag_78\n      jump\t// in\n    tag_304:\n        /* \"#utility.yul\":17780:17852   */\n      tag_305\n        /* \"#utility.yul\":17848:17850   */\n      0x20\n        /* \"#utility.yul\":17837:17846   */\n      dup4\n        /* \"#utility.yul\":17833:17851   */\n      add\n        /* \"#utility.yul\":17824:17830   */\n      dup6\n        /* \"#utility.yul\":17780:17852   */\n      tag_78\n      jump\t// in\n    tag_305:\n        /* \"#utility.yul\":17862:17934   */\n      tag_306\n        /* \"#utility.yul\":17930:17932   */\n      0x40\n        /* \"#utility.yul\":17919:17928   */\n      dup4\n        /* \"#utility.yul\":17915:17933   */\n      add\n        /* \"#utility.yul\":17906:17912   */\n      dup5\n        /* \"#utility.yul\":17862:17934   */\n      tag_78\n      jump\t// in\n    tag_306:\n        /* \"#utility.yul\":17499:17941   */\n      swap5\n      swap4\n      pop\n      pop\n      pop\n      pop\n      jump\t// out\n        /* \"#utility.yul\":17947:18119   */\n    tag_124:\n        /* \"#utility.yul\":18087:18111   */\n      0x53656e736f72204e6f7420526567697374657265642100000000000000000000\n        /* \"#utility.yul\":18083:18084   */\n      0x00\n        /* \"#utility.yul\":18075:18081   */\n      dup3\n        /* \"#utility.yul\":18071:18085   */\n      add\n        /* \"#utility.yul\":18064:18112   */\n      mstore\n        /* \"#utility.yul\":17947:18119   */\n      pop\n      jump\t// out\n        /* \"#utility.yul\":18125:18491   */\n    tag_125:\n        /* \"#utility.yul\":18267:18270   */\n      0x00\n        /* \"#utility.yul\":18288:18355   */\n      tag_309\n        /* \"#utility.yul\":18352:18354   */\n      0x16\n        /* \"#utility.yul\":18347:18350   */\n      dup4\n        /* \"#utility.yul\":18288:18355   */\n      tag_82\n      jump\t// in\n    tag_309:\n        /* \"#utility.yul\":18281:18355   */\n      swap2\n      pop\n        /* \"#utility.yul\":18364:18457   */\n      tag_310\n        /* \"#utility.yul\":18453:18456   */\n      dup3\n        /* \"#utility.yul\":18364:18457   */\n      tag_124\n      jump\t// in\n    tag_310:\n        /* \"#utility.yul\":18482:18484   */\n      0x20\n        /* \"#utility.yul\":18477:18480   */\n      dup3\n        /* \"#utility.yul\":18473:18485   */\n      add\n        /* \"#utility.yul\":18466:18485   */\n      swap1\n      pop\n        /* \"#utility.yul\":18125:18491   */\n      swap2\n      swap1\n      pop\n      jump\t// out\n        /* \"#utility.yul\":18497:18916   */\n    tag_57:\n        /* \"#utility.yul\":18663:18667   */\n      0x00\n        /* \"#utility.yul\":18701:18703   */\n      0x20\n        /* \"#utility.yul\":18690:18699   */\n      dup3\n        /* \"#utility.yul\":18686:18704   */\n      add\n        /* \"#utility.yul\":18678:18704   */\n      swap1\n      pop\n        /* \"#utility.yul\":18750:18759   */\n      dup2\n        /* \"#utility.yul\":18744:18748   */\n      dup2\n        /* \"#utility.yul\":18740:18760   */\n      sub\n        /* \"#utility.yul\":18736:18737   */\n      0x00\n        /* \"#utility.yul\":18725:18734   */\n      dup4\n        /* \"#utility.yul\":18721:18738   */\n      add\n        /* \"#utility.yul\":18714:18761   */\n      mstore\n        /* \"#utility.yul\":18778:18909   */\n      tag_312\n        /* \"#utility.yul\":18904:18908   */\n      dup2\n        /* \"#utility.yul\":18778:18909   */\n      tag_125\n      jump\t// in\n    tag_312:\n        /* \"#utility.yul\":18770:18909   */\n      swap1\n      pop\n        /* \"#utility.yul\":18497:18916   */\n      swap2\n      swap1\n      pop\n      jump\t// out\n        /* \"#utility.yul\":18922:19102   */\n    tag_126:\n        /* \"#utility.yul\":18970:19047   */\n      0x4e487b7100000000000000000000000000000000000000000000000000000000\n        /* \"#utility.yul\":18967:18968   */\n      0x00\n        /* \"#utility.yul\":18960:19048   */\n      mstore\n        /* \"#utility.yul\":19067:19071   */\n      0x11\n        /* \"#utility.yul\":19064:19065   */\n      0x04\n        /* \"#utility.yul\":19057:19072   */\n      mstore\n        /* \"#utility.yul\":19091:19095   */\n      0x24\n        /* \"#utility.yul\":19088:19089   */\n      0x00\n        /* \"#utility.yul\":19081:19096   */\n      revert\n        /* \"#utility.yul\":19108:19302   */\n    tag_69:\n        /* \"#utility.yul\":19148:19152   */\n      0x00\n        /* \"#utility.yul\":19168:19188   */\n      tag_315\n        /* \"#utility.yul\":19186:19187   */\n      dup3\n        /* \"#utility.yul\":19168:19188   */\n      tag_75\n      jump\t// in\n    tag_315:\n        /* \"#utility.yul\":19163:19188   */\n      swap2\n      pop\n        /* \"#utility.yul\":19202:19222   */\n      tag_316\n        /* \"#utility.yul\":19220:19221   */\n      dup4\n        /* \"#utility.yul\":19202:19222   */\n      tag_75\n      jump\t// in\n    tag_316:\n        /* \"#utility.yul\":19197:19222   */\n      swap3\n      pop\n        /* \"#utility.yul\":19246:19247   */\n      dup3\n        /* \"#utility.yul\":19243:19244   */\n      dup3\n        /* \"#utility.yul\":19239:19248   */\n      sub\n        /* \"#utility.yul\":19231:19248   */\n      swap1\n      pop\n        /* \"#utility.yul\":19270:19271   */\n      dup2\n        /* \"#utility.yul\":19264:19268   */\n      dup2\n        /* \"#utility.yul\":19261:19272   */\n      gt\n        /* \"#utility.yul\":19258:19295   */\n      iszero\n      tag_317\n      jumpi\n        /* \"#utility.yul\":19275:19293   */\n      tag_318\n      tag_126\n      jump\t// in\n    tag_318:\n        /* \"#utility.yul\":19258:19295   */\n    tag_317:\n        /* \"#utility.yul\":19108:19302   */\n      swap3\n      swap2\n      pop\n      pop\n      jump\t// out\n        /* \"#utility.yul\":19308:19940   */\n    tag_71:\n        /* \"#utility.yul\":19499:19503   */\n      0x00\n        /* \"#utility.yul\":19537:19540   */\n      0x80\n        /* \"#utility.yul\":19526:19535   */\n      dup3\n        /* \"#utility.yul\":19522:19541   */\n      add\n        /* \"#utility.yul\":19514:19541   */\n      swap1\n      pop\n        /* \"#utility.yul\":19551:19622   */\n      tag_320\n        /* \"#utility.yul\":19619:19620   */\n      0x00\n        /* \"#utility.yul\":19608:19617   */\n      dup4\n        /* \"#utility.yul\":19604:19621   */\n      add\n        /* \"#utility.yul\":19595:19601   */\n      dup8\n        /* \"#utility.yul\":19551:19622   */\n      tag_78\n      jump\t// in\n    tag_320:\n        /* \"#utility.yul\":19632:19698   */\n      tag_321\n        /* \"#utility.yul\":19694:19696   */\n      0x20\n        /* \"#utility.yul\":19683:19692   */\n      dup4\n        /* \"#utility.yul\":19679:19697   */\n      add\n        /* \"#utility.yul\":19670:19676   */\n      dup7\n        /* \"#utility.yul\":19632:19698   */\n      tag_80\n      jump\t// in\n    tag_321:\n        /* \"#utility.yul\":19708:19780   */\n      tag_322\n        /* \"#utility.yul\":19776:19778   */\n      0x40\n        /* \"#utility.yul\":19765:19774   */\n      dup4\n        /* \"#utility.yul\":19761:19779   */\n      add\n        /* \"#utility.yul\":19752:19758   */\n      dup6\n        /* \"#utility.yul\":19708:19780   */\n      tag_78\n      jump\t// in\n    tag_322:\n        /* \"#utility.yul\":19827:19836   */\n      dup2\n        /* \"#utility.yul\":19821:19825   */\n      dup2\n        /* \"#utility.yul\":19817:19837   */\n      sub\n        /* \"#utility.yul\":19812:19814   */\n      0x60\n        /* \"#utility.yul\":19801:19810   */\n      dup4\n        /* \"#utility.yul\":19797:19815   */\n      add\n        /* \"#utility.yul\":19790:19838   */\n      mstore\n        /* \"#utility.yul\":19855:19933   */\n      tag_323\n        /* \"#utility.yul\":19928:19932   */\n      dup2\n        /* \"#utility.yul\":19919:19925   */\n      dup5\n        /* \"#utility.yul\":19855:19933   */\n      tag_85\n      jump\t// in\n    tag_323:\n        /* \"#utility.yul\":19847:19933   */\n      swap1\n      pop\n        /* \"#utility.yul\":19308:19940   */\n      swap6\n      swap5\n      pop\n      pop\n      pop\n      pop\n      pop\n      jump\t// out\n\n    auxdata: 0xa2646970667358221220f7653d7b0d69a7a2a74be0b3fa256ba68101393f485d691fdb2d7a199fd1bec664736f6c634300081e0033\n}\n",
				"bytecode": {
					"linkReferences": {},
					"object": "6080604052348015600e575f5ffd5b506111748061001c5f395ff3fe608060405234801561000f575f5ffd5b506004361061004a575f3560e01c8063013b47271461004e578063412f2e821461006a578063ed044aa3146100a0578063f8e21dad146100d0575b5f5ffd5b6100686004803603810190610063919061078a565b6100ec565b005b610084600480360381019061007f91906107da565b6102e3565b604051610097979695949392919061089e565b60405180910390f35b6100ba60048036038101906100b591906107da565b6103be565b6040516100c79190610a11565b60405180910390f35b6100ea60048036038101906100e59190610b87565b6104d3565b005b5f5f8481526020019081526020015f206006015f9054906101000a900460ff161561014c576040517f08c379a000000000000000000000000000000000000000000000000000000000815260040161014390610c3d565b60405180910390fd5b5f820361018e576040517f08c379a000000000000000000000000000000000000000000000000000000000815260040161018590610ca5565b60405180910390fd5b5f81036101d0576040517f08c379a00000000000000000000000000000000000000000000000000000000081526004016101c790610d0d565b60405180910390fd5b6040518060e001604052808481526020018381526020018281526020015f1515815260200142815260200160405180602001604052805f8152508152602001600115158152505f5f8581526020019081526020015f205f820151815f015560208201518160010155604082015181600201556060820151816003015f6101000a81548160ff0219169083151502179055506080820151816004015560a08201518160050190816102809190610f28565b5060c0820151816006015f6101000a81548160ff0219169083151502179055509050507fce1de8c95a916bbe4adfe41d0c6b62c60b4cc659d1d42c2517fb1e444574f2c38383836040516102d693929190610ff7565b60405180910390a1505050565b5f602052805f5260405f205f91509050805f015490806001015490806002015490806003015f9054906101000a900460ff169080600401549080600501805461032b90610d58565b80601f016020809104026020016040519081016040528092919081815260200182805461035790610d58565b80156103a25780601f10610379576101008083540402835291602001916103a2565b820191905f5260205f20905b81548152906001019060200180831161038557829003601f168201915b505050505090806006015f9054906101000a900460ff16905087565b6103c661070b565b5f5f8381526020019081526020015f206040518060e00160405290815f82015481526020016001820154815260200160028201548152602001600382015f9054906101000a900460ff161515151581526020016004820154815260200160058201805461043290610d58565b80601f016020809104026020016040519081016040528092919081815260200182805461045e90610d58565b80156104a95780601f10610480576101008083540402835291602001916104a9565b820191905f5260205f20905b81548152906001019060200180831161048c57829003601f168201915b50505050508152602001600682015f9054906101000a900460ff1615151515815250509050919050565b825f5f8281526020019081526020015f206006015f9054906101000a900460ff16610533576040517f08c379a000000000000000000000000000000000000000000000000000000000815260040161052a90611076565b60405180910390fd5b5f5f90505f60405180602001604052805f81525090508415801561057357505f5f8781526020019081526020015f206003015f9054906101000a900460ff165b15610626575f5f8781526020019081526020015f20600501805461059690610d58565b80601f01602080910402602001604051908101604052809291908181526020018280546105c290610d58565b801561060d5780601f106105e45761010080835404028352916020019161060d565b820191905f5260205f20905b8154815290600101906020018083116105f057829003601f168201915b5050505050905060405180602001604052805f81525093505b845f5f8881526020019081526020015f206003015f6101000a81548160ff021916908315150217905550835f5f8881526020019081526020015f2060050190816106709190610f28565b505f5f8781526020019081526020015f20600401544211156106ae575f5f8781526020019081526020015f2060040154426106ab91906110c1565b91505b425f5f8881526020019081526020015f20600401819055507f6d50cce71fc451f8e60c3dbc11e85adc8aa8e0072d6bf563acf5a97b1cd4e047868684846040516106fb94939291906110f4565b60405180910390a1505050505050565b6040518060e001604052805f81526020015f81526020015f81526020015f151581526020015f8152602001606081526020015f151581525090565b5f604051905090565b5f5ffd5b5f5ffd5b5f819050919050565b61076981610757565b8114610773575f5ffd5b50565b5f8135905061078481610760565b92915050565b5f5f5f606084860312156107a1576107a061074f565b5b5f6107ae86828701610776565b93505060206107bf86828701610776565b92505060406107d086828701610776565b9150509250925092565b5f602082840312156107ef576107ee61074f565b5b5f6107fc84828501610776565b91505092915050565b61080e81610757565b82525050565b5f8115159050919050565b61082881610814565b82525050565b5f81519050919050565b5f82825260208201905092915050565b8281835e5f83830152505050565b5f601f19601f8301169050919050565b5f6108708261082e565b61087a8185610838565b935061088a818560208601610848565b61089381610856565b840191505092915050565b5f60e0820190506108b15f83018a610805565b6108be6020830189610805565b6108cb6040830188610805565b6108d8606083018761081f565b6108e56080830186610805565b81810360a08301526108f78185610866565b905061090660c083018461081f565b98975050505050505050565b61091b81610757565b82525050565b61092a81610814565b82525050565b5f82825260208201905092915050565b5f61094a8261082e565b6109548185610930565b9350610964818560208601610848565b61096d81610856565b840191505092915050565b5f60e083015f83015161098d5f860182610912565b5060208301516109a06020860182610912565b5060408301516109b36040860182610912565b5060608301516109c66060860182610921565b5060808301516109d96080860182610912565b5060a083015184820360a08601526109f18282610940565b91505060c0830151610a0660c0860182610921565b508091505092915050565b5f6020820190508181035f830152610a298184610978565b905092915050565b610a3a81610814565b8114610a44575f5ffd5b50565b5f81359050610a5581610a31565b92915050565b5f5ffd5b5f5ffd5b7f4e487b71000000000000000000000000000000000000000000000000000000005f52604160045260245ffd5b610a9982610856565b810181811067ffffffffffffffff82111715610ab857610ab7610a63565b5b80604052505050565b5f610aca610746565b9050610ad68282610a90565b919050565b5f67ffffffffffffffff821115610af557610af4610a63565b5b610afe82610856565b9050602081019050919050565b828183375f83830152505050565b5f610b2b610b2684610adb565b610ac1565b905082815260208101848484011115610b4757610b46610a5f565b5b610b52848285610b0b565b509392505050565b5f82601f830112610b6e57610b6d610a5b565b5b8135610b7e848260208601610b19565b91505092915050565b5f5f5f60608486031215610b9e57610b9d61074f565b5b5f610bab86828701610776565b9350506020610bbc86828701610a47565b925050604084013567ffffffffffffffff811115610bdd57610bdc610753565b5b610be986828701610b5a565b9150509250925092565b7f53656e736f7220416c72656164792052656769737465726564000000000000005f82015250565b5f610c27601983610838565b9150610c3282610bf3565b602082019050919050565b5f6020820190508181035f830152610c5481610c1b565b9050919050565b7f67656f6c6f636174696f6e20782076616c756520696e76616c696400000000005f82015250565b5f610c8f601b83610838565b9150610c9a82610c5b565b602082019050919050565b5f6020820190508181035f830152610cbc81610c83565b9050919050565b7f67656f6c6f636174696f6e20792076616c756520696e76616c696400000000005f82015250565b5f610cf7601b83610838565b9150610d0282610cc3565b602082019050919050565b5f6020820190508181035f830152610d2481610ceb565b9050919050565b7f4e487b71000000000000000000000000000000000000000000000000000000005f52602260045260245ffd5b5f6002820490506001821680610d6f57607f821691505b602082108103610d8257610d81610d2b565b5b50919050565b5f819050815f5260205f209050919050565b5f6020601f8301049050919050565b5f82821b905092915050565b5f60088302610de47fffffffffffffffffffffffffffffffffffffffffffffffffffffffffffffffff82610da9565b610dee8683610da9565b95508019841693508086168417925050509392505050565b5f819050919050565b5f610e29610e24610e1f84610757565b610e06565b610757565b9050919050565b5f819050919050565b610e4283610e0f565b610e56610e4e82610e30565b848454610db5565b825550505050565b5f5f905090565b610e6d610e5e565b610e78818484610e39565b505050565b5b81811015610e9b57610e905f82610e65565b600181019050610e7e565b5050565b601f821115610ee057610eb181610d88565b610eba84610d9a565b81016020851015610ec9578190505b610edd610ed585610d9a565b830182610e7d565b50505b505050565b5f82821c905092915050565b5f610f005f1984600802610ee5565b1980831691505092915050565b5f610f188383610ef1565b9150826002028217905092915050565b610f318261082e565b67ffffffffffffffff811115610f4a57610f49610a63565b5b610f548254610d58565b610f5f828285610e9f565b5f60209050601f831160018114610f90575f8415610f7e578287015190505b610f888582610f0d565b865550610fef565b601f198416610f9e86610d88565b5f5b82811015610fc557848901518255600182019150602085019450602081019050610fa0565b86831015610fe25784890151610fde601f891682610ef1565b8355505b6001600288020188555050505b505050505050565b5f60608201905061100a5f830186610805565b6110176020830185610805565b6110246040830184610805565b949350505050565b7f53656e736f72204e6f74205265676973746572656421000000000000000000005f82015250565b5f611060601683610838565b915061106b8261102c565b602082019050919050565b5f6020820190508181035f83015261108d81611054565b9050919050565b7f4e487b71000000000000000000000000000000000000000000000000000000005f52601160045260245ffd5b5f6110cb82610757565b91506110d683610757565b92508282039050818111156110ee576110ed611094565b5b92915050565b5f6080820190506111075f830187610805565b611114602083018661081f565b6111216040830185610805565b81810360608301526111338184610866565b90509594505050505056fea2646970667358221220f7653d7b0d69a7a2a74be0b3fa256ba68101393f485d691fdb2d7a199fd1bec664736f6c634300081e0033",
					"opcodes": "PUSH1 0x80 PUSH1 0x40 MSTORE CALLVALUE DUP1 ISZERO PUSH1 0xE JUMPI PUSH0 PUSH0 REVERT JUMPDEST POP PUSH2 0x1174 DUP1 PUSH2 0x1C PUSH0 CODECOPY PUSH0 RETURN INVALID PUSH1 0x80 PUSH1 0x40 MSTORE CALLVALUE DUP1 ISZERO PUSH2 0xF JUMPI PUSH0 PUSH0 REVERT JUMPDEST POP PUSH1 0x4 CALLDATASIZE LT PUSH2 0x4A JUMPI PUSH0 CALLDATALOAD PUSH1 0xE0 SHR DUP1 PUSH4 0x13B4727 EQ PUSH2 0x4E JUMPI DUP1 PUSH4 0x412F2E82 EQ PUSH2 0x6A JUMPI DUP1 PUSH4 0xED044AA3 EQ PUSH2 0xA0 JUMPI DUP1 PUSH4 0xF8E21DAD EQ PUSH2 0xD0 JUMPI JUMPDEST PUSH0 PUSH0 REVERT JUMPDEST PUSH2 0x68 PUSH1 0x4 DUP1 CALLDATASIZE SUB DUP2 ADD SWAP1 PUSH2 0x63 SWAP2 SWAP1 PUSH2 0x78A JUMP JUMPDEST PUSH2 0xEC JUMP JUMPDEST STOP JUMPDEST PUSH2 0x84 PUSH1 0x4 DUP1 CALLDATASIZE SUB DUP2 ADD SWAP1 PUSH2 0x7F SWAP2 SWAP1 PUSH2 0x7DA JUMP JUMPDEST PUSH2 0x2E3 JUMP JUMPDEST PUSH1 0x40 MLOAD PUSH2 0x97 SWAP8 SWAP7 SWAP6 SWAP5 SWAP4 SWAP3 SWAP2 SWAP1 PUSH2 0x89E JUMP JUMPDEST PUSH1 0x40 MLOAD DUP1 SWAP2 SUB SWAP1 RETURN JUMPDEST PUSH2 0xBA PUSH1 0x4 DUP1 CALLDATASIZE SUB DUP2 ADD SWAP1 PUSH2 0xB5 SWAP2 SWAP1 PUSH2 0x7DA JUMP JUMPDEST PUSH2 0x3BE JUMP JUMPDEST PUSH1 0x40 MLOAD PUSH2 0xC7 SWAP2 SWAP1 PUSH2 0xA11 JUMP JUMPDEST PUSH1 0x40 MLOAD DUP1 SWAP2 SUB SWAP1 RETURN JUMPDEST PUSH2 0xEA PUSH1 0x4 DUP1 CALLDATASIZE SUB DUP2 ADD SWAP1 PUSH2 0xE5 SWAP2 SWAP1 PUSH2 0xB87 JUMP JUMPDEST PUSH2 0x4D3 JUMP JUMPDEST STOP JUMPDEST PUSH0 PUSH0 DUP5 DUP2 MSTORE PUSH1 0x20 ADD SWAP1 DUP2 MSTORE PUSH1 0x20 ADD PUSH0 KECCAK256 PUSH1 0x6 ADD PUSH0 SWAP1 SLOAD SWAP1 PUSH2 0x100 EXP SWAP1 DIV PUSH1 0xFF AND ISZERO PUSH2 0x14C JUMPI PUSH1 0x40 MLOAD PUSH32 0x8C379A000000000000000000000000000000000000000000000000000000000 DUP2 MSTORE PUSH1 0x4 ADD PUSH2 0x143 SWAP1 PUSH2 0xC3D JUMP JUMPDEST PUSH1 0x40 MLOAD DUP1 SWAP2 SUB SWAP1 REVERT JUMPDEST PUSH0 DUP3 SUB PUSH2 0x18E JUMPI PUSH1 0x40 MLOAD PUSH32 0x8C379A000000000000000000000000000000000000000000000000000000000 DUP2 MSTORE PUSH1 0x4 ADD PUSH2 0x185 SWAP1 PUSH2 0xCA5 JUMP JUMPDEST PUSH1 0x40 MLOAD DUP1 SWAP2 SUB SWAP1 REVERT JUMPDEST PUSH0 DUP2 SUB PUSH2 0x1D0 JUMPI PUSH1 0x40 MLOAD PUSH32 0x8C379A000000000000000000000000000000000000000000000000000000000 DUP2 MSTORE PUSH1 0x4 ADD PUSH2 0x1C7 SWAP1 PUSH2 0xD0D JUMP JUMPDEST PUSH1 0x40 MLOAD DUP1 SWAP2 SUB SWAP1 REVERT JUMPDEST PUSH1 0x40 MLOAD DUP1 PUSH1 0xE0 ADD PUSH1 0x40 MSTORE DUP1 DUP5 DUP2 MSTORE PUSH1 0x20 ADD DUP4 DUP2 MSTORE PUSH1 0x20 ADD DUP3 DUP2 MSTORE PUSH1 0x20 ADD PUSH0 ISZERO ISZERO DUP2 MSTORE PUSH1 0x20 ADD TIMESTAMP DUP2 MSTORE PUSH1 0x20 ADD PUSH1 0x40 MLOAD DUP1 PUSH1 0x20 ADD PUSH1 0x40 MSTORE DUP1 PUSH0 DUP2 MSTORE POP DUP2 MSTORE PUSH1 0x20 ADD PUSH1 0x1 ISZERO ISZERO DUP2 MSTORE POP PUSH0 PUSH0 DUP6 DUP2 MSTORE PUSH1 0x20 ADD SWAP1 DUP2 MSTORE PUSH1 0x20 ADD PUSH0 KECCAK256 PUSH0 DUP3 ADD MLOAD DUP2 PUSH0 ADD SSTORE PUSH1 0x20 DUP3 ADD MLOAD DUP2 PUSH1 0x1 ADD SSTORE PUSH1 0x40 DUP3 ADD MLOAD DUP2 PUSH1 0x2 ADD SSTORE PUSH1 0x60 DUP3 ADD MLOAD DUP2 PUSH1 0x3 ADD PUSH0 PUSH2 0x100 EXP DUP2 SLOAD DUP2 PUSH1 0xFF MUL NOT AND SWAP1 DUP4 ISZERO ISZERO MUL OR SWAP1 SSTORE POP PUSH1 0x80 DUP3 ADD MLOAD DUP2 PUSH1 0x4 ADD SSTORE PUSH1 0xA0 DUP3 ADD MLOAD DUP2 PUSH1 0x5 ADD SWAP1 DUP2 PUSH2 0x280 SWAP2 SWAP1 PUSH2 0xF28 JUMP JUMPDEST POP PUSH1 0xC0 DUP3 ADD MLOAD DUP2 PUSH1 0x6 ADD PUSH0 PUSH2 0x100 EXP DUP2 SLOAD DUP2 PUSH1 0xFF MUL NOT AND SWAP1 DUP4 ISZERO ISZERO MUL OR SWAP1 SSTORE POP SWAP1 POP POP PUSH32 0xCE1DE8C95A916BBE4ADFE41D0C6B62C60B4CC659D1D42C2517FB1E444574F2C3 DUP4 DUP4 DUP4 PUSH1 0x40 MLOAD PUSH2 0x2D6 SWAP4 SWAP3 SWAP2 SWAP1 PUSH2 0xFF7 JUMP JUMPDEST PUSH1 0x40 MLOAD DUP1 SWAP2 SUB SWAP1 LOG1 POP POP POP JUMP JUMPDEST PUSH0 PUSH1 0x20 MSTORE DUP1 PUSH0 MSTORE PUSH1 0x40 PUSH0 KECCAK256 PUSH0 SWAP2 POP SWAP1 POP DUP1 PUSH0 ADD SLOAD SWAP1 DUP1 PUSH1 0x1 ADD SLOAD SWAP1 DUP1 PUSH1 0x2 ADD SLOAD SWAP1 DUP1 PUSH1 0x3 ADD PUSH0 SWAP1 SLOAD SWAP1 PUSH2 0x100 EXP SWAP1 DIV PUSH1 0xFF AND SWAP1 DUP1 PUSH1 0x4 ADD SLOAD SWAP1 DUP1 PUSH1 0x5 ADD DUP1 SLOAD PUSH2 0x32B SWAP1 PUSH2 0xD58 JUMP JUMPDEST DUP1 PUSH1 0x1F ADD PUSH1 0x20 DUP1 SWAP2 DIV MUL PUSH1 0x20 ADD PUSH1 0x40 MLOAD SWAP1 DUP2 ADD PUSH1 0x40 MSTORE DUP1 SWAP3 SWAP2 SWAP1 DUP2 DUP2 MSTORE PUSH1 0x20 ADD DUP3 DUP1 SLOAD PUSH2 0x357 SWAP1 PUSH2 0xD58 JUMP JUMPDEST DUP1 ISZERO PUSH2 0x3A2 JUMPI DUP1 PUSH1 0x1F LT PUSH2 0x379 JUMPI PUSH2 0x100 DUP1 DUP4 SLOAD DIV MUL DUP4 MSTORE SWAP2 PUSH1 0x20 ADD SWAP2 PUSH2 0x3A2 JUMP JUMPDEST DUP3 ADD SWAP2 SWAP1 PUSH0 MSTORE PUSH1 0x20 PUSH0 KECCAK256 SWAP1 JUMPDEST DUP2 SLOAD DUP2 MSTORE SWAP1 PUSH1 0x1 ADD SWAP1 PUSH1 0x20 ADD DUP1 DUP4 GT PUSH2 0x385 JUMPI DUP3 SWAP1 SUB PUSH1 0x1F AND DUP3 ADD SWAP2 JUMPDEST POP POP POP POP POP SWAP1 DUP1 PUSH1 0x6 ADD PUSH0 SWAP1 SLOAD SWAP1 PUSH2 0x100 EXP SWAP1 DIV PUSH1 0xFF AND SWAP1 POP DUP8 JUMP JUMPDEST PUSH2 0x3C6 PUSH2 0x70B JUMP JUMPDEST PUSH0 PUSH0 DUP4 DUP2 MSTORE PUSH1 0x20 ADD SWAP1 DUP2 MSTORE PUSH1 0x20 ADD PUSH0 KECCAK256 PUSH1 0x40 MLOAD DUP1 PUSH1 0xE0 ADD PUSH1 0x40 MSTORE SWAP1 DUP2 PUSH0 DUP3 ADD SLOAD DUP2 MSTORE PUSH1 0x20 ADD PUSH1 0x1 DUP3 ADD SLOAD DUP2 MSTORE PUSH1 0x20 ADD PUSH1 0x2 DUP3 ADD SLOAD DUP2 MSTORE PUSH1 0x20 ADD PUSH1 0x3 DUP3 ADD PUSH0 SWAP1 SLOAD SWAP1 PUSH2 0x100 EXP SWAP1 DIV PUSH1 0xFF AND ISZERO ISZERO ISZERO ISZERO DUP2 MSTORE PUSH1 0x20 ADD PUSH1 0x4 DUP3 ADD SLOAD DUP2 MSTORE PUSH1 0x20 ADD PUSH1 0x5 DUP3 ADD DUP1 SLOAD PUSH2 0x432 SWAP1 PUSH2 0xD58 JUMP JUMPDEST DUP1 PUSH1 0x1F ADD PUSH1 0x20 DUP1 SWAP2 DIV MUL PUSH1 0x20 ADD PUSH1 0x40 MLOAD SWAP1 DUP2 ADD PUSH1 0x40 MSTORE DUP1 SWAP3 SWAP2 SWAP1 DUP2 DUP2 MSTORE PUSH1 0x20 ADD DUP3 DUP1 SLOAD PUSH2 0x45E SWAP1 PUSH2 0xD58 JUMP JUMPDEST DUP1 ISZERO PUSH2 0x4A9 JUMPI DUP1 PUSH1 0x1F LT PUSH2 0x480 JUMPI PUSH2 0x100 DUP1 DUP4 SLOAD DIV MUL DUP4 MSTORE SWAP2 PUSH1 0x20 ADD SWAP2 PUSH2 0x4A9 JUMP JUMPDEST DUP3 ADD SWAP2 SWAP1 PUSH0 MSTORE PUSH1 0x20 PUSH0 KECCAK256 SWAP1 JUMPDEST DUP2 SLOAD DUP2 MSTORE SWAP1 PUSH1 0x1 ADD SWAP1 PUSH1 0x20 ADD DUP1 DUP4 GT PUSH2 0x48C JUMPI DUP3 SWAP1 SUB PUSH1 0x1F AND DUP3 ADD SWAP2 JUMPDEST POP POP POP POP POP DUP2 MSTORE PUSH1 0x20 ADD PUSH1 0x6 DUP3 ADD PUSH0 SWAP1 SLOAD SWAP1 PUSH2 0x100 EXP SWAP1 DIV PUSH1 0xFF AND ISZERO ISZERO ISZERO ISZERO DUP2 MSTORE POP POP SWAP1 POP SWAP2 SWAP1 POP JUMP JUMPDEST DUP3 PUSH0 PUSH0 DUP3 DUP2 MSTORE PUSH1 0x20 ADD SWAP1 DUP2 MSTORE PUSH1 0x20 ADD PUSH0 KECCAK256 PUSH1 0x6 ADD PUSH0 SWAP1 SLOAD SWAP1 PUSH2 0x100 EXP SWAP1 DIV PUSH1 0xFF AND PUSH2 0x533 JUMPI PUSH1 0x40 MLOAD PUSH32 0x8C379A000000000000000000000000000000000000000000000000000000000 DUP2 MSTORE PUSH1 0x4 ADD PUSH2 0x52A SWAP1 PUSH2 0x1076 JUMP JUMPDEST PUSH1 0x40 MLOAD DUP1 SWAP2 SUB SWAP1 REVERT JUMPDEST PUSH0 PUSH0 SWAP1 POP PUSH0 PUSH1 0x40 MLOAD DUP1 PUSH1 0x20 ADD PUSH1 0x40 MSTORE DUP1 PUSH0 DUP2 MSTORE POP SWAP1 POP DUP5 ISZERO DUP1 ISZERO PUSH2 0x573 JUMPI POP PUSH0 PUSH0 DUP8 DUP2 MSTORE PUSH1 0x20 ADD SWAP1 DUP2 MSTORE PUSH1 0x20 ADD PUSH0 KECCAK256 PUSH1 0x3 ADD PUSH0 SWAP1 SLOAD SWAP1 PUSH2 0x100 EXP SWAP1 DIV PUSH1 0xFF AND JUMPDEST ISZERO PUSH2 0x626 JUMPI PUSH0 PUSH0 DUP8 DUP2 MSTORE PUSH1 0x20 ADD SWAP1 DUP2 MSTORE PUSH1 0x20 ADD PUSH0 KECCAK256 PUSH1 0x5 ADD DUP1 SLOAD PUSH2 0x596 SWAP1 PUSH2 0xD58 JUMP JUMPDEST DUP1 PUSH1 0x1F ADD PUSH1 0x20 DUP1 SWAP2 DIV MUL PUSH1 0x20 ADD PUSH1 0x40 MLOAD SWAP1 DUP2 ADD PUSH1 0x40 MSTORE DUP1 SWAP3 SWAP2 SWAP1 DUP2 DUP2 MSTORE PUSH1 0x20 ADD DUP3 DUP1 SLOAD PUSH2 0x5C2 SWAP1 PUSH2 0xD58 JUMP JUMPDEST DUP1 ISZERO PUSH2 0x60D JUMPI DUP1 PUSH1 0x1F LT PUSH2 0x5E4 JUMPI PUSH2 0x100 DUP1 DUP4 SLOAD DIV MUL DUP4 MSTORE SWAP2 PUSH1 0x20 ADD SWAP2 PUSH2 0x60D JUMP JUMPDEST DUP3 ADD SWAP2 SWAP1 PUSH0 MSTORE PUSH1 0x20 PUSH0 KECCAK256 SWAP1 JUMPDEST DUP2 SLOAD DUP2 MSTORE SWAP1 PUSH1 0x1 ADD SWAP1 PUSH1 0x20 ADD DUP1 DUP4 GT PUSH2 0x5F0 JUMPI DUP3 SWAP1 SUB PUSH1 0x1F AND DUP3 ADD SWAP2 JUMPDEST POP POP POP POP POP SWAP1 POP PUSH1 0x40 MLOAD DUP1 PUSH1 0x20 ADD PUSH1 0x40 MSTORE DUP1 PUSH0 DUP2 MSTORE POP SWAP4 POP JUMPDEST DUP5 PUSH0 PUSH0 DUP9 DUP2 MSTORE PUSH1 0x20 ADD SWAP1 DUP2 MSTORE PUSH1 0x20 ADD PUSH0 KECCAK256 PUSH1 0x3 ADD PUSH0 PUSH2 0x100 EXP DUP2 SLOAD DUP2 PUSH1 0xFF MUL NOT AND SWAP1 DUP4 ISZERO ISZERO MUL OR SWAP1 SSTORE POP DUP4 PUSH0 PUSH0 DUP9 DUP2 MSTORE PUSH1 0x20 ADD SWAP1 DUP2 MSTORE PUSH1 0x20 ADD PUSH0 KECCAK256 PUSH1 0x5 ADD SWAP1 DUP2 PUSH2 0x670 SWAP2 SWAP1 PUSH2 0xF28 JUMP JUMPDEST POP PUSH0 PUSH0 DUP8 DUP2 MSTORE PUSH1 0x20 ADD SWAP1 DUP2 MSTORE PUSH1 0x20 ADD PUSH0 KECCAK256 PUSH1 0x4 ADD SLOAD TIMESTAMP GT ISZERO PUSH2 0x6AE JUMPI PUSH0 PUSH0 DUP8 DUP2 MSTORE PUSH1 0x20 ADD SWAP1 DUP2 MSTORE PUSH1 0x20 ADD PUSH0 KECCAK256 PUSH1 0x4 ADD SLOAD TIMESTAMP PUSH2 0x6AB SWAP2 SWAP1 PUSH2 0x10C1 JUMP JUMPDEST SWAP2 POP JUMPDEST TIMESTAMP PUSH0 PUSH0 DUP9 DUP2 MSTORE PUSH1 0x20 ADD SWAP1 DUP2 MSTORE PUSH1 0x20 ADD PUSH0 KECCAK256 PUSH1 0x4 ADD DUP2 SWAP1 SSTORE POP PUSH32 0x6D50CCE71FC451F8E60C3DBC11E85ADC8AA8E0072D6BF563ACF5A97B1CD4E047 DUP7 DUP7 DUP5 DUP5 PUSH1 0x40 MLOAD PUSH2 0x6FB SWAP5 SWAP4 SWAP3 SWAP2 SWAP1 PUSH2 0x10F4 JUMP JUMPDEST PUSH1 0x40 MLOAD DUP1 SWAP2 SUB SWAP1 LOG1 POP POP POP POP POP POP JUMP JUMPDEST PUSH1 0x40 MLOAD DUP1 PUSH1 0xE0 ADD PUSH1 0x40 MSTORE DUP1 PUSH0 DUP2 MSTORE PUSH1 0x20 ADD PUSH0 DUP2 MSTORE PUSH1 0x20 ADD PUSH0 DUP2 MSTORE PUSH1 0x20 ADD PUSH0 ISZERO ISZERO DUP2 MSTORE PUSH1 0x20 ADD PUSH0 DUP2 MSTORE PUSH1 0x20 ADD PUSH1 0x60 DUP2 MSTORE PUSH1 0x20 ADD PUSH0 ISZERO ISZERO DUP2 MSTORE POP SWAP1 JUMP JUMPDEST PUSH0 PUSH1 0x40 MLOAD SWAP1 POP SWAP1 JUMP JUMPDEST PUSH0 PUSH0 REVERT JUMPDEST PUSH0 PUSH0 REVERT JUMPDEST PUSH0 DUP2 SWAP1 POP SWAP2 SWAP1 POP JUMP JUMPDEST PUSH2 0x769 DUP2 PUSH2 0x757 JUMP JUMPDEST DUP2 EQ PUSH2 0x773 JUMPI PUSH0 PUSH0 REVERT JUMPDEST POP JUMP JUMPDEST PUSH0 DUP2 CALLDATALOAD SWAP1 POP PUSH2 0x784 DUP2 PUSH2 0x760 JUMP JUMPDEST SWAP3 SWAP2 POP POP JUMP JUMPDEST PUSH0 PUSH0 PUSH0 PUSH1 0x60 DUP5 DUP7 SUB SLT ISZERO PUSH2 0x7A1 JUMPI PUSH2 0x7A0 PUSH2 0x74F JUMP JUMPDEST JUMPDEST PUSH0 PUSH2 0x7AE DUP7 DUP3 DUP8 ADD PUSH2 0x776 JUMP JUMPDEST SWAP4 POP POP PUSH1 0x20 PUSH2 0x7BF DUP7 DUP3 DUP8 ADD PUSH2 0x776 JUMP JUMPDEST SWAP3 POP POP PUSH1 0x40 PUSH2 0x7D0 DUP7 DUP3 DUP8 ADD PUSH2 0x776 JUMP JUMPDEST SWAP2 POP POP SWAP3 POP SWAP3 POP SWAP3 JUMP JUMPDEST PUSH0 PUSH1 0x20 DUP3 DUP5 SUB SLT ISZERO PUSH2 0x7EF JUMPI PUSH2 0x7EE PUSH2 0x74F JUMP JUMPDEST JUMPDEST PUSH0 PUSH2 0x7FC DUP5 DUP3 DUP6 ADD PUSH2 0x776 JUMP JUMPDEST SWAP2 POP POP SWAP3 SWAP2 POP POP JUMP JUMPDEST PUSH2 0x80E DUP2 PUSH2 0x757 JUMP JUMPDEST DUP3 MSTORE POP POP JUMP JUMPDEST PUSH0 DUP2 ISZERO ISZERO SWAP1 POP SWAP2 SWAP1 POP JUMP JUMPDEST PUSH2 0x828 DUP2 PUSH2 0x814 JUMP JUMPDEST DUP3 MSTORE POP POP JUMP JUMPDEST PUSH0 DUP2 MLOAD SWAP1 POP SWAP2 SWAP1 POP JUMP JUMPDEST PUSH0 DUP3 DUP3 MSTORE PUSH1 0x20 DUP3 ADD SWAP1 POP SWAP3 SWAP2 POP POP JUMP JUMPDEST DUP3 DUP2 DUP4 MCOPY PUSH0 DUP4 DUP4 ADD MSTORE POP POP POP JUMP JUMPDEST PUSH0 PUSH1 0x1F NOT PUSH1 0x1F DUP4 ADD AND SWAP1 POP SWAP2 SWAP1 POP JUMP JUMPDEST PUSH0 PUSH2 0x870 DUP3 PUSH2 0x82E JUMP JUMPDEST PUSH2 0x87A DUP2 DUP6 PUSH2 0x838 JUMP JUMPDEST SWAP4 POP PUSH2 0x88A DUP2 DUP6 PUSH1 0x20 DUP7 ADD PUSH2 0x848 JUMP JUMPDEST PUSH2 0x893 DUP2 PUSH2 0x856 JUMP JUMPDEST DUP5 ADD SWAP2 POP POP SWAP3 SWAP2 POP POP JUMP JUMPDEST PUSH0 PUSH1 0xE0 DUP3 ADD SWAP1 POP PUSH2 0x8B1 PUSH0 DUP4 ADD DUP11 PUSH2 0x805 JUMP JUMPDEST PUSH2 0x8BE PUSH1 0x20 DUP4 ADD DUP10 PUSH2 0x805 JUMP JUMPDEST PUSH2 0x8CB PUSH1 0x40 DUP4 ADD DUP9 PUSH2 0x805 JUMP JUMPDEST PUSH2 0x8D8 PUSH1 0x60 DUP4 ADD DUP8 PUSH2 0x81F JUMP JUMPDEST PUSH2 0x8E5 PUSH1 0x80 DUP4 ADD DUP7 PUSH2 0x805 JUMP JUMPDEST DUP2 DUP2 SUB PUSH1 0xA0 DUP4 ADD MSTORE PUSH2 0x8F7 DUP2 DUP6 PUSH2 0x866 JUMP JUMPDEST SWAP1 POP PUSH2 0x906 PUSH1 0xC0 DUP4 ADD DUP5 PUSH2 0x81F JUMP JUMPDEST SWAP9 SWAP8 POP POP POP POP POP POP POP POP JUMP JUMPDEST PUSH2 0x91B DUP2 PUSH2 0x757 JUMP JUMPDEST DUP3 MSTORE POP POP JUMP JUMPDEST PUSH2 0x92A DUP2 PUSH2 0x814 JUMP JUMPDEST DUP3 MSTORE POP POP JUMP JUMPDEST PUSH0 DUP3 DUP3 MSTORE PUSH1 0x20 DUP3 ADD SWAP1 POP SWAP3 SWAP2 POP POP JUMP JUMPDEST PUSH0 PUSH2 0x94A DUP3 PUSH2 0x82E JUMP JUMPDEST PUSH2 0x954 DUP2 DUP6 PUSH2 0x930 JUMP JUMPDEST SWAP4 POP PUSH2 0x964 DUP2 DUP6 PUSH1 0x20 DUP7 ADD PUSH2 0x848 JUMP JUMPDEST PUSH2 0x96D DUP2 PUSH2 0x856 JUMP JUMPDEST DUP5 ADD SWAP2 POP POP SWAP3 SWAP2 POP POP JUMP JUMPDEST PUSH0 PUSH1 0xE0 DUP4 ADD PUSH0 DUP4 ADD MLOAD PUSH2 0x98D PUSH0 DUP7 ADD DUP3 PUSH2 0x912 JUMP JUMPDEST POP PUSH1 0x20 DUP4 ADD MLOAD PUSH2 0x9A0 PUSH1 0x20 DUP7 ADD DUP3 PUSH2 0x912 JUMP JUMPDEST POP PUSH1 0x40 DUP4 ADD MLOAD PUSH2 0x9B3 PUSH1 0x40 DUP7 ADD DUP3 PUSH2 0x912 JUMP JUMPDEST POP PUSH1 0x60 DUP4 ADD MLOAD PUSH2 0x9C6 PUSH1 0x60 DUP7 ADD DUP3 PUSH2 0x921 JUMP JUMPDEST POP PUSH1 0x80 DUP4 ADD MLOAD PUSH2 0x9D9 PUSH1 0x80 DUP7 ADD DUP3 PUSH2 0x912 JUMP JUMPDEST POP PUSH1 0xA0 DUP4 ADD MLOAD DUP5 DUP3 SUB PUSH1 0xA0 DUP7 ADD MSTORE PUSH2 0x9F1 DUP3 DUP3 PUSH2 0x940 JUMP JUMPDEST SWAP2 POP POP PUSH1 0xC0 DUP4 ADD MLOAD PUSH2 0xA06 PUSH1 0xC0 DUP7 ADD DUP3 PUSH2 0x921 JUMP JUMPDEST POP DUP1 SWAP2 POP POP SWAP3 SWAP2 POP POP JUMP JUMPDEST PUSH0 PUSH1 0x20 DUP3 ADD SWAP1 POP DUP2 DUP2 SUB PUSH0 DUP4 ADD MSTORE PUSH2 0xA29 DUP2 DUP5 PUSH2 0x978 JUMP JUMPDEST SWAP1 POP SWAP3 SWAP2 POP POP JUMP JUMPDEST PUSH2 0xA3A DUP2 PUSH2 0x814 JUMP JUMPDEST DUP2 EQ PUSH2 0xA44 JUMPI PUSH0 PUSH0 REVERT JUMPDEST POP JUMP JUMPDEST PUSH0 DUP2 CALLDATALOAD SWAP1 POP PUSH2 0xA55 DUP2 PUSH2 0xA31 JUMP JUMPDEST SWAP3 SWAP2 POP POP JUMP JUMPDEST PUSH0 PUSH0 REVERT JUMPDEST PUSH0 PUSH0 REVERT JUMPDEST PUSH32 0x4E487B7100000000000000000000000000000000000000000000000000000000 PUSH0 MSTORE PUSH1 0x41 PUSH1 0x4 MSTORE PUSH1 0x24 PUSH0 REVERT JUMPDEST PUSH2 0xA99 DUP3 PUSH2 0x856 JUMP JUMPDEST DUP2 ADD DUP2 DUP2 LT PUSH8 0xFFFFFFFFFFFFFFFF DUP3 GT OR ISZERO PUSH2 0xAB8 JUMPI PUSH2 0xAB7 PUSH2 0xA63 JUMP JUMPDEST JUMPDEST DUP1 PUSH1 0x40 MSTORE POP POP POP JUMP JUMPDEST PUSH0 PUSH2 0xACA PUSH2 0x746 JUMP JUMPDEST SWAP1 POP PUSH2 0xAD6 DUP3 DUP3 PUSH2 0xA90 JUMP JUMPDEST SWAP2 SWAP1 POP JUMP JUMPDEST PUSH0 PUSH8 0xFFFFFFFFFFFFFFFF DUP3 GT ISZERO PUSH2 0xAF5 JUMPI PUSH2 0xAF4 PUSH2 0xA63 JUMP JUMPDEST JUMPDEST PUSH2 0xAFE DUP3 PUSH2 0x856 JUMP JUMPDEST SWAP1 POP PUSH1 0x20 DUP2 ADD SWAP1 POP SWAP2 SWAP1 POP JUMP JUMPDEST DUP3 DUP2 DUP4 CALLDATACOPY PUSH0 DUP4 DUP4 ADD MSTORE POP POP POP JUMP JUMPDEST PUSH0 PUSH2 0xB2B PUSH2 0xB26 DUP5 PUSH2 0xADB JUMP JUMPDEST PUSH2 0xAC1 JUMP JUMPDEST SWAP1 POP DUP3 DUP2 MSTORE PUSH1 0x20 DUP2 ADD DUP5 DUP5 DUP5 ADD GT ISZERO PUSH2 0xB47 JUMPI PUSH2 0xB46 PUSH2 0xA5F JUMP JUMPDEST JUMPDEST PUSH2 0xB52 DUP5 DUP3 DUP6 PUSH2 0xB0B JUMP JUMPDEST POP SWAP4 SWAP3 POP POP POP JUMP JUMPDEST PUSH0 DUP3 PUSH1 0x1F DUP4 ADD SLT PUSH2 0xB6E JUMPI PUSH2 0xB6D PUSH2 0xA5B JUMP JUMPDEST JUMPDEST DUP2 CALLDATALOAD PUSH2 0xB7E DUP5 DUP3 PUSH1 0x20 DUP7 ADD PUSH2 0xB19 JUMP JUMPDEST SWAP2 POP POP SWAP3 SWAP2 POP POP JUMP JUMPDEST PUSH0 PUSH0 PUSH0 PUSH1 0x60 DUP5 DUP7 SUB SLT ISZERO PUSH2 0xB9E JUMPI PUSH2 0xB9D PUSH2 0x74F JUMP JUMPDEST JUMPDEST PUSH0 PUSH2 0xBAB DUP7 DUP3 DUP8 ADD PUSH2 0x776 JUMP JUMPDEST SWAP4 POP POP PUSH1 0x20 PUSH2 0xBBC DUP7 DUP3 DUP8 ADD PUSH2 0xA47 JUMP JUMPDEST SWAP3 POP POP PUSH1 0x40 DUP5 ADD CALLDATALOAD PUSH8 0xFFFFFFFFFFFFFFFF DUP2 GT ISZERO PUSH2 0xBDD JUMPI PUSH2 0xBDC PUSH2 0x753 JUMP JUMPDEST JUMPDEST PUSH2 0xBE9 DUP7 DUP3 DUP8 ADD PUSH2 0xB5A JUMP JUMPDEST SWAP2 POP POP SWAP3 POP SWAP3 POP SWAP3 JUMP JUMPDEST PUSH32 0x53656E736F7220416C7265616479205265676973746572656400000000000000 PUSH0 DUP3 ADD MSTORE POP JUMP JUMPDEST PUSH0 PUSH2 0xC27 PUSH1 0x19 DUP4 PUSH2 0x838 JUMP JUMPDEST SWAP2 POP PUSH2 0xC32 DUP3 PUSH2 0xBF3 JUMP JUMPDEST PUSH1 0x20 DUP3 ADD SWAP1 POP SWAP2 SWAP1 POP JUMP JUMPDEST PUSH0 PUSH1 0x20 DUP3 ADD SWAP1 POP DUP2 DUP2 SUB PUSH0 DUP4 ADD MSTORE PUSH2 0xC54 DUP2 PUSH2 0xC1B JUMP JUMPDEST SWAP1 POP SWAP2 SWAP1 POP JUMP JUMPDEST PUSH32 0x67656F6C6F636174696F6E20782076616C756520696E76616C69640000000000 PUSH0 DUP3 ADD MSTORE POP JUMP JUMPDEST PUSH0 PUSH2 0xC8F PUSH1 0x1B DUP4 PUSH2 0x838 JUMP JUMPDEST SWAP2 POP PUSH2 0xC9A DUP3 PUSH2 0xC5B JUMP JUMPDEST PUSH1 0x20 DUP3 ADD SWAP1 POP SWAP2 SWAP1 POP JUMP JUMPDEST PUSH0 PUSH1 0x20 DUP3 ADD SWAP1 POP DUP2 DUP2 SUB PUSH0 DUP4 ADD MSTORE PUSH2 0xCBC DUP2 PUSH2 0xC83 JUMP JUMPDEST SWAP1 POP SWAP2 SWAP1 POP JUMP JUMPDEST PUSH32 0x67656F6C6F636174696F6E20792076616C756520696E76616C69640000000000 PUSH0 DUP3 ADD MSTORE POP JUMP JUMPDEST PUSH0 PUSH2 0xCF7 PUSH1 0x1B DUP4 PUSH2 0x838 JUMP JUMPDEST SWAP2 POP PUSH2 0xD02 DUP3 PUSH2 0xCC3 JUMP JUMPDEST PUSH1 0x20 DUP3 ADD SWAP1 POP SWAP2 SWAP1 POP JUMP JUMPDEST PUSH0 PUSH1 0x20 DUP3 ADD SWAP1 POP DUP2 DUP2 SUB PUSH0 DUP4 ADD MSTORE PUSH2 0xD24 DUP2 PUSH2 0xCEB JUMP JUMPDEST SWAP1 POP SWAP2 SWAP1 POP JUMP JUMPDEST PUSH32 0x4E487B7100000000000000000000000000000000000000000000000000000000 PUSH0 MSTORE PUSH1 0x22 PUSH1 0x4 MSTORE PUSH1 0x24 PUSH0 REVERT JUMPDEST PUSH0 PUSH1 0x2 DUP3 DIV SWAP1 POP PUSH1 0x1 DUP3 AND DUP1 PUSH2 0xD6F JUMPI PUSH1 0x7F DUP3 AND SWAP2 POP JUMPDEST PUSH1 0x20 DUP3 LT DUP2 SUB PUSH2 0xD82 JUMPI PUSH2 0xD81 PUSH2 0xD2B JUMP JUMPDEST JUMPDEST POP SWAP2 SWAP1 POP JUMP JUMPDEST PUSH0 DUP2 SWAP1 POP DUP2 PUSH0 MSTORE PUSH1 0x20 PUSH0 KECCAK256 SWAP1 POP SWAP2 SWAP1 POP JUMP JUMPDEST PUSH0 PUSH1 0x20 PUSH1 0x1F DUP4 ADD DIV SWAP1 POP SWAP2 SWAP1 POP JUMP JUMPDEST PUSH0 DUP3 DUP3 SHL SWAP1 POP SWAP3 SWAP2 POP POP JUMP JUMPDEST PUSH0 PUSH1 0x8 DUP4 MUL PUSH2 0xDE4 PUSH32 0xFFFFFFFFFFFFFFFFFFFFFFFFFFFFFFFFFFFFFFFFFFFFFFFFFFFFFFFFFFFFFFFF DUP3 PUSH2 0xDA9 JUMP JUMPDEST PUSH2 0xDEE DUP7 DUP4 PUSH2 0xDA9 JUMP JUMPDEST SWAP6 POP DUP1 NOT DUP5 AND SWAP4 POP DUP1 DUP7 AND DUP5 OR SWAP3 POP POP POP SWAP4 SWAP3 POP POP POP JUMP JUMPDEST PUSH0 DUP2 SWAP1 POP SWAP2 SWAP1 POP JUMP JUMPDEST PUSH0 PUSH2 0xE29 PUSH2 0xE24 PUSH2 0xE1F DUP5 PUSH2 0x757 JUMP JUMPDEST PUSH2 0xE06 JUMP JUMPDEST PUSH2 0x757 JUMP JUMPDEST SWAP1 POP SWAP2 SWAP1 POP JUMP JUMPDEST PUSH0 DUP2 SWAP1 POP SWAP2 SWAP1 POP JUMP JUMPDEST PUSH2 0xE42 DUP4 PUSH2 0xE0F JUMP JUMPDEST PUSH2 0xE56 PUSH2 0xE4E DUP3 PUSH2 0xE30 JUMP JUMPDEST DUP5 DUP5 SLOAD PUSH2 0xDB5 JUMP JUMPDEST DUP3 SSTORE POP POP POP POP JUMP JUMPDEST PUSH0 PUSH0 SWAP1 POP SWAP1 JUMP JUMPDEST PUSH2 0xE6D PUSH2 0xE5E JUMP JUMPDEST PUSH2 0xE78 DUP2 DUP5 DUP5 PUSH2 0xE39 JUMP JUMPDEST POP POP POP JUMP JUMPDEST JUMPDEST DUP2 DUP2 LT ISZERO PUSH2 0xE9B JUMPI PUSH2 0xE90 PUSH0 DUP3 PUSH2 0xE65 JUMP JUMPDEST PUSH1 0x1 DUP2 ADD SWAP1 POP PUSH2 0xE7E JUMP JUMPDEST POP POP JUMP JUMPDEST PUSH1 0x1F DUP3 GT ISZERO PUSH2 0xEE0 JUMPI PUSH2 0xEB1 DUP2 PUSH2 0xD88 JUMP JUMPDEST PUSH2 0xEBA DUP5 PUSH2 0xD9A JUMP JUMPDEST DUP2 ADD PUSH1 0x20 DUP6 LT ISZERO PUSH2 0xEC9 JUMPI DUP2 SWAP1 POP JUMPDEST PUSH2 0xEDD PUSH2 0xED5 DUP6 PUSH2 0xD9A JUMP JUMPDEST DUP4 ADD DUP3 PUSH2 0xE7D JUMP JUMPDEST POP POP JUMPDEST POP POP POP JUMP JUMPDEST PUSH0 DUP3 DUP3 SHR SWAP1 POP SWAP3 SWAP2 POP POP JUMP JUMPDEST PUSH0 PUSH2 0xF00 PUSH0 NOT DUP5 PUSH1 0x8 MUL PUSH2 0xEE5 JUMP JUMPDEST NOT DUP1 DUP4 AND SWAP2 POP POP SWAP3 SWAP2 POP POP JUMP JUMPDEST PUSH0 PUSH2 0xF18 DUP4 DUP4 PUSH2 0xEF1 JUMP JUMPDEST SWAP2 POP DUP3 PUSH1 0x2 MUL DUP3 OR SWAP1 POP SWAP3 SWAP2 POP POP JUMP JUMPDEST PUSH2 0xF31 DUP3 PUSH2 0x82E JUMP JUMPDEST PUSH8 0xFFFFFFFFFFFFFFFF DUP2 GT ISZERO PUSH2 0xF4A JUMPI PUSH2 0xF49 PUSH2 0xA63 JUMP JUMPDEST JUMPDEST PUSH2 0xF54 DUP3 SLOAD PUSH2 0xD58 JUMP JUMPDEST PUSH2 0xF5F DUP3 DUP3 DUP6 PUSH2 0xE9F JUMP JUMPDEST PUSH0 PUSH1 0x20 SWAP1 POP PUSH1 0x1F DUP4 GT PUSH1 0x1 DUP2 EQ PUSH2 0xF90 JUMPI PUSH0 DUP5 ISZERO PUSH2 0xF7E JUMPI DUP3 DUP8 ADD MLOAD SWAP1 POP JUMPDEST PUSH2 0xF88 DUP6 DUP3 PUSH2 0xF0D JUMP JUMPDEST DUP7 SSTORE POP PUSH2 0xFEF JUMP JUMPDEST PUSH1 0x1F NOT DUP5 AND PUSH2 0xF9E DUP7 PUSH2 0xD88 JUMP JUMPDEST PUSH0 JUMPDEST DUP3 DUP2 LT ISZERO PUSH2 0xFC5 JUMPI DUP5 DUP10 ADD MLOAD DUP3 SSTORE PUSH1 0x1 DUP3 ADD SWAP2 POP PUSH1 0x20 DUP6 ADD SWAP5 POP PUSH1 0x20 DUP2 ADD SWAP1 POP PUSH2 0xFA0 JUMP JUMPDEST DUP7 DUP4 LT ISZERO PUSH2 0xFE2 JUMPI DUP5 DUP10 ADD MLOAD PUSH2 0xFDE PUSH1 0x1F DUP10 AND DUP3 PUSH2 0xEF1 JUMP JUMPDEST DUP4 SSTORE POP JUMPDEST PUSH1 0x1 PUSH1 0x2 DUP9 MUL ADD DUP9 SSTORE POP POP POP JUMPDEST POP POP POP POP POP POP JUMP JUMPDEST PUSH0 PUSH1 0x60 DUP3 ADD SWAP1 POP PUSH2 0x100A PUSH0 DUP4 ADD DUP7 PUSH2 0x805 JUMP JUMPDEST PUSH2 0x1017 PUSH1 0x20 DUP4 ADD DUP6 PUSH2 0x805 JUMP JUMPDEST PUSH2 0x1024 PUSH1 0x40 DUP4 ADD DUP5 PUSH2 0x805 JUMP JUMPDEST SWAP5 SWAP4 POP POP POP POP JUMP JUMPDEST PUSH32 0x53656E736F72204E6F7420526567697374657265642100000000000000000000 PUSH0 DUP3 ADD MSTORE POP JUMP JUMPDEST PUSH0 PUSH2 0x1060 PUSH1 0x16 DUP4 PUSH2 0x838 JUMP JUMPDEST SWAP2 POP PUSH2 0x106B DUP3 PUSH2 0x102C JUMP JUMPDEST PUSH1 0x20 DUP3 ADD SWAP1 POP SWAP2 SWAP1 POP JUMP JUMPDEST PUSH0 PUSH1 0x20 DUP3 ADD SWAP1 POP DUP2 DUP2 SUB PUSH0 DUP4 ADD MSTORE PUSH2 0x108D DUP2 PUSH2 0x1054 JUMP JUMPDEST SWAP1 POP SWAP2 SWAP1 POP JUMP JUMPDEST PUSH32 0x4E487B7100000000000000000000000000000000000000000000000000000000 PUSH0 MSTORE PUSH1 0x11 PUSH1 0x4 MSTORE PUSH1 0x24 PUSH0 REVERT JUMPDEST PUSH0 PUSH2 0x10CB DUP3 PUSH2 0x757 JUMP JUMPDEST SWAP2 POP PUSH2 0x10D6 DUP4 PUSH2 0x757 JUMP JUMPDEST SWAP3 POP DUP3 DUP3 SUB SWAP1 POP DUP2 DUP2 GT ISZERO PUSH2 0x10EE JUMPI PUSH2 0x10ED PUSH2 0x1094 JUMP JUMPDEST JUMPDEST SWAP3 SWAP2 POP POP JUMP JUMPDEST PUSH0 PUSH1 0x80 DUP3 ADD SWAP1 POP PUSH2 0x1107 PUSH0 DUP4 ADD DUP8 PUSH2 0x805 JUMP JUMPDEST PUSH2 0x1114 PUSH1 0x20 DUP4 ADD DUP7 PUSH2 0x81F JUMP JUMPDEST PUSH2 0x1121 PUSH1 0x40 DUP4 ADD DUP6 PUSH2 0x805 JUMP JUMPDEST DUP2 DUP2 SUB PUSH1 0x60 DUP4 ADD MSTORE PUSH2 0x1133 DUP2 DUP5 PUSH2 0x866 JUMP JUMPDEST SWAP1 POP SWAP6 SWAP5 POP POP POP POP POP JUMP INVALID LOG2 PUSH5 0x6970667358 0x22 SLT KECCAK256 0xF7 PUSH6 0x3D7B0D69A7A2 0xA7 0x4B RJUMP 0xB3FA 0x25 PUSH12 0xA68101393F485D691FDB2D7A NOT SWAP16 DATALOADN 0xBEC6 PUSH5 0x736F6C6343 STOP ADDMOD 0x1E STOP CALLER "
				},
				"gasEstimates": {
					"creation": {
						"codeDepositCost": "893600",
						"executionCost": "927",
						"totalCost": "894527"
					},
					"external": {
						"RegisterSensor(uint256,uint256,uint256)": "infinite",
						"getSensorData(uint256)": "infinite",
						"sensors(uint256)": "infinite",
						"updateSensorReadings(uint256,bool,string)": "infinite"
					}
				},
				"methodIdentifiers": {
					"RegisterSensor(uint256,uint256,uint256)": "013b4727",
					"getSensorData(uint256)": "ed044aa3",
					"sensors(uint256)": "412f2e82",
					"updateSensorReadings(uint256,bool,string)": "f8e21dad"
				}
			},
			"storageLayout": {
				"storage": [
					{
						"astId": 21,
						"contract": "contracts/ParkingSensor.sol:ParkingSensor",
						"label": "sensors",
						"offset": 0,
						"slot": "0",
						"type": "t_mapping(t_uint256,t_struct(Sensor)16_storage)"
					}
				],
				"types": {
					"t_bool": {
						"encoding": "inplace",
						"label": "bool",
						"numberOfBytes": "1"
					},
					"t_mapping(t_uint256,t_struct(Sensor)16_storage)": {
						"encoding": "mapping",
						"key": "t_uint256",
						"label": "mapping(uint256 => struct ParkingSensor.Sensor)",
						"numberOfBytes": "32",
						"value": "t_struct(Sensor)16_storage"
					},
					"t_string_storage": {
						"encoding": "bytes",
						"label": "string",
						"numberOfBytes": "32"
					},
					"t_struct(Sensor)16_storage": {
						"encoding": "inplace",
						"label": "struct ParkingSensor.Sensor",
						"members": [
							{
								"astId": 3,
								"contract": "contracts/ParkingSensor.sol:ParkingSensor",
								"label": "id",
								"offset": 0,
								"slot": "0",
								"type": "t_uint256"
							},
							{
								"astId": 5,
								"contract": "contracts/ParkingSensor.sol:ParkingSensor",
								"label": "x",
								"offset": 0,
								"slot": "1",
								"type": "t_uint256"
							},
							{
								"astId": 7,
								"contract": "contracts/ParkingSensor.sol:ParkingSensor",
								"label": "y",
								"offset": 0,
								"slot": "2",
								"type": "t_uint256"
							},
							{
								"astId": 9,
								"contract": "contracts/ParkingSensor.sol:ParkingSensor",
								"label": "occupied",
								"offset": 0,
								"slot": "3",
								"type": "t_bool"
							},
							{
								"astId": 11,
								"contract": "contracts/ParkingSensor.sol:ParkingSensor",
								"label": "modifiedTimeStamp",
								"offset": 0,
								"slot": "4",
								"type": "t_uint256"
							},
							{
								"astId": 13,
								"contract": "contracts/ParkingSensor.sol:ParkingSensor",
								"label": "vehicleRegisteration",
								"offset": 0,
								"slot": "5",
								"type": "t_string_storage"
							},
							{
								"astId": 15,
								"contract": "contracts/ParkingSensor.sol:ParkingSensor",
								"label": "registered",
								"offset": 0,
								"slot": "6",
								"type": "t_bool"
							}
						],
						"numberOfBytes": "224"
					},
					"t_uint256": {
						"encoding": "inplace",
						"label": "uint256",
						"numberOfBytes": "32"
					}
				}
			},
			"userdoc": {
				"kind": "user",
				"methods": {},
				"version": 1
			}
		}
	}
}