{
	"contracts/ParkingCustomer.sol": {
		"ParkingCustomer": {
			"abi": [
				{
					"anonymous": false,
					"inputs": [
						{
							"indexed": false,
							"internalType": "string",
							"name": "registerationNumber",
							"type": "string"
						},
						{
							"indexed": false,
							"internalType": "uint256",
							"name": "balance",
							"type": "uint256"
						}
					],
					"name": "CustomerBalanceUpdated",
					"type": "event"
				},
				{
					"anonymous": false,
					"inputs": [
						{
							"indexed": false,
							"internalType": "string",
							"name": "registerationNumber",
							"type": "string"
						}
					],
					"name": "CustomerRegistered",
					"type": "event"
				},
				{
					"inputs": [
						{
							"internalType": "string",
							"name": "_registerationNumber",
							"type": "string"
						}
					],
					"name": "RegisterCustomer",
					"outputs": [],
					"stateMutability": "nonpayable",
					"type": "function"
				},
				{
					"inputs": [
						{
							"internalType": "string",
							"name": "",
							"type": "string"
						}
					],
					"name": "customers",
					"outputs": [
						{
							"internalType": "string",
							"name": "registerationNumber",
							"type": "string"
						},
						{
							"internalType": "uint256",
							"name": "balance",
							"type": "uint256"
						},
						{
							"internalType": "bool",
							"name": "registered",
							"type": "bool"
						}
					],
					"stateMutability": "view",
					"type": "function"
				},
				{
					"inputs": [
						{
							"internalType": "string",
							"name": "_registerationNumber",
							"type": "string"
						}
					],
					"name": "getCustomer",
					"outputs": [
						{
							"components": [
								{
									"internalType": "string",
									"name": "registerationNumber",
									"type": "string"
								},
								{
									"internalType": "uint256",
									"name": "balance",
									"type": "uint256"
								},
								{
									"internalType": "bool",
									"name": "registered",
									"type": "bool"
								}
							],
							"internalType": "struct ParkingCustomer.Customer",
							"name": "",
							"type": "tuple"
						}
					],
					"stateMutability": "view",
					"type": "function"
				},
				{
					"inputs": [
						{
							"internalType": "string",
							"name": "_registerationNumber",
							"type": "string"
						},
						{
							"internalType": "uint256",
							"name": "_balance",
							"type": "uint256"
						}
					],
					"name": "updateCustomerBalance",
					"outputs": [],
					"stateMutability": "nonpayable",
					"type": "function"
				}
			],
			"devdoc": {
				"kind": "dev",
				"methods": {},
				"version": 1
			},
			"evm": {
				"assembly": "    /* \"contracts/ParkingCustomer.sol\":33:1839  contract ParkingCustomer{... */\n  mstore(0x40, 0x80)\n  callvalue\n  dup1\n  iszero\n  tag_1\n  jumpi\n  revert(0x00, 0x00)\ntag_1:\n  pop\n  dataSize(sub_0)\n  dup1\n  dataOffset(sub_0)\n  0x00\n  codecopy\n  0x00\n  return\nstop\n\nsub_0: assembly {\n        /* \"contracts/ParkingCustomer.sol\":33:1839  contract ParkingCustomer{... */\n      mstore(0x40, 0x80)\n      callvalue\n      dup1\n      iszero\n      tag_1\n      jumpi\n      revert(0x00, 0x00)\n    tag_1:\n      pop\n      jumpi(tag_2, lt(calldatasize, 0x04))\n      shr(0xe0, calldataload(0x00))\n      dup1\n      0x4772e23d\n      eq\n      tag_3\n      jumpi\n      dup1\n      0x518bddd9\n      eq\n      tag_4\n      jumpi\n      dup1\n      0x6e541024\n      eq\n      tag_5\n      jumpi\n      dup1\n      0xa82c98d0\n      eq\n      tag_6\n      jumpi\n    tag_2:\n      revert(0x00, 0x00)\n        /* \"contracts/ParkingCustomer.sol\":961:1398  function RegisterCustomer(string memory _registerationNumber) public {... */\n    tag_3:\n      tag_7\n      0x04\n      dup1\n      calldatasize\n      sub\n      dup2\n      add\n      swap1\n      tag_8\n      swap2\n      swap1\n      tag_9\n      jump\t// in\n    tag_8:\n      tag_10\n      jump\t// in\n    tag_7:\n      stop\n        /* \"contracts/ParkingCustomer.sol\":1687:1837  function getCustomer(string memory _registerationNumber) public view returns (Customer memory) {... */\n    tag_4:\n      tag_11\n      0x04\n      dup1\n      calldatasize\n      sub\n      dup2\n      add\n      swap1\n      tag_12\n      swap2\n      swap1\n      tag_9\n      jump\t// in\n    tag_12:\n      tag_13\n      jump\t// in\n    tag_11:\n      mload(0x40)\n      tag_14\n      swap2\n      swap1\n      tag_15\n      jump\t// in\n    tag_14:\n      mload(0x40)\n      dup1\n      swap2\n      sub\n      swap1\n      return\n        /* \"contracts/ParkingCustomer.sol\":1404:1681  function updateCustomerBalance(string memory _registerationNumber, uint _balance) public IsCustomerRegistered(_registerationNumber) {... */\n    tag_5:\n      tag_16\n      0x04\n      dup1\n      calldatasize\n      sub\n      dup2\n      add\n      swap1\n      tag_17\n      swap2\n      swap1\n      tag_18\n      jump\t// in\n    tag_17:\n      tag_19\n      jump\t// in\n    tag_16:\n      stop\n        /* \"contracts/ParkingCustomer.sol\":566:610  mapping(string => Customer) public customers */\n    tag_6:\n      tag_20\n      0x04\n      dup1\n      calldatasize\n      sub\n      dup2\n      add\n      swap1\n      tag_21\n      swap2\n      swap1\n      tag_9\n      jump\t// in\n    tag_21:\n      tag_22\n      jump\t// in\n    tag_20:\n      mload(0x40)\n      tag_23\n      swap4\n      swap3\n      swap2\n      swap1\n      tag_24\n      jump\t// in\n    tag_23:\n      mload(0x40)\n      dup1\n      swap2\n      sub\n      swap1\n      return\n        /* \"contracts/ParkingCustomer.sol\":961:1398  function RegisterCustomer(string memory _registerationNumber) public {... */\n    tag_10:\n        /* \"contracts/ParkingCustomer.sol\":1049:1058  customers */\n      0x00\n        /* \"contracts/ParkingCustomer.sol\":1059:1079  _registerationNumber */\n      dup2\n        /* \"contracts/ParkingCustomer.sol\":1049:1080  customers[_registerationNumber] */\n      mload(0x40)\n      tag_26\n      swap2\n      swap1\n      tag_27\n      jump\t// in\n    tag_26:\n      swap1\n      dup2\n      mstore\n      0x20\n      add\n      mload(0x40)\n      dup1\n      swap2\n      sub\n      swap1\n      keccak256\n        /* \"contracts/ParkingCustomer.sol\":1049:1091  customers[_registerationNumber].registered */\n      0x02\n      add\n      0x00\n      swap1\n      sload\n      swap1\n      0x0100\n      exp\n      swap1\n      div\n      0xff\n      and\n        /* \"contracts/ParkingCustomer.sol\":1048:1091  !customers[_registerationNumber].registered */\n      iszero\n        /* \"contracts/ParkingCustomer.sol\":1040:1123  require(!customers[_registerationNumber].registered, \"Customer Already Registered\") */\n      tag_28\n      jumpi\n      mload(0x40)\n      0x08c379a000000000000000000000000000000000000000000000000000000000\n      dup2\n      mstore\n      0x04\n      add\n      tag_29\n      swap1\n      tag_30\n      jump\t// in\n    tag_29:\n      mload(0x40)\n      dup1\n      swap2\n      sub\n      swap1\n      revert\n    tag_28:\n        /* \"contracts/ParkingCustomer.sol\":1168:1335  Customer(... */\n      mload(0x40)\n      dup1\n      0x60\n      add\n      0x40\n      mstore\n      dup1\n        /* \"contracts/ParkingCustomer.sol\":1229:1249  _registerationNumber */\n      dup3\n        /* \"contracts/ParkingCustomer.sol\":1168:1335  Customer(... */\n      dup2\n      mstore\n      0x20\n      add\n        /* \"contracts/ParkingCustomer.sol\":1276:1277  0 */\n      0x00\n        /* \"contracts/ParkingCustomer.sol\":1168:1335  Customer(... */\n      dup2\n      mstore\n      0x20\n      add\n        /* \"contracts/ParkingCustomer.sol\":1307:1311  true */\n      0x01\n        /* \"contracts/ParkingCustomer.sol\":1168:1335  Customer(... */\n      iszero\n      iszero\n      dup2\n      mstore\n      pop\n        /* \"contracts/ParkingCustomer.sol\":1134:1143  customers */\n      0x00\n        /* \"contracts/ParkingCustomer.sol\":1144:1164  _registerationNumber */\n      dup3\n        /* \"contracts/ParkingCustomer.sol\":1134:1165  customers[_registerationNumber] */\n      mload(0x40)\n      tag_31\n      swap2\n      swap1\n      tag_27\n      jump\t// in\n    tag_31:\n      swap1\n      dup2\n      mstore\n      0x20\n      add\n      mload(0x40)\n      dup1\n      swap2\n      sub\n      swap1\n      keccak256\n        /* \"contracts/ParkingCustomer.sol\":1134:1335  customers[_registerationNumber] = Customer(... */\n      0x00\n      dup3\n      add\n      mload\n      dup2\n      0x00\n      add\n      swap1\n      dup2\n      tag_32\n      swap2\n      swap1\n      tag_33\n      jump\t// in\n    tag_32:\n      pop\n      0x20\n      dup3\n      add\n      mload\n      dup2\n      0x01\n      add\n      sstore\n      0x40\n      dup3\n      add\n      mload\n      dup2\n      0x02\n      add\n      exp(0x0100, 0x00)\n      dup2\n      sload\n      dup2\n      0xff\n      mul\n      not\n      and\n      swap1\n      dup4\n      iszero\n      iszero\n      mul\n      or\n      swap1\n      sstore\n      pop\n      swap1\n      pop\n      pop\n        /* \"contracts/ParkingCustomer.sol\":1351:1391  CustomerRegistered(_registerationNumber) */\n      0xb8925ac9d3465bf9cbb2513f647fd542cfc05dd7ea17956ea38e53cec3327f58\n        /* \"contracts/ParkingCustomer.sol\":1370:1390  _registerationNumber */\n      dup2\n        /* \"contracts/ParkingCustomer.sol\":1351:1391  CustomerRegistered(_registerationNumber) */\n      mload(0x40)\n      tag_34\n      swap2\n      swap1\n      tag_35\n      jump\t// in\n    tag_34:\n      mload(0x40)\n      dup1\n      swap2\n      sub\n      swap1\n      log1\n        /* \"contracts/ParkingCustomer.sol\":961:1398  function RegisterCustomer(string memory _registerationNumber) public {... */\n      pop\n      jump\t// out\n        /* \"contracts/ParkingCustomer.sol\":1687:1837  function getCustomer(string memory _registerationNumber) public view returns (Customer memory) {... */\n    tag_13:\n        /* \"contracts/ParkingCustomer.sol\":1765:1780  Customer memory */\n      tag_36\n      tag_37\n      jump\t// in\n    tag_36:\n        /* \"contracts/ParkingCustomer.sol\":1799:1808  customers */\n      0x00\n        /* \"contracts/ParkingCustomer.sol\":1809:1829  _registerationNumber */\n      dup3\n        /* \"contracts/ParkingCustomer.sol\":1799:1830  customers[_registerationNumber] */\n      mload(0x40)\n      tag_39\n      swap2\n      swap1\n      tag_27\n      jump\t// in\n    tag_39:\n      swap1\n      dup2\n      mstore\n      0x20\n      add\n      mload(0x40)\n      dup1\n      swap2\n      sub\n      swap1\n      keccak256\n        /* \"contracts/ParkingCustomer.sol\":1792:1830  return customers[_registerationNumber] */\n      mload(0x40)\n      dup1\n      0x60\n      add\n      0x40\n      mstore\n      swap1\n      dup2\n      0x00\n      dup3\n      add\n      dup1\n      sload\n      tag_40\n      swap1\n      tag_41\n      jump\t// in\n    tag_40:\n      dup1\n      0x1f\n      add\n      0x20\n      dup1\n      swap2\n      div\n      mul\n      0x20\n      add\n      mload(0x40)\n      swap1\n      dup2\n      add\n      0x40\n      mstore\n      dup1\n      swap3\n      swap2\n      swap1\n      dup2\n      dup2\n      mstore\n      0x20\n      add\n      dup3\n      dup1\n      sload\n      tag_42\n      swap1\n      tag_41\n      jump\t// in\n    tag_42:\n      dup1\n      iszero\n      tag_43\n      jumpi\n      dup1\n      0x1f\n      lt\n      tag_44\n      jumpi\n      0x0100\n      dup1\n      dup4\n      sload\n      div\n      mul\n      dup4\n      mstore\n      swap2\n      0x20\n      add\n      swap2\n      jump(tag_43)\n    tag_44:\n      dup3\n      add\n      swap2\n      swap1\n      0x00\n      mstore\n      keccak256(0x00, 0x20)\n      swap1\n    tag_45:\n      dup2\n      sload\n      dup2\n      mstore\n      swap1\n      0x01\n      add\n      swap1\n      0x20\n      add\n      dup1\n      dup4\n      gt\n      tag_45\n      jumpi\n      dup3\n      swap1\n      sub\n      0x1f\n      and\n      dup3\n      add\n      swap2\n    tag_43:\n      pop\n      pop\n      pop\n      pop\n      pop\n      dup2\n      mstore\n      0x20\n      add\n      0x01\n      dup3\n      add\n      sload\n      dup2\n      mstore\n      0x20\n      add\n      0x02\n      dup3\n      add\n      0x00\n      swap1\n      sload\n      swap1\n      0x0100\n      exp\n      swap1\n      div\n      0xff\n      and\n      iszero\n      iszero\n      iszero\n      iszero\n      dup2\n      mstore\n      pop\n      pop\n      swap1\n      pop\n        /* \"contracts/ParkingCustomer.sol\":1687:1837  function getCustomer(string memory _registerationNumber) public view returns (Customer memory) {... */\n      swap2\n      swap1\n      pop\n      jump\t// out\n        /* \"contracts/ParkingCustomer.sol\":1404:1681  function updateCustomerBalance(string memory _registerationNumber, uint _balance) public IsCustomerRegistered(_registerationNumber) {... */\n    tag_19:\n        /* \"contracts/ParkingCustomer.sol\":1514:1534  _registerationNumber */\n      dup2\n        /* \"contracts/ParkingCustomer.sol\":832:841  customers */\n      0x00\n        /* \"contracts/ParkingCustomer.sol\":842:862  _registerationNumber */\n      dup2\n        /* \"contracts/ParkingCustomer.sol\":832:863  customers[_registerationNumber] */\n      mload(0x40)\n      tag_47\n      swap2\n      swap1\n      tag_27\n      jump\t// in\n    tag_47:\n      swap1\n      dup2\n      mstore\n      0x20\n      add\n      mload(0x40)\n      dup1\n      swap2\n      sub\n      swap1\n      keccak256\n        /* \"contracts/ParkingCustomer.sol\":832:874  customers[_registerationNumber].registered */\n      0x02\n      add\n      0x00\n      swap1\n      sload\n      swap1\n      0x0100\n      exp\n      swap1\n      div\n      0xff\n      and\n        /* \"contracts/ParkingCustomer.sol\":828:938  if(!customers[_registerationNumber].registered){... */\n      tag_48\n      jumpi\n        /* \"contracts/ParkingCustomer.sol\":889:927  RegisterCustomer(_registerationNumber) */\n      tag_49\n        /* \"contracts/ParkingCustomer.sol\":906:926  _registerationNumber */\n      dup2\n        /* \"contracts/ParkingCustomer.sol\":889:905  RegisterCustomer */\n      tag_10\n        /* \"contracts/ParkingCustomer.sol\":889:927  RegisterCustomer(_registerationNumber) */\n      jump\t// in\n    tag_49:\n        /* \"contracts/ParkingCustomer.sol\":828:938  if(!customers[_registerationNumber].registered){... */\n    tag_48:\n        /* \"contracts/ParkingCustomer.sol\":1596:1604  _balance */\n      dup2\n        /* \"contracts/ParkingCustomer.sol\":1554:1563  customers */\n      0x00\n        /* \"contracts/ParkingCustomer.sol\":1564:1584  _registerationNumber */\n      dup5\n        /* \"contracts/ParkingCustomer.sol\":1554:1585  customers[_registerationNumber] */\n      mload(0x40)\n      tag_51\n      swap2\n      swap1\n      tag_27\n      jump\t// in\n    tag_51:\n      swap1\n      dup2\n      mstore\n      0x20\n      add\n      mload(0x40)\n      dup1\n      swap2\n      sub\n      swap1\n      keccak256\n        /* \"contracts/ParkingCustomer.sol\":1554:1593  customers[_registerationNumber].balance */\n      0x01\n      add\n        /* \"contracts/ParkingCustomer.sol\":1554:1604  customers[_registerationNumber].balance = _balance */\n      dup2\n      swap1\n      sstore\n      pop\n        /* \"contracts/ParkingCustomer.sol\":1620:1674  CustomerBalanceUpdated(_registerationNumber, _balance) */\n      0xf6cdc57e3c9b661aec04104be7e7832f4cf5b58525e133b1dd5d8f617be77025\n        /* \"contracts/ParkingCustomer.sol\":1643:1663  _registerationNumber */\n      dup4\n        /* \"contracts/ParkingCustomer.sol\":1665:1673  _balance */\n      dup4\n        /* \"contracts/ParkingCustomer.sol\":1620:1674  CustomerBalanceUpdated(_registerationNumber, _balance) */\n      mload(0x40)\n      tag_52\n      swap3\n      swap2\n      swap1\n      tag_53\n      jump\t// in\n    tag_52:\n      mload(0x40)\n      dup1\n      swap2\n      sub\n      swap1\n      log1\n        /* \"contracts/ParkingCustomer.sol\":1404:1681  function updateCustomerBalance(string memory _registerationNumber, uint _balance) public IsCustomerRegistered(_registerationNumber) {... */\n      pop\n      pop\n      pop\n      jump\t// out\n        /* \"contracts/ParkingCustomer.sol\":566:610  mapping(string => Customer) public customers */\n    tag_22:\n      0x00\n      dup2\n      dup1\n      mload\n      0x20\n      dup2\n      add\n      dup3\n      add\n      dup1\n      mload\n      dup5\n      dup3\n      mstore\n      0x20\n      dup4\n      add\n      0x20\n      dup6\n      add\n      keccak256\n      dup2\n      dup4\n      mstore\n      dup1\n      swap6\n      pop\n      pop\n      pop\n      pop\n      pop\n      pop\n      0x00\n      swap2\n      pop\n      swap1\n      pop\n      dup1\n      0x00\n      add\n      dup1\n      sload\n      tag_54\n      swap1\n      tag_41\n      jump\t// in\n    tag_54:\n      dup1\n      0x1f\n      add\n      0x20\n      dup1\n      swap2\n      div\n      mul\n      0x20\n      add\n      mload(0x40)\n      swap1\n      dup2\n      add\n      0x40\n      mstore\n      dup1\n      swap3\n      swap2\n      swap1\n      dup2\n      dup2\n      mstore\n      0x20\n      add\n      dup3\n      dup1\n      sload\n      tag_55\n      swap1\n      tag_41\n      jump\t// in\n    tag_55:\n      dup1\n      iszero\n      tag_56\n      jumpi\n      dup1\n      0x1f\n      lt\n      tag_57\n      jumpi\n      0x0100\n      dup1\n      dup4\n      sload\n      div\n      mul\n      dup4\n      mstore\n      swap2\n      0x20\n      add\n      swap2\n      jump(tag_56)\n    tag_57:\n      dup3\n      add\n      swap2\n      swap1\n      0x00\n      mstore\n      keccak256(0x00, 0x20)\n      swap1\n    tag_58:\n      dup2\n      sload\n      dup2\n      mstore\n      swap1\n      0x01\n      add\n      swap1\n      0x20\n      add\n      dup1\n      dup4\n      gt\n      tag_58\n      jumpi\n      dup3\n      swap1\n      sub\n      0x1f\n      and\n      dup3\n      add\n      swap2\n    tag_56:\n      pop\n      pop\n      pop\n      pop\n      pop\n      swap1\n      dup1\n      0x01\n      add\n      sload\n      swap1\n      dup1\n      0x02\n      add\n      0x00\n      swap1\n      sload\n      swap1\n      0x0100\n      exp\n      swap1\n      div\n      0xff\n      and\n      swap1\n      pop\n      dup4\n      jump\t// out\n    tag_37:\n      mload(0x40)\n      dup1\n      0x60\n      add\n      0x40\n      mstore\n      dup1\n      0x60\n      dup2\n      mstore\n      0x20\n      add\n      0x00\n      dup2\n      mstore\n      0x20\n      add\n      iszero(iszero(0x00))\n      dup2\n      mstore\n      pop\n      swap1\n      jump\t// out\n        /* \"#utility.yul\":7:82   */\n    tag_59:\n        /* \"#utility.yul\":40:46   */\n      0x00\n        /* \"#utility.yul\":73:75   */\n      0x40\n        /* \"#utility.yul\":67:76   */\n      mload\n        /* \"#utility.yul\":57:76   */\n      swap1\n      pop\n        /* \"#utility.yul\":7:82   */\n      swap1\n      jump\t// out\n        /* \"#utility.yul\":88:205   */\n    tag_60:\n        /* \"#utility.yul\":197:198   */\n      0x00\n        /* \"#utility.yul\":194:195   */\n      0x00\n        /* \"#utility.yul\":187:199   */\n      revert\n        /* \"#utility.yul\":211:328   */\n    tag_61:\n        /* \"#utility.yul\":320:321   */\n      0x00\n        /* \"#utility.yul\":317:318   */\n      0x00\n        /* \"#utility.yul\":310:322   */\n      revert\n        /* \"#utility.yul\":334:451   */\n    tag_62:\n        /* \"#utility.yul\":443:444   */\n      0x00\n        /* \"#utility.yul\":440:441   */\n      0x00\n        /* \"#utility.yul\":433:445   */\n      revert\n        /* \"#utility.yul\":457:574   */\n    tag_63:\n        /* \"#utility.yul\":566:567   */\n      0x00\n        /* \"#utility.yul\":563:564   */\n      0x00\n        /* \"#utility.yul\":556:568   */\n      revert\n        /* \"#utility.yul\":580:682   */\n    tag_64:\n        /* \"#utility.yul\":621:627   */\n      0x00\n        /* \"#utility.yul\":672:674   */\n      0x1f\n        /* \"#utility.yul\":668:675   */\n      not\n        /* \"#utility.yul\":663:665   */\n      0x1f\n        /* \"#utility.yul\":656:661   */\n      dup4\n        /* \"#utility.yul\":652:666   */\n      add\n        /* \"#utility.yul\":648:676   */\n      and\n        /* \"#utility.yul\":638:676   */\n      swap1\n      pop\n        /* \"#utility.yul\":580:682   */\n      swap2\n      swap1\n      pop\n      jump\t// out\n        /* \"#utility.yul\":688:868   */\n    tag_65:\n        /* \"#utility.yul\":736:813   */\n      0x4e487b7100000000000000000000000000000000000000000000000000000000\n        /* \"#utility.yul\":733:734   */\n      0x00\n        /* \"#utility.yul\":726:814   */\n      mstore\n        /* \"#utility.yul\":833:837   */\n      0x41\n        /* \"#utility.yul\":830:831   */\n      0x04\n        /* \"#utility.yul\":823:838   */\n      mstore\n        /* \"#utility.yul\":857:861   */\n      0x24\n        /* \"#utility.yul\":854:855   */\n      0x00\n        /* \"#utility.yul\":847:862   */\n      revert\n        /* \"#utility.yul\":874:1155   */\n    tag_66:\n        /* \"#utility.yul\":957:984   */\n      tag_116\n        /* \"#utility.yul\":979:983   */\n      dup3\n        /* \"#utility.yul\":957:984   */\n      tag_64\n      jump\t// in\n    tag_116:\n        /* \"#utility.yul\":949:955   */\n      dup2\n        /* \"#utility.yul\":945:985   */\n      add\n        /* \"#utility.yul\":1087:1093   */\n      dup2\n        /* \"#utility.yul\":1075:1085   */\n      dup2\n        /* \"#utility.yul\":1072:1094   */\n      lt\n        /* \"#utility.yul\":1051:1069   */\n      0xffffffffffffffff\n        /* \"#utility.yul\":1039:1049   */\n      dup3\n        /* \"#utility.yul\":1036:1070   */\n      gt\n        /* \"#utility.yul\":1033:1095   */\n      or\n        /* \"#utility.yul\":1030:1118   */\n      iszero\n      tag_117\n      jumpi\n        /* \"#utility.yul\":1098:1116   */\n      tag_118\n      tag_65\n      jump\t// in\n    tag_118:\n        /* \"#utility.yul\":1030:1118   */\n    tag_117:\n        /* \"#utility.yul\":1138:1148   */\n      dup1\n        /* \"#utility.yul\":1134:1136   */\n      0x40\n        /* \"#utility.yul\":1127:1149   */\n      mstore\n        /* \"#utility.yul\":917:1155   */\n      pop\n        /* \"#utility.yul\":874:1155   */\n      pop\n      pop\n      jump\t// out\n        /* \"#utility.yul\":1161:1290   */\n    tag_67:\n        /* \"#utility.yul\":1195:1201   */\n      0x00\n        /* \"#utility.yul\":1222:1242   */\n      tag_120\n      tag_59\n      jump\t// in\n    tag_120:\n        /* \"#utility.yul\":1212:1242   */\n      swap1\n      pop\n        /* \"#utility.yul\":1251:1284   */\n      tag_121\n        /* \"#utility.yul\":1279:1283   */\n      dup3\n        /* \"#utility.yul\":1271:1277   */\n      dup3\n        /* \"#utility.yul\":1251:1284   */\n      tag_66\n      jump\t// in\n    tag_121:\n        /* \"#utility.yul\":1161:1290   */\n      swap2\n      swap1\n      pop\n      jump\t// out\n        /* \"#utility.yul\":1296:1604   */\n    tag_68:\n        /* \"#utility.yul\":1358:1362   */\n      0x00\n        /* \"#utility.yul\":1448:1466   */\n      0xffffffffffffffff\n        /* \"#utility.yul\":1440:1446   */\n      dup3\n        /* \"#utility.yul\":1437:1467   */\n      gt\n        /* \"#utility.yul\":1434:1490   */\n      iszero\n      tag_123\n      jumpi\n        /* \"#utility.yul\":1470:1488   */\n      tag_124\n      tag_65\n      jump\t// in\n    tag_124:\n        /* \"#utility.yul\":1434:1490   */\n    tag_123:\n        /* \"#utility.yul\":1508:1537   */\n      tag_125\n        /* \"#utility.yul\":1530:1536   */\n      dup3\n        /* \"#utility.yul\":1508:1537   */\n      tag_64\n      jump\t// in\n    tag_125:\n        /* \"#utility.yul\":1500:1537   */\n      swap1\n      pop\n        /* \"#utility.yul\":1592:1596   */\n      0x20\n        /* \"#utility.yul\":1586:1590   */\n      dup2\n        /* \"#utility.yul\":1582:1597   */\n      add\n        /* \"#utility.yul\":1574:1597   */\n      swap1\n      pop\n        /* \"#utility.yul\":1296:1604   */\n      swap2\n      swap1\n      pop\n      jump\t// out\n        /* \"#utility.yul\":1610:1758   */\n    tag_69:\n        /* \"#utility.yul\":1708:1714   */\n      dup3\n        /* \"#utility.yul\":1703:1706   */\n      dup2\n        /* \"#utility.yul\":1698:1701   */\n      dup4\n        /* \"#utility.yul\":1685:1715   */\n      calldatacopy\n        /* \"#utility.yul\":1749:1750   */\n      0x00\n        /* \"#utility.yul\":1740:1746   */\n      dup4\n        /* \"#utility.yul\":1735:1738   */\n      dup4\n        /* \"#utility.yul\":1731:1747   */\n      add\n        /* \"#utility.yul\":1724:1751   */\n      mstore\n        /* \"#utility.yul\":1610:1758   */\n      pop\n      pop\n      pop\n      jump\t// out\n        /* \"#utility.yul\":1764:2189   */\n    tag_70:\n        /* \"#utility.yul\":1842:1847   */\n      0x00\n        /* \"#utility.yul\":1867:1933   */\n      tag_128\n        /* \"#utility.yul\":1883:1932   */\n      tag_129\n        /* \"#utility.yul\":1925:1931   */\n      dup5\n        /* \"#utility.yul\":1883:1932   */\n      tag_68\n      jump\t// in\n    tag_129:\n        /* \"#utility.yul\":1867:1933   */\n      tag_67\n      jump\t// in\n    tag_128:\n        /* \"#utility.yul\":1858:1933   */\n      swap1\n      pop\n        /* \"#utility.yul\":1956:1962   */\n      dup3\n        /* \"#utility.yul\":1949:1954   */\n      dup2\n        /* \"#utility.yul\":1942:1963   */\n      mstore\n        /* \"#utility.yul\":1994:1998   */\n      0x20\n        /* \"#utility.yul\":1987:1992   */\n      dup2\n        /* \"#utility.yul\":1983:1999   */\n      add\n        /* \"#utility.yul\":2032:2035   */\n      dup5\n        /* \"#utility.yul\":2023:2029   */\n      dup5\n        /* \"#utility.yul\":2018:2021   */\n      dup5\n        /* \"#utility.yul\":2014:2030   */\n      add\n        /* \"#utility.yul\":2011:2036   */\n      gt\n        /* \"#utility.yul\":2008:2120   */\n      iszero\n      tag_130\n      jumpi\n        /* \"#utility.yul\":2039:2118   */\n      tag_131\n      tag_63\n      jump\t// in\n    tag_131:\n        /* \"#utility.yul\":2008:2120   */\n    tag_130:\n        /* \"#utility.yul\":2129:2183   */\n      tag_132\n        /* \"#utility.yul\":2176:2182   */\n      dup5\n        /* \"#utility.yul\":2171:2174   */\n      dup3\n        /* \"#utility.yul\":2166:2169   */\n      dup6\n        /* \"#utility.yul\":2129:2183   */\n      tag_69\n      jump\t// in\n    tag_132:\n        /* \"#utility.yul\":1848:2189   */\n      pop\n        /* \"#utility.yul\":1764:2189   */\n      swap4\n      swap3\n      pop\n      pop\n      pop\n      jump\t// out\n        /* \"#utility.yul\":2209:2549   */\n    tag_71:\n        /* \"#utility.yul\":2265:2270   */\n      0x00\n        /* \"#utility.yul\":2314:2317   */\n      dup3\n        /* \"#utility.yul\":2307:2311   */\n      0x1f\n        /* \"#utility.yul\":2299:2305   */\n      dup4\n        /* \"#utility.yul\":2295:2312   */\n      add\n        /* \"#utility.yul\":2291:2318   */\n      slt\n        /* \"#utility.yul\":2281:2403   */\n      tag_134\n      jumpi\n        /* \"#utility.yul\":2322:2401   */\n      tag_135\n      tag_62\n      jump\t// in\n    tag_135:\n        /* \"#utility.yul\":2281:2403   */\n    tag_134:\n        /* \"#utility.yul\":2439:2445   */\n      dup2\n        /* \"#utility.yul\":2426:2446   */\n      calldataload\n        /* \"#utility.yul\":2464:2543   */\n      tag_136\n        /* \"#utility.yul\":2539:2542   */\n      dup5\n        /* \"#utility.yul\":2531:2537   */\n      dup3\n        /* \"#utility.yul\":2524:2528   */\n      0x20\n        /* \"#utility.yul\":2516:2522   */\n      dup7\n        /* \"#utility.yul\":2512:2529   */\n      add\n        /* \"#utility.yul\":2464:2543   */\n      tag_70\n      jump\t// in\n    tag_136:\n        /* \"#utility.yul\":2455:2543   */\n      swap2\n      pop\n        /* \"#utility.yul\":2271:2549   */\n      pop\n        /* \"#utility.yul\":2209:2549   */\n      swap3\n      swap2\n      pop\n      pop\n      jump\t// out\n        /* \"#utility.yul\":2555:3064   */\n    tag_9:\n        /* \"#utility.yul\":2624:2630   */\n      0x00\n        /* \"#utility.yul\":2673:2675   */\n      0x20\n        /* \"#utility.yul\":2661:2670   */\n      dup3\n        /* \"#utility.yul\":2652:2659   */\n      dup5\n        /* \"#utility.yul\":2648:2671   */\n      sub\n        /* \"#utility.yul\":2644:2676   */\n      slt\n        /* \"#utility.yul\":2641:2760   */\n      iszero\n      tag_138\n      jumpi\n        /* \"#utility.yul\":2679:2758   */\n      tag_139\n      tag_60\n      jump\t// in\n    tag_139:\n        /* \"#utility.yul\":2641:2760   */\n    tag_138:\n        /* \"#utility.yul\":2827:2828   */\n      0x00\n        /* \"#utility.yul\":2816:2825   */\n      dup3\n        /* \"#utility.yul\":2812:2829   */\n      add\n        /* \"#utility.yul\":2799:2830   */\n      calldataload\n        /* \"#utility.yul\":2857:2875   */\n      0xffffffffffffffff\n        /* \"#utility.yul\":2849:2855   */\n      dup2\n        /* \"#utility.yul\":2846:2876   */\n      gt\n        /* \"#utility.yul\":2843:2960   */\n      iszero\n      tag_140\n      jumpi\n        /* \"#utility.yul\":2879:2958   */\n      tag_141\n      tag_61\n      jump\t// in\n    tag_141:\n        /* \"#utility.yul\":2843:2960   */\n    tag_140:\n        /* \"#utility.yul\":2984:3047   */\n      tag_142\n        /* \"#utility.yul\":3039:3046   */\n      dup5\n        /* \"#utility.yul\":3030:3036   */\n      dup3\n        /* \"#utility.yul\":3019:3028   */\n      dup6\n        /* \"#utility.yul\":3015:3037   */\n      add\n        /* \"#utility.yul\":2984:3047   */\n      tag_71\n      jump\t// in\n    tag_142:\n        /* \"#utility.yul\":2974:3047   */\n      swap2\n      pop\n        /* \"#utility.yul\":2770:3057   */\n      pop\n        /* \"#utility.yul\":2555:3064   */\n      swap3\n      swap2\n      pop\n      pop\n      jump\t// out\n        /* \"#utility.yul\":3070:3169   */\n    tag_72:\n        /* \"#utility.yul\":3122:3128   */\n      0x00\n        /* \"#utility.yul\":3156:3161   */\n      dup2\n        /* \"#utility.yul\":3150:3162   */\n      mload\n        /* \"#utility.yul\":3140:3162   */\n      swap1\n      pop\n        /* \"#utility.yul\":3070:3169   */\n      swap2\n      swap1\n      pop\n      jump\t// out\n        /* \"#utility.yul\":3175:3334   */\n    tag_73:\n        /* \"#utility.yul\":3249:3260   */\n      0x00\n        /* \"#utility.yul\":3283:3289   */\n      dup3\n        /* \"#utility.yul\":3278:3281   */\n      dup3\n        /* \"#utility.yul\":3271:3290   */\n      mstore\n        /* \"#utility.yul\":3323:3327   */\n      0x20\n        /* \"#utility.yul\":3318:3321   */\n      dup3\n        /* \"#utility.yul\":3314:3328   */\n      add\n        /* \"#utility.yul\":3299:3328   */\n      swap1\n      pop\n        /* \"#utility.yul\":3175:3334   */\n      swap3\n      swap2\n      pop\n      pop\n      jump\t// out\n        /* \"#utility.yul\":3340:3479   */\n    tag_74:\n        /* \"#utility.yul\":3429:3435   */\n      dup3\n        /* \"#utility.yul\":3424:3427   */\n      dup2\n        /* \"#utility.yul\":3419:3422   */\n      dup4\n        /* \"#utility.yul\":3413:3436   */\n      mcopy\n        /* \"#utility.yul\":3470:3471   */\n      0x00\n        /* \"#utility.yul\":3461:3467   */\n      dup4\n        /* \"#utility.yul\":3456:3459   */\n      dup4\n        /* \"#utility.yul\":3452:3468   */\n      add\n        /* \"#utility.yul\":3445:3472   */\n      mstore\n        /* \"#utility.yul\":3340:3479   */\n      pop\n      pop\n      pop\n      jump\t// out\n        /* \"#utility.yul\":3485:3842   */\n    tag_75:\n        /* \"#utility.yul\":3563:3566   */\n      0x00\n        /* \"#utility.yul\":3591:3630   */\n      tag_147\n        /* \"#utility.yul\":3624:3629   */\n      dup3\n        /* \"#utility.yul\":3591:3630   */\n      tag_72\n      jump\t// in\n    tag_147:\n        /* \"#utility.yul\":3646:3707   */\n      tag_148\n        /* \"#utility.yul\":3700:3706   */\n      dup2\n        /* \"#utility.yul\":3695:3698   */\n      dup6\n        /* \"#utility.yul\":3646:3707   */\n      tag_73\n      jump\t// in\n    tag_148:\n        /* \"#utility.yul\":3639:3707   */\n      swap4\n      pop\n        /* \"#utility.yul\":3716:3781   */\n      tag_149\n        /* \"#utility.yul\":3774:3780   */\n      dup2\n        /* \"#utility.yul\":3769:3772   */\n      dup6\n        /* \"#utility.yul\":3762:3766   */\n      0x20\n        /* \"#utility.yul\":3755:3760   */\n      dup7\n        /* \"#utility.yul\":3751:3767   */\n      add\n        /* \"#utility.yul\":3716:3781   */\n      tag_74\n      jump\t// in\n    tag_149:\n        /* \"#utility.yul\":3806:3835   */\n      tag_150\n        /* \"#utility.yul\":3828:3834   */\n      dup2\n        /* \"#utility.yul\":3806:3835   */\n      tag_64\n      jump\t// in\n    tag_150:\n        /* \"#utility.yul\":3801:3804   */\n      dup5\n        /* \"#utility.yul\":3797:3836   */\n      add\n        /* \"#utility.yul\":3790:3836   */\n      swap2\n      pop\n        /* \"#utility.yul\":3567:3842   */\n      pop\n        /* \"#utility.yul\":3485:3842   */\n      swap3\n      swap2\n      pop\n      pop\n      jump\t// out\n        /* \"#utility.yul\":3848:3925   */\n    tag_76:\n        /* \"#utility.yul\":3885:3892   */\n      0x00\n        /* \"#utility.yul\":3914:3919   */\n      dup2\n        /* \"#utility.yul\":3903:3919   */\n      swap1\n      pop\n        /* \"#utility.yul\":3848:3925   */\n      swap2\n      swap1\n      pop\n      jump\t// out\n        /* \"#utility.yul\":3931:4039   */\n    tag_77:\n        /* \"#utility.yul\":4008:4032   */\n      tag_153\n        /* \"#utility.yul\":4026:4031   */\n      dup2\n        /* \"#utility.yul\":4008:4032   */\n      tag_76\n      jump\t// in\n    tag_153:\n        /* \"#utility.yul\":4003:4006   */\n      dup3\n        /* \"#utility.yul\":3996:4033   */\n      mstore\n        /* \"#utility.yul\":3931:4039   */\n      pop\n      pop\n      jump\t// out\n        /* \"#utility.yul\":4045:4135   */\n    tag_78:\n        /* \"#utility.yul\":4079:4086   */\n      0x00\n        /* \"#utility.yul\":4122:4127   */\n      dup2\n        /* \"#utility.yul\":4115:4128   */\n      iszero\n        /* \"#utility.yul\":4108:4129   */\n      iszero\n        /* \"#utility.yul\":4097:4129   */\n      swap1\n      pop\n        /* \"#utility.yul\":4045:4135   */\n      swap2\n      swap1\n      pop\n      jump\t// out\n        /* \"#utility.yul\":4141:4240   */\n    tag_79:\n        /* \"#utility.yul\":4212:4233   */\n      tag_156\n        /* \"#utility.yul\":4227:4232   */\n      dup2\n        /* \"#utility.yul\":4212:4233   */\n      tag_78\n      jump\t// in\n    tag_156:\n        /* \"#utility.yul\":4207:4210   */\n      dup3\n        /* \"#utility.yul\":4200:4234   */\n      mstore\n        /* \"#utility.yul\":4141:4240   */\n      pop\n      pop\n      jump\t// out\n        /* \"#utility.yul\":4320:5114   */\n    tag_80:\n        /* \"#utility.yul\":4435:4438   */\n      0x00\n        /* \"#utility.yul\":4471:4475   */\n      0x60\n        /* \"#utility.yul\":4466:4469   */\n      dup4\n        /* \"#utility.yul\":4462:4476   */\n      add\n        /* \"#utility.yul\":4573:4577   */\n      0x00\n        /* \"#utility.yul\":4566:4571   */\n      dup4\n        /* \"#utility.yul\":4562:4578   */\n      add\n        /* \"#utility.yul\":4556:4579   */\n      mload\n        /* \"#utility.yul\":4626:4629   */\n      dup5\n        /* \"#utility.yul\":4620:4624   */\n      dup3\n        /* \"#utility.yul\":4616:4630   */\n      sub\n        /* \"#utility.yul\":4609:4613   */\n      0x00\n        /* \"#utility.yul\":4604:4607   */\n      dup7\n        /* \"#utility.yul\":4600:4614   */\n      add\n        /* \"#utility.yul\":4593:4631   */\n      mstore\n        /* \"#utility.yul\":4652:4725   */\n      tag_158\n        /* \"#utility.yul\":4720:4724   */\n      dup3\n        /* \"#utility.yul\":4706:4718   */\n      dup3\n        /* \"#utility.yul\":4652:4725   */\n      tag_75\n      jump\t// in\n    tag_158:\n        /* \"#utility.yul\":4644:4725   */\n      swap2\n      pop\n        /* \"#utility.yul\":4486:4736   */\n      pop\n        /* \"#utility.yul\":4821:4825   */\n      0x20\n        /* \"#utility.yul\":4814:4819   */\n      dup4\n        /* \"#utility.yul\":4810:4826   */\n      add\n        /* \"#utility.yul\":4804:4827   */\n      mload\n        /* \"#utility.yul\":4840:4903   */\n      tag_159\n        /* \"#utility.yul\":4897:4901   */\n      0x20\n        /* \"#utility.yul\":4892:4895   */\n      dup7\n        /* \"#utility.yul\":4888:4902   */\n      add\n        /* \"#utility.yul\":4874:4886   */\n      dup3\n        /* \"#utility.yul\":4840:4903   */\n      tag_77\n      jump\t// in\n    tag_159:\n        /* \"#utility.yul\":4746:4913   */\n      pop\n        /* \"#utility.yul\":5001:5005   */\n      0x40\n        /* \"#utility.yul\":4994:4999   */\n      dup4\n        /* \"#utility.yul\":4990:5006   */\n      add\n        /* \"#utility.yul\":4984:5007   */\n      mload\n        /* \"#utility.yul\":5020:5077   */\n      tag_160\n        /* \"#utility.yul\":5071:5075   */\n      0x40\n        /* \"#utility.yul\":5066:5069   */\n      dup7\n        /* \"#utility.yul\":5062:5076   */\n      add\n        /* \"#utility.yul\":5048:5060   */\n      dup3\n        /* \"#utility.yul\":5020:5077   */\n      tag_79\n      jump\t// in\n    tag_160:\n        /* \"#utility.yul\":4923:5087   */\n      pop\n        /* \"#utility.yul\":5104:5108   */\n      dup1\n        /* \"#utility.yul\":5097:5108   */\n      swap2\n      pop\n        /* \"#utility.yul\":4440:5114   */\n      pop\n        /* \"#utility.yul\":4320:5114   */\n      swap3\n      swap2\n      pop\n      pop\n      jump\t// out\n        /* \"#utility.yul\":5120:5485   */\n    tag_15:\n        /* \"#utility.yul\":5259:5263   */\n      0x00\n        /* \"#utility.yul\":5297:5299   */\n      0x20\n        /* \"#utility.yul\":5286:5295   */\n      dup3\n        /* \"#utility.yul\":5282:5300   */\n      add\n        /* \"#utility.yul\":5274:5300   */\n      swap1\n      pop\n        /* \"#utility.yul\":5346:5355   */\n      dup2\n        /* \"#utility.yul\":5340:5344   */\n      dup2\n        /* \"#utility.yul\":5336:5356   */\n      sub\n        /* \"#utility.yul\":5332:5333   */\n      0x00\n        /* \"#utility.yul\":5321:5330   */\n      dup4\n        /* \"#utility.yul\":5317:5334   */\n      add\n        /* \"#utility.yul\":5310:5357   */\n      mstore\n        /* \"#utility.yul\":5374:5478   */\n      tag_162\n        /* \"#utility.yul\":5473:5477   */\n      dup2\n        /* \"#utility.yul\":5464:5470   */\n      dup5\n        /* \"#utility.yul\":5374:5478   */\n      tag_80\n      jump\t// in\n    tag_162:\n        /* \"#utility.yul\":5366:5478   */\n      swap1\n      pop\n        /* \"#utility.yul\":5120:5485   */\n      swap3\n      swap2\n      pop\n      pop\n      jump\t// out\n        /* \"#utility.yul\":5491:5613   */\n    tag_81:\n        /* \"#utility.yul\":5564:5588   */\n      tag_164\n        /* \"#utility.yul\":5582:5587   */\n      dup2\n        /* \"#utility.yul\":5564:5588   */\n      tag_76\n      jump\t// in\n    tag_164:\n        /* \"#utility.yul\":5557:5562   */\n      dup2\n        /* \"#utility.yul\":5554:5589   */\n      eq\n        /* \"#utility.yul\":5544:5607   */\n      tag_165\n      jumpi\n        /* \"#utility.yul\":5603:5604   */\n      0x00\n        /* \"#utility.yul\":5600:5601   */\n      0x00\n        /* \"#utility.yul\":5593:5605   */\n      revert\n        /* \"#utility.yul\":5544:5607   */\n    tag_165:\n        /* \"#utility.yul\":5491:5613   */\n      pop\n      jump\t// out\n        /* \"#utility.yul\":5619:5758   */\n    tag_82:\n        /* \"#utility.yul\":5665:5670   */\n      0x00\n        /* \"#utility.yul\":5703:5709   */\n      dup2\n        /* \"#utility.yul\":5690:5710   */\n      calldataload\n        /* \"#utility.yul\":5681:5710   */\n      swap1\n      pop\n        /* \"#utility.yul\":5719:5752   */\n      tag_167\n        /* \"#utility.yul\":5746:5751   */\n      dup2\n        /* \"#utility.yul\":5719:5752   */\n      tag_81\n      jump\t// in\n    tag_167:\n        /* \"#utility.yul\":5619:5758   */\n      swap3\n      swap2\n      pop\n      pop\n      jump\t// out\n        /* \"#utility.yul\":5764:6418   */\n    tag_18:\n        /* \"#utility.yul\":5842:5848   */\n      0x00\n        /* \"#utility.yul\":5850:5856   */\n      0x00\n        /* \"#utility.yul\":5899:5901   */\n      0x40\n        /* \"#utility.yul\":5887:5896   */\n      dup4\n        /* \"#utility.yul\":5878:5885   */\n      dup6\n        /* \"#utility.yul\":5874:5897   */\n      sub\n        /* \"#utility.yul\":5870:5902   */\n      slt\n        /* \"#utility.yul\":5867:5986   */\n      iszero\n      tag_169\n      jumpi\n        /* \"#utility.yul\":5905:5984   */\n      tag_170\n      tag_60\n      jump\t// in\n    tag_170:\n        /* \"#utility.yul\":5867:5986   */\n    tag_169:\n        /* \"#utility.yul\":6053:6054   */\n      0x00\n        /* \"#utility.yul\":6042:6051   */\n      dup4\n        /* \"#utility.yul\":6038:6055   */\n      add\n        /* \"#utility.yul\":6025:6056   */\n      calldataload\n        /* \"#utility.yul\":6083:6101   */\n      0xffffffffffffffff\n        /* \"#utility.yul\":6075:6081   */\n      dup2\n        /* \"#utility.yul\":6072:6102   */\n      gt\n        /* \"#utility.yul\":6069:6186   */\n      iszero\n      tag_171\n      jumpi\n        /* \"#utility.yul\":6105:6184   */\n      tag_172\n      tag_61\n      jump\t// in\n    tag_172:\n        /* \"#utility.yul\":6069:6186   */\n    tag_171:\n        /* \"#utility.yul\":6210:6273   */\n      tag_173\n        /* \"#utility.yul\":6265:6272   */\n      dup6\n        /* \"#utility.yul\":6256:6262   */\n      dup3\n        /* \"#utility.yul\":6245:6254   */\n      dup7\n        /* \"#utility.yul\":6241:6263   */\n      add\n        /* \"#utility.yul\":6210:6273   */\n      tag_71\n      jump\t// in\n    tag_173:\n        /* \"#utility.yul\":6200:6273   */\n      swap3\n      pop\n        /* \"#utility.yul\":5996:6283   */\n      pop\n        /* \"#utility.yul\":6322:6324   */\n      0x20\n        /* \"#utility.yul\":6348:6401   */\n      tag_174\n        /* \"#utility.yul\":6393:6400   */\n      dup6\n        /* \"#utility.yul\":6384:6390   */\n      dup3\n        /* \"#utility.yul\":6373:6382   */\n      dup7\n        /* \"#utility.yul\":6369:6391   */\n      add\n        /* \"#utility.yul\":6348:6401   */\n      tag_82\n      jump\t// in\n    tag_174:\n        /* \"#utility.yul\":6338:6401   */\n      swap2\n      pop\n        /* \"#utility.yul\":6293:6411   */\n      pop\n        /* \"#utility.yul\":5764:6418   */\n      swap3\n      pop\n      swap3\n      swap1\n      pop\n      jump\t// out\n        /* \"#utility.yul\":6424:6593   */\n    tag_83:\n        /* \"#utility.yul\":6508:6519   */\n      0x00\n        /* \"#utility.yul\":6542:6548   */\n      dup3\n        /* \"#utility.yul\":6537:6540   */\n      dup3\n        /* \"#utility.yul\":6530:6549   */\n      mstore\n        /* \"#utility.yul\":6582:6586   */\n      0x20\n        /* \"#utility.yul\":6577:6580   */\n      dup3\n        /* \"#utility.yul\":6573:6587   */\n      add\n        /* \"#utility.yul\":6558:6587   */\n      swap1\n      pop\n        /* \"#utility.yul\":6424:6593   */\n      swap3\n      swap2\n      pop\n      pop\n      jump\t// out\n        /* \"#utility.yul\":6599:6976   */\n    tag_84:\n        /* \"#utility.yul\":6687:6690   */\n      0x00\n        /* \"#utility.yul\":6715:6754   */\n      tag_177\n        /* \"#utility.yul\":6748:6753   */\n      dup3\n        /* \"#utility.yul\":6715:6754   */\n      tag_72\n      jump\t// in\n    tag_177:\n        /* \"#utility.yul\":6770:6841   */\n      tag_178\n        /* \"#utility.yul\":6834:6840   */\n      dup2\n        /* \"#utility.yul\":6829:6832   */\n      dup6\n        /* \"#utility.yul\":6770:6841   */\n      tag_83\n      jump\t// in\n    tag_178:\n        /* \"#utility.yul\":6763:6841   */\n      swap4\n      pop\n        /* \"#utility.yul\":6850:6915   */\n      tag_179\n        /* \"#utility.yul\":6908:6914   */\n      dup2\n        /* \"#utility.yul\":6903:6906   */\n      dup6\n        /* \"#utility.yul\":6896:6900   */\n      0x20\n        /* \"#utility.yul\":6889:6894   */\n      dup7\n        /* \"#utility.yul\":6885:6901   */\n      add\n        /* \"#utility.yul\":6850:6915   */\n      tag_74\n      jump\t// in\n    tag_179:\n        /* \"#utility.yul\":6940:6969   */\n      tag_180\n        /* \"#utility.yul\":6962:6968   */\n      dup2\n        /* \"#utility.yul\":6940:6969   */\n      tag_64\n      jump\t// in\n    tag_180:\n        /* \"#utility.yul\":6935:6938   */\n      dup5\n        /* \"#utility.yul\":6931:6970   */\n      add\n        /* \"#utility.yul\":6924:6970   */\n      swap2\n      pop\n        /* \"#utility.yul\":6691:6976   */\n      pop\n        /* \"#utility.yul\":6599:6976   */\n      swap3\n      swap2\n      pop\n      pop\n      jump\t// out\n        /* \"#utility.yul\":6982:7100   */\n    tag_85:\n        /* \"#utility.yul\":7069:7093   */\n      tag_182\n        /* \"#utility.yul\":7087:7092   */\n      dup2\n        /* \"#utility.yul\":7069:7093   */\n      tag_76\n      jump\t// in\n    tag_182:\n        /* \"#utility.yul\":7064:7067   */\n      dup3\n        /* \"#utility.yul\":7057:7094   */\n      mstore\n        /* \"#utility.yul\":6982:7100   */\n      pop\n      pop\n      jump\t// out\n        /* \"#utility.yul\":7106:7215   */\n    tag_86:\n        /* \"#utility.yul\":7187:7208   */\n      tag_184\n        /* \"#utility.yul\":7202:7207   */\n      dup2\n        /* \"#utility.yul\":7187:7208   */\n      tag_78\n      jump\t// in\n    tag_184:\n        /* \"#utility.yul\":7182:7185   */\n      dup3\n        /* \"#utility.yul\":7175:7209   */\n      mstore\n        /* \"#utility.yul\":7106:7215   */\n      pop\n      pop\n      jump\t// out\n        /* \"#utility.yul\":7221:7742   */\n    tag_24:\n        /* \"#utility.yul\":7384:7388   */\n      0x00\n        /* \"#utility.yul\":7422:7424   */\n      0x60\n        /* \"#utility.yul\":7411:7420   */\n      dup3\n        /* \"#utility.yul\":7407:7425   */\n      add\n        /* \"#utility.yul\":7399:7425   */\n      swap1\n      pop\n        /* \"#utility.yul\":7471:7480   */\n      dup2\n        /* \"#utility.yul\":7465:7469   */\n      dup2\n        /* \"#utility.yul\":7461:7481   */\n      sub\n        /* \"#utility.yul\":7457:7458   */\n      0x00\n        /* \"#utility.yul\":7446:7455   */\n      dup4\n        /* \"#utility.yul\":7442:7459   */\n      add\n        /* \"#utility.yul\":7435:7482   */\n      mstore\n        /* \"#utility.yul\":7499:7577   */\n      tag_186\n        /* \"#utility.yul\":7572:7576   */\n      dup2\n        /* \"#utility.yul\":7563:7569   */\n      dup7\n        /* \"#utility.yul\":7499:7577   */\n      tag_84\n      jump\t// in\n    tag_186:\n        /* \"#utility.yul\":7491:7577   */\n      swap1\n      pop\n        /* \"#utility.yul\":7587:7659   */\n      tag_187\n        /* \"#utility.yul\":7655:7657   */\n      0x20\n        /* \"#utility.yul\":7644:7653   */\n      dup4\n        /* \"#utility.yul\":7640:7658   */\n      add\n        /* \"#utility.yul\":7631:7637   */\n      dup6\n        /* \"#utility.yul\":7587:7659   */\n      tag_85\n      jump\t// in\n    tag_187:\n        /* \"#utility.yul\":7669:7735   */\n      tag_188\n        /* \"#utility.yul\":7731:7733   */\n      0x40\n        /* \"#utility.yul\":7720:7729   */\n      dup4\n        /* \"#utility.yul\":7716:7734   */\n      add\n        /* \"#utility.yul\":7707:7713   */\n      dup5\n        /* \"#utility.yul\":7669:7735   */\n      tag_86\n      jump\t// in\n    tag_188:\n        /* \"#utility.yul\":7221:7742   */\n      swap5\n      swap4\n      pop\n      pop\n      pop\n      pop\n      jump\t// out\n        /* \"#utility.yul\":7748:7896   */\n    tag_87:\n        /* \"#utility.yul\":7850:7861   */\n      0x00\n        /* \"#utility.yul\":7887:7890   */\n      dup2\n        /* \"#utility.yul\":7872:7890   */\n      swap1\n      pop\n        /* \"#utility.yul\":7748:7896   */\n      swap3\n      swap2\n      pop\n      pop\n      jump\t// out\n        /* \"#utility.yul\":7902:8292   */\n    tag_88:\n        /* \"#utility.yul\":8008:8011   */\n      0x00\n        /* \"#utility.yul\":8036:8075   */\n      tag_191\n        /* \"#utility.yul\":8069:8074   */\n      dup3\n        /* \"#utility.yul\":8036:8075   */\n      tag_72\n      jump\t// in\n    tag_191:\n        /* \"#utility.yul\":8091:8180   */\n      tag_192\n        /* \"#utility.yul\":8173:8179   */\n      dup2\n        /* \"#utility.yul\":8168:8171   */\n      dup6\n        /* \"#utility.yul\":8091:8180   */\n      tag_87\n      jump\t// in\n    tag_192:\n        /* \"#utility.yul\":8084:8180   */\n      swap4\n      pop\n        /* \"#utility.yul\":8189:8254   */\n      tag_193\n        /* \"#utility.yul\":8247:8253   */\n      dup2\n        /* \"#utility.yul\":8242:8245   */\n      dup6\n        /* \"#utility.yul\":8235:8239   */\n      0x20\n        /* \"#utility.yul\":8228:8233   */\n      dup7\n        /* \"#utility.yul\":8224:8240   */\n      add\n        /* \"#utility.yul\":8189:8254   */\n      tag_74\n      jump\t// in\n    tag_193:\n        /* \"#utility.yul\":8279:8285   */\n      dup1\n        /* \"#utility.yul\":8274:8277   */\n      dup5\n        /* \"#utility.yul\":8270:8286   */\n      add\n        /* \"#utility.yul\":8263:8286   */\n      swap2\n      pop\n        /* \"#utility.yul\":8012:8292   */\n      pop\n        /* \"#utility.yul\":7902:8292   */\n      swap3\n      swap2\n      pop\n      pop\n      jump\t// out\n        /* \"#utility.yul\":8298:8573   */\n    tag_27:\n        /* \"#utility.yul\":8430:8433   */\n      0x00\n        /* \"#utility.yul\":8452:8547   */\n      tag_195\n        /* \"#utility.yul\":8543:8546   */\n      dup3\n        /* \"#utility.yul\":8534:8540   */\n      dup5\n        /* \"#utility.yul\":8452:8547   */\n      tag_88\n      jump\t// in\n    tag_195:\n        /* \"#utility.yul\":8445:8547   */\n      swap2\n      pop\n        /* \"#utility.yul\":8564:8567   */\n      dup2\n        /* \"#utility.yul\":8557:8567   */\n      swap1\n      pop\n        /* \"#utility.yul\":8298:8573   */\n      swap3\n      swap2\n      pop\n      pop\n      jump\t// out\n        /* \"#utility.yul\":8579:8756   */\n    tag_89:\n        /* \"#utility.yul\":8719:8748   */\n      0x437573746f6d657220416c726561647920526567697374657265640000000000\n        /* \"#utility.yul\":8715:8716   */\n      0x00\n        /* \"#utility.yul\":8707:8713   */\n      dup3\n        /* \"#utility.yul\":8703:8717   */\n      add\n        /* \"#utility.yul\":8696:8749   */\n      mstore\n        /* \"#utility.yul\":8579:8756   */\n      pop\n      jump\t// out\n        /* \"#utility.yul\":8762:9128   */\n    tag_90:\n        /* \"#utility.yul\":8904:8907   */\n      0x00\n        /* \"#utility.yul\":8925:8992   */\n      tag_198\n        /* \"#utility.yul\":8989:8991   */\n      0x1b\n        /* \"#utility.yul\":8984:8987   */\n      dup4\n        /* \"#utility.yul\":8925:8992   */\n      tag_83\n      jump\t// in\n    tag_198:\n        /* \"#utility.yul\":8918:8992   */\n      swap2\n      pop\n        /* \"#utility.yul\":9001:9094   */\n      tag_199\n        /* \"#utility.yul\":9090:9093   */\n      dup3\n        /* \"#utility.yul\":9001:9094   */\n      tag_89\n      jump\t// in\n    tag_199:\n        /* \"#utility.yul\":9119:9121   */\n      0x20\n        /* \"#utility.yul\":9114:9117   */\n      dup3\n        /* \"#utility.yul\":9110:9122   */\n      add\n        /* \"#utility.yul\":9103:9122   */\n      swap1\n      pop\n        /* \"#utility.yul\":8762:9128   */\n      swap2\n      swap1\n      pop\n      jump\t// out\n        /* \"#utility.yul\":9134:9553   */\n    tag_30:\n        /* \"#utility.yul\":9300:9304   */\n      0x00\n        /* \"#utility.yul\":9338:9340   */\n      0x20\n        /* \"#utility.yul\":9327:9336   */\n      dup3\n        /* \"#utility.yul\":9323:9341   */\n      add\n        /* \"#utility.yul\":9315:9341   */\n      swap1\n      pop\n        /* \"#utility.yul\":9387:9396   */\n      dup2\n        /* \"#utility.yul\":9381:9385   */\n      dup2\n        /* \"#utility.yul\":9377:9397   */\n      sub\n        /* \"#utility.yul\":9373:9374   */\n      0x00\n        /* \"#utility.yul\":9362:9371   */\n      dup4\n        /* \"#utility.yul\":9358:9375   */\n      add\n        /* \"#utility.yul\":9351:9398   */\n      mstore\n        /* \"#utility.yul\":9415:9546   */\n      tag_201\n        /* \"#utility.yul\":9541:9545   */\n      dup2\n        /* \"#utility.yul\":9415:9546   */\n      tag_90\n      jump\t// in\n    tag_201:\n        /* \"#utility.yul\":9407:9546   */\n      swap1\n      pop\n        /* \"#utility.yul\":9134:9553   */\n      swap2\n      swap1\n      pop\n      jump\t// out\n        /* \"#utility.yul\":9559:9739   */\n    tag_91:\n        /* \"#utility.yul\":9607:9684   */\n      0x4e487b7100000000000000000000000000000000000000000000000000000000\n        /* \"#utility.yul\":9604:9605   */\n      0x00\n        /* \"#utility.yul\":9597:9685   */\n      mstore\n        /* \"#utility.yul\":9704:9708   */\n      0x22\n        /* \"#utility.yul\":9701:9702   */\n      0x04\n        /* \"#utility.yul\":9694:9709   */\n      mstore\n        /* \"#utility.yul\":9728:9732   */\n      0x24\n        /* \"#utility.yul\":9725:9726   */\n      0x00\n        /* \"#utility.yul\":9718:9733   */\n      revert\n        /* \"#utility.yul\":9745:10065   */\n    tag_41:\n        /* \"#utility.yul\":9789:9795   */\n      0x00\n        /* \"#utility.yul\":9826:9827   */\n      0x02\n        /* \"#utility.yul\":9820:9824   */\n      dup3\n        /* \"#utility.yul\":9816:9828   */\n      div\n        /* \"#utility.yul\":9806:9828   */\n      swap1\n      pop\n        /* \"#utility.yul\":9873:9874   */\n      0x01\n        /* \"#utility.yul\":9867:9871   */\n      dup3\n        /* \"#utility.yul\":9863:9875   */\n      and\n        /* \"#utility.yul\":9894:9912   */\n      dup1\n        /* \"#utility.yul\":9884:9965   */\n      tag_204\n      jumpi\n        /* \"#utility.yul\":9950:9954   */\n      0x7f\n        /* \"#utility.yul\":9942:9948   */\n      dup3\n        /* \"#utility.yul\":9938:9955   */\n      and\n        /* \"#utility.yul\":9928:9955   */\n      swap2\n      pop\n        /* \"#utility.yul\":9884:9965   */\n    tag_204:\n        /* \"#utility.yul\":10012:10014   */\n      0x20\n        /* \"#utility.yul\":10004:10010   */\n      dup3\n        /* \"#utility.yul\":10001:10015   */\n      lt\n        /* \"#utility.yul\":9981:9999   */\n      dup2\n        /* \"#utility.yul\":9978:10016   */\n      sub\n        /* \"#utility.yul\":9975:10059   */\n      tag_205\n      jumpi\n        /* \"#utility.yul\":10031:10049   */\n      tag_206\n      tag_91\n      jump\t// in\n    tag_206:\n        /* \"#utility.yul\":9975:10059   */\n    tag_205:\n        /* \"#utility.yul\":9796:10065   */\n      pop\n        /* \"#utility.yul\":9745:10065   */\n      swap2\n      swap1\n      pop\n      jump\t// out\n        /* \"#utility.yul\":10071:10212   */\n    tag_92:\n        /* \"#utility.yul\":10120:10124   */\n      0x00\n        /* \"#utility.yul\":10143:10146   */\n      dup2\n        /* \"#utility.yul\":10135:10146   */\n      swap1\n      pop\n        /* \"#utility.yul\":10166:10169   */\n      dup2\n        /* \"#utility.yul\":10163:10164   */\n      0x00\n        /* \"#utility.yul\":10156:10170   */\n      mstore\n        /* \"#utility.yul\":10200:10204   */\n      0x20\n        /* \"#utility.yul\":10197:10198   */\n      0x00\n        /* \"#utility.yul\":10187:10205   */\n      keccak256\n        /* \"#utility.yul\":10179:10205   */\n      swap1\n      pop\n        /* \"#utility.yul\":10071:10212   */\n      swap2\n      swap1\n      pop\n      jump\t// out\n        /* \"#utility.yul\":10218:10311   */\n    tag_93:\n        /* \"#utility.yul\":10255:10261   */\n      0x00\n        /* \"#utility.yul\":10302:10304   */\n      0x20\n        /* \"#utility.yul\":10297:10299   */\n      0x1f\n        /* \"#utility.yul\":10290:10295   */\n      dup4\n        /* \"#utility.yul\":10286:10300   */\n      add\n        /* \"#utility.yul\":10282:10305   */\n      div\n        /* \"#utility.yul\":10272:10305   */\n      swap1\n      pop\n        /* \"#utility.yul\":10218:10311   */\n      swap2\n      swap1\n      pop\n      jump\t// out\n        /* \"#utility.yul\":10317:10424   */\n    tag_94:\n        /* \"#utility.yul\":10361:10369   */\n      0x00\n        /* \"#utility.yul\":10411:10416   */\n      dup3\n        /* \"#utility.yul\":10405:10409   */\n      dup3\n        /* \"#utility.yul\":10401:10417   */\n      shl\n        /* \"#utility.yul\":10380:10417   */\n      swap1\n      pop\n        /* \"#utility.yul\":10317:10424   */\n      swap3\n      swap2\n      pop\n      pop\n      jump\t// out\n        /* \"#utility.yul\":10430:10823   */\n    tag_95:\n        /* \"#utility.yul\":10499:10505   */\n      0x00\n        /* \"#utility.yul\":10549:10550   */\n      0x08\n        /* \"#utility.yul\":10537:10547   */\n      dup4\n        /* \"#utility.yul\":10533:10551   */\n      mul\n        /* \"#utility.yul\":10572:10669   */\n      tag_211\n        /* \"#utility.yul\":10602:10668   */\n      0xffffffffffffffffffffffffffffffffffffffffffffffffffffffffffffffff\n        /* \"#utility.yul\":10591:10600   */\n      dup3\n        /* \"#utility.yul\":10572:10669   */\n      tag_94\n      jump\t// in\n    tag_211:\n        /* \"#utility.yul\":10690:10729   */\n      tag_212\n        /* \"#utility.yul\":10720:10728   */\n      dup7\n        /* \"#utility.yul\":10709:10718   */\n      dup4\n        /* \"#utility.yul\":10690:10729   */\n      tag_94\n      jump\t// in\n    tag_212:\n        /* \"#utility.yul\":10678:10729   */\n      swap6\n      pop\n        /* \"#utility.yul\":10762:10766   */\n      dup1\n        /* \"#utility.yul\":10758:10767   */\n      not\n        /* \"#utility.yul\":10751:10756   */\n      dup5\n        /* \"#utility.yul\":10747:10768   */\n      and\n        /* \"#utility.yul\":10738:10768   */\n      swap4\n      pop\n        /* \"#utility.yul\":10811:10815   */\n      dup1\n        /* \"#utility.yul\":10801:10809   */\n      dup7\n        /* \"#utility.yul\":10797:10816   */\n      and\n        /* \"#utility.yul\":10790:10795   */\n      dup5\n        /* \"#utility.yul\":10787:10817   */\n      or\n        /* \"#utility.yul\":10777:10817   */\n      swap3\n      pop\n        /* \"#utility.yul\":10506:10823   */\n      pop\n      pop\n        /* \"#utility.yul\":10430:10823   */\n      swap4\n      swap3\n      pop\n      pop\n      pop\n      jump\t// out\n        /* \"#utility.yul\":10829:10889   */\n    tag_96:\n        /* \"#utility.yul\":10857:10860   */\n      0x00\n        /* \"#utility.yul\":10878:10883   */\n      dup2\n        /* \"#utility.yul\":10871:10883   */\n      swap1\n      pop\n        /* \"#utility.yul\":10829:10889   */\n      swap2\n      swap1\n      pop\n      jump\t// out\n        /* \"#utility.yul\":10895:11037   */\n    tag_97:\n        /* \"#utility.yul\":10945:10954   */\n      0x00\n        /* \"#utility.yul\":10978:11031   */\n      tag_215\n        /* \"#utility.yul\":10996:11030   */\n      tag_216\n        /* \"#utility.yul\":11005:11029   */\n      tag_217\n        /* \"#utility.yul\":11023:11028   */\n      dup5\n        /* \"#utility.yul\":11005:11029   */\n      tag_76\n      jump\t// in\n    tag_217:\n        /* \"#utility.yul\":10996:11030   */\n      tag_96\n      jump\t// in\n    tag_216:\n        /* \"#utility.yul\":10978:11031   */\n      tag_76\n      jump\t// in\n    tag_215:\n        /* \"#utility.yul\":10965:11031   */\n      swap1\n      pop\n        /* \"#utility.yul\":10895:11037   */\n      swap2\n      swap1\n      pop\n      jump\t// out\n        /* \"#utility.yul\":11043:11118   */\n    tag_98:\n        /* \"#utility.yul\":11086:11089   */\n      0x00\n        /* \"#utility.yul\":11107:11112   */\n      dup2\n        /* \"#utility.yul\":11100:11112   */\n      swap1\n      pop\n        /* \"#utility.yul\":11043:11118   */\n      swap2\n      swap1\n      pop\n      jump\t// out\n        /* \"#utility.yul\":11124:11393   */\n    tag_99:\n        /* \"#utility.yul\":11234:11273   */\n      tag_220\n        /* \"#utility.yul\":11265:11272   */\n      dup4\n        /* \"#utility.yul\":11234:11273   */\n      tag_97\n      jump\t// in\n    tag_220:\n        /* \"#utility.yul\":11295:11386   */\n      tag_221\n        /* \"#utility.yul\":11344:11385   */\n      tag_222\n        /* \"#utility.yul\":11368:11384   */\n      dup3\n        /* \"#utility.yul\":11344:11385   */\n      tag_98\n      jump\t// in\n    tag_222:\n        /* \"#utility.yul\":11336:11342   */\n      dup5\n        /* \"#utility.yul\":11329:11333   */\n      dup5\n        /* \"#utility.yul\":11323:11334   */\n      sload\n        /* \"#utility.yul\":11295:11386   */\n      tag_95\n      jump\t// in\n    tag_221:\n        /* \"#utility.yul\":11289:11293   */\n      dup3\n        /* \"#utility.yul\":11282:11387   */\n      sstore\n        /* \"#utility.yul\":11200:11393   */\n      pop\n        /* \"#utility.yul\":11124:11393   */\n      pop\n      pop\n      pop\n      jump\t// out\n        /* \"#utility.yul\":11399:11472   */\n    tag_100:\n        /* \"#utility.yul\":11444:11447   */\n      0x00\n        /* \"#utility.yul\":11465:11466   */\n      0x00\n        /* \"#utility.yul\":11458:11466   */\n      swap1\n      pop\n        /* \"#utility.yul\":11399:11472   */\n      swap1\n      jump\t// out\n        /* \"#utility.yul\":11478:11667   */\n    tag_101:\n        /* \"#utility.yul\":11555:11587   */\n      tag_225\n      tag_100\n      jump\t// in\n    tag_225:\n        /* \"#utility.yul\":11596:11661   */\n      tag_226\n        /* \"#utility.yul\":11654:11660   */\n      dup2\n        /* \"#utility.yul\":11646:11652   */\n      dup5\n        /* \"#utility.yul\":11640:11644   */\n      dup5\n        /* \"#utility.yul\":11596:11661   */\n      tag_99\n      jump\t// in\n    tag_226:\n        /* \"#utility.yul\":11531:11667   */\n      pop\n        /* \"#utility.yul\":11478:11667   */\n      pop\n      pop\n      jump\t// out\n        /* \"#utility.yul\":11673:11859   */\n    tag_102:\n        /* \"#utility.yul\":11733:11853   */\n    tag_228:\n        /* \"#utility.yul\":11750:11753   */\n      dup2\n        /* \"#utility.yul\":11743:11748   */\n      dup2\n        /* \"#utility.yul\":11740:11754   */\n      lt\n        /* \"#utility.yul\":11733:11853   */\n      iszero\n      tag_230\n      jumpi\n        /* \"#utility.yul\":11804:11843   */\n      tag_231\n        /* \"#utility.yul\":11841:11842   */\n      0x00\n        /* \"#utility.yul\":11834:11839   */\n      dup3\n        /* \"#utility.yul\":11804:11843   */\n      tag_101\n      jump\t// in\n    tag_231:\n        /* \"#utility.yul\":11777:11778   */\n      0x01\n        /* \"#utility.yul\":11770:11775   */\n      dup2\n        /* \"#utility.yul\":11766:11779   */\n      add\n        /* \"#utility.yul\":11757:11779   */\n      swap1\n      pop\n        /* \"#utility.yul\":11733:11853   */\n      jump(tag_228)\n    tag_230:\n        /* \"#utility.yul\":11673:11859   */\n      pop\n      pop\n      jump\t// out\n        /* \"#utility.yul\":11865:12408   */\n    tag_103:\n        /* \"#utility.yul\":11966:11968   */\n      0x1f\n        /* \"#utility.yul\":11961:11964   */\n      dup3\n        /* \"#utility.yul\":11958:11969   */\n      gt\n        /* \"#utility.yul\":11955:12401   */\n      iszero\n      tag_233\n      jumpi\n        /* \"#utility.yul\":12000:12038   */\n      tag_234\n        /* \"#utility.yul\":12032:12037   */\n      dup2\n        /* \"#utility.yul\":12000:12038   */\n      tag_92\n      jump\t// in\n    tag_234:\n        /* \"#utility.yul\":12084:12113   */\n      tag_235\n        /* \"#utility.yul\":12102:12112   */\n      dup5\n        /* \"#utility.yul\":12084:12113   */\n      tag_93\n      jump\t// in\n    tag_235:\n        /* \"#utility.yul\":12074:12082   */\n      dup2\n        /* \"#utility.yul\":12070:12114   */\n      add\n        /* \"#utility.yul\":12267:12269   */\n      0x20\n        /* \"#utility.yul\":12255:12265   */\n      dup6\n        /* \"#utility.yul\":12252:12270   */\n      lt\n        /* \"#utility.yul\":12249:12298   */\n      iszero\n      tag_236\n      jumpi\n        /* \"#utility.yul\":12288:12296   */\n      dup2\n        /* \"#utility.yul\":12273:12296   */\n      swap1\n      pop\n        /* \"#utility.yul\":12249:12298   */\n    tag_236:\n        /* \"#utility.yul\":12311:12391   */\n      tag_237\n        /* \"#utility.yul\":12367:12389   */\n      tag_238\n        /* \"#utility.yul\":12385:12388   */\n      dup6\n        /* \"#utility.yul\":12367:12389   */\n      tag_93\n      jump\t// in\n    tag_238:\n        /* \"#utility.yul\":12357:12365   */\n      dup4\n        /* \"#utility.yul\":12353:12390   */\n      add\n        /* \"#utility.yul\":12340:12351   */\n      dup3\n        /* \"#utility.yul\":12311:12391   */\n      tag_102\n      jump\t// in\n    tag_237:\n        /* \"#utility.yul\":11970:12401   */\n      pop\n      pop\n        /* \"#utility.yul\":11955:12401   */\n    tag_233:\n        /* \"#utility.yul\":11865:12408   */\n      pop\n      pop\n      pop\n      jump\t// out\n        /* \"#utility.yul\":12414:12531   */\n    tag_104:\n        /* \"#utility.yul\":12468:12476   */\n      0x00\n        /* \"#utility.yul\":12518:12523   */\n      dup3\n        /* \"#utility.yul\":12512:12516   */\n      dup3\n        /* \"#utility.yul\":12508:12524   */\n      shr\n        /* \"#utility.yul\":12487:12524   */\n      swap1\n      pop\n        /* \"#utility.yul\":12414:12531   */\n      swap3\n      swap2\n      pop\n      pop\n      jump\t// out\n        /* \"#utility.yul\":12537:12706   */\n    tag_105:\n        /* \"#utility.yul\":12581:12587   */\n      0x00\n        /* \"#utility.yul\":12614:12665   */\n      tag_241\n        /* \"#utility.yul\":12662:12663   */\n      0x00\n        /* \"#utility.yul\":12658:12664   */\n      not\n        /* \"#utility.yul\":12650:12655   */\n      dup5\n        /* \"#utility.yul\":12647:12648   */\n      0x08\n        /* \"#utility.yul\":12643:12656   */\n      mul\n        /* \"#utility.yul\":12614:12665   */\n      tag_104\n      jump\t// in\n    tag_241:\n        /* \"#utility.yul\":12610:12666   */\n      not\n        /* \"#utility.yul\":12695:12699   */\n      dup1\n        /* \"#utility.yul\":12689:12693   */\n      dup4\n        /* \"#utility.yul\":12685:12700   */\n      and\n        /* \"#utility.yul\":12675:12700   */\n      swap2\n      pop\n        /* \"#utility.yul\":12588:12706   */\n      pop\n        /* \"#utility.yul\":12537:12706   */\n      swap3\n      swap2\n      pop\n      pop\n      jump\t// out\n        /* \"#utility.yul\":12711:13006   */\n    tag_106:\n        /* \"#utility.yul\":12787:12791   */\n      0x00\n        /* \"#utility.yul\":12933:12962   */\n      tag_243\n        /* \"#utility.yul\":12958:12961   */\n      dup4\n        /* \"#utility.yul\":12952:12956   */\n      dup4\n        /* \"#utility.yul\":12933:12962   */\n      tag_105\n      jump\t// in\n    tag_243:\n        /* \"#utility.yul\":12925:12962   */\n      swap2\n      pop\n        /* \"#utility.yul\":12995:12998   */\n      dup3\n        /* \"#utility.yul\":12992:12993   */\n      0x02\n        /* \"#utility.yul\":12988:12999   */\n      mul\n        /* \"#utility.yul\":12982:12986   */\n      dup3\n        /* \"#utility.yul\":12979:13000   */\n      or\n        /* \"#utility.yul\":12971:13000   */\n      swap1\n      pop\n        /* \"#utility.yul\":12711:13006   */\n      swap3\n      swap2\n      pop\n      pop\n      jump\t// out\n        /* \"#utility.yul\":13011:14406   */\n    tag_33:\n        /* \"#utility.yul\":13128:13165   */\n      tag_245\n        /* \"#utility.yul\":13161:13164   */\n      dup3\n        /* \"#utility.yul\":13128:13165   */\n      tag_72\n      jump\t// in\n    tag_245:\n        /* \"#utility.yul\":13230:13248   */\n      0xffffffffffffffff\n        /* \"#utility.yul\":13222:13228   */\n      dup2\n        /* \"#utility.yul\":13219:13249   */\n      gt\n        /* \"#utility.yul\":13216:13272   */\n      iszero\n      tag_246\n      jumpi\n        /* \"#utility.yul\":13252:13270   */\n      tag_247\n      tag_65\n      jump\t// in\n    tag_247:\n        /* \"#utility.yul\":13216:13272   */\n    tag_246:\n        /* \"#utility.yul\":13296:13334   */\n      tag_248\n        /* \"#utility.yul\":13328:13332   */\n      dup3\n        /* \"#utility.yul\":13322:13333   */\n      sload\n        /* \"#utility.yul\":13296:13334   */\n      tag_41\n      jump\t// in\n    tag_248:\n        /* \"#utility.yul\":13381:13448   */\n      tag_249\n        /* \"#utility.yul\":13441:13447   */\n      dup3\n        /* \"#utility.yul\":13433:13439   */\n      dup3\n        /* \"#utility.yul\":13427:13431   */\n      dup6\n        /* \"#utility.yul\":13381:13448   */\n      tag_103\n      jump\t// in\n    tag_249:\n        /* \"#utility.yul\":13475:13476   */\n      0x00\n        /* \"#utility.yul\":13499:13503   */\n      0x20\n        /* \"#utility.yul\":13486:13503   */\n      swap1\n      pop\n        /* \"#utility.yul\":13531:13533   */\n      0x1f\n        /* \"#utility.yul\":13523:13529   */\n      dup4\n        /* \"#utility.yul\":13520:13534   */\n      gt\n        /* \"#utility.yul\":13548:13549   */\n      0x01\n        /* \"#utility.yul\":13543:14161   */\n      dup2\n      eq\n      tag_251\n      jumpi\n        /* \"#utility.yul\":14205:14206   */\n      0x00\n        /* \"#utility.yul\":14222:14228   */\n      dup5\n        /* \"#utility.yul\":14219:14296   */\n      iszero\n      tag_252\n      jumpi\n        /* \"#utility.yul\":14271:14280   */\n      dup3\n        /* \"#utility.yul\":14266:14269   */\n      dup8\n        /* \"#utility.yul\":14262:14281   */\n      add\n        /* \"#utility.yul\":14256:14282   */\n      mload\n        /* \"#utility.yul\":14247:14282   */\n      swap1\n      pop\n        /* \"#utility.yul\":14219:14296   */\n    tag_252:\n        /* \"#utility.yul\":14322:14389   */\n      tag_253\n        /* \"#utility.yul\":14382:14388   */\n      dup6\n        /* \"#utility.yul\":14375:14380   */\n      dup3\n        /* \"#utility.yul\":14322:14389   */\n      tag_106\n      jump\t// in\n    tag_253:\n        /* \"#utility.yul\":14316:14320   */\n      dup7\n        /* \"#utility.yul\":14309:14390   */\n      sstore\n        /* \"#utility.yul\":14178:14400   */\n      pop\n        /* \"#utility.yul\":13513:14400   */\n      jump(tag_250)\n        /* \"#utility.yul\":13543:14161   */\n    tag_251:\n        /* \"#utility.yul\":13595:13599   */\n      0x1f\n        /* \"#utility.yul\":13591:13600   */\n      not\n        /* \"#utility.yul\":13583:13589   */\n      dup5\n        /* \"#utility.yul\":13579:13601   */\n      and\n        /* \"#utility.yul\":13629:13666   */\n      tag_254\n        /* \"#utility.yul\":13661:13665   */\n      dup7\n        /* \"#utility.yul\":13629:13666   */\n      tag_92\n      jump\t// in\n    tag_254:\n        /* \"#utility.yul\":13688:13689   */\n      0x00\n        /* \"#utility.yul\":13702:13910   */\n    tag_255:\n        /* \"#utility.yul\":13716:13723   */\n      dup3\n        /* \"#utility.yul\":13713:13714   */\n      dup2\n        /* \"#utility.yul\":13710:13724   */\n      lt\n        /* \"#utility.yul\":13702:13910   */\n      iszero\n      tag_257\n      jumpi\n        /* \"#utility.yul\":13795:13804   */\n      dup5\n        /* \"#utility.yul\":13790:13793   */\n      dup10\n        /* \"#utility.yul\":13786:13805   */\n      add\n        /* \"#utility.yul\":13780:13806   */\n      mload\n        /* \"#utility.yul\":13772:13778   */\n      dup3\n        /* \"#utility.yul\":13765:13807   */\n      sstore\n        /* \"#utility.yul\":13846:13847   */\n      0x01\n        /* \"#utility.yul\":13838:13844   */\n      dup3\n        /* \"#utility.yul\":13834:13848   */\n      add\n        /* \"#utility.yul\":13824:13848   */\n      swap2\n      pop\n        /* \"#utility.yul\":13893:13895   */\n      0x20\n        /* \"#utility.yul\":13882:13891   */\n      dup6\n        /* \"#utility.yul\":13878:13896   */\n      add\n        /* \"#utility.yul\":13865:13896   */\n      swap5\n      pop\n        /* \"#utility.yul\":13739:13743   */\n      0x20\n        /* \"#utility.yul\":13736:13737   */\n      dup2\n        /* \"#utility.yul\":13732:13744   */\n      add\n        /* \"#utility.yul\":13727:13744   */\n      swap1\n      pop\n        /* \"#utility.yul\":13702:13910   */\n      jump(tag_255)\n    tag_257:\n        /* \"#utility.yul\":13938:13944   */\n      dup7\n        /* \"#utility.yul\":13929:13936   */\n      dup4\n        /* \"#utility.yul\":13926:13945   */\n      lt\n        /* \"#utility.yul\":13923:14102   */\n      iszero\n      tag_258\n      jumpi\n        /* \"#utility.yul\":13996:14005   */\n      dup5\n        /* \"#utility.yul\":13991:13994   */\n      dup10\n        /* \"#utility.yul\":13987:14006   */\n      add\n        /* \"#utility.yul\":13981:14007   */\n      mload\n        /* \"#utility.yul\":14039:14087   */\n      tag_259\n        /* \"#utility.yul\":14081:14085   */\n      0x1f\n        /* \"#utility.yul\":14073:14079   */\n      dup10\n        /* \"#utility.yul\":14069:14086   */\n      and\n        /* \"#utility.yul\":14058:14067   */\n      dup3\n        /* \"#utility.yul\":14039:14087   */\n      tag_105\n      jump\t// in\n    tag_259:\n        /* \"#utility.yul\":14031:14037   */\n      dup4\n        /* \"#utility.yul\":14024:14088   */\n      sstore\n        /* \"#utility.yul\":13946:14102   */\n      pop\n        /* \"#utility.yul\":13923:14102   */\n    tag_258:\n        /* \"#utility.yul\":14148:14149   */\n      0x01\n        /* \"#utility.yul\":14144:14145   */\n      0x02\n        /* \"#utility.yul\":14136:14142   */\n      dup9\n        /* \"#utility.yul\":14132:14146   */\n      mul\n        /* \"#utility.yul\":14128:14150   */\n      add\n        /* \"#utility.yul\":14122:14126   */\n      dup9\n        /* \"#utility.yul\":14115:14151   */\n      sstore\n        /* \"#utility.yul\":13550:14161   */\n      pop\n      pop\n      pop\n        /* \"#utility.yul\":13513:14400   */\n    tag_250:\n      pop\n        /* \"#utility.yul\":13103:14406   */\n      pop\n      pop\n      pop\n        /* \"#utility.yul\":13011:14406   */\n      pop\n      pop\n      jump\t// out\n        /* \"#utility.yul\":14412:14725   */\n    tag_35:\n        /* \"#utility.yul\":14525:14529   */\n      0x00\n        /* \"#utility.yul\":14563:14565   */\n      0x20\n        /* \"#utility.yul\":14552:14561   */\n      dup3\n        /* \"#utility.yul\":14548:14566   */\n      add\n        /* \"#utility.yul\":14540:14566   */\n      swap1\n      pop\n        /* \"#utility.yul\":14612:14621   */\n      dup2\n        /* \"#utility.yul\":14606:14610   */\n      dup2\n        /* \"#utility.yul\":14602:14622   */\n      sub\n        /* \"#utility.yul\":14598:14599   */\n      0x00\n        /* \"#utility.yul\":14587:14596   */\n      dup4\n        /* \"#utility.yul\":14583:14600   */\n      add\n        /* \"#utility.yul\":14576:14623   */\n      mstore\n        /* \"#utility.yul\":14640:14718   */\n      tag_261\n        /* \"#utility.yul\":14713:14717   */\n      dup2\n        /* \"#utility.yul\":14704:14710   */\n      dup5\n        /* \"#utility.yul\":14640:14718   */\n      tag_84\n      jump\t// in\n    tag_261:\n        /* \"#utility.yul\":14632:14718   */\n      swap1\n      pop\n        /* \"#utility.yul\":14412:14725   */\n      swap3\n      swap2\n      pop\n      pop\n      jump\t// out\n        /* \"#utility.yul\":14731:15154   */\n    tag_53:\n        /* \"#utility.yul\":14872:14876   */\n      0x00\n        /* \"#utility.yul\":14910:14912   */\n      0x40\n        /* \"#utility.yul\":14899:14908   */\n      dup3\n        /* \"#utility.yul\":14895:14913   */\n      add\n        /* \"#utility.yul\":14887:14913   */\n      swap1\n      pop\n        /* \"#utility.yul\":14959:14968   */\n      dup2\n        /* \"#utility.yul\":14953:14957   */\n      dup2\n        /* \"#utility.yul\":14949:14969   */\n      sub\n        /* \"#utility.yul\":14945:14946   */\n      0x00\n        /* \"#utility.yul\":14934:14943   */\n      dup4\n        /* \"#utility.yul\":14930:14947   */\n      add\n        /* \"#utility.yul\":14923:14970   */\n      mstore\n        /* \"#utility.yul\":14987:15065   */\n      tag_263\n        /* \"#utility.yul\":15060:15064   */\n      dup2\n        /* \"#utility.yul\":15051:15057   */\n      dup6\n        /* \"#utility.yul\":14987:15065   */\n      tag_84\n      jump\t// in\n    tag_263:\n        /* \"#utility.yul\":14979:15065   */\n      swap1\n      pop\n        /* \"#utility.yul\":15075:15147   */\n      tag_264\n        /* \"#utility.yul\":15143:15145   */\n      0x20\n        /* \"#utility.yul\":15132:15141   */\n      dup4\n        /* \"#utility.yul\":15128:15146   */\n      add\n        /* \"#utility.yul\":15119:15125   */\n      dup5\n        /* \"#utility.yul\":15075:15147   */\n      tag_85\n      jump\t// in\n    tag_264:\n        /* \"#utility.yul\":14731:15154   */\n      swap4\n      swap3\n      pop\n      pop\n      pop\n      jump\t// out\n\n    auxdata: 0xa2646970667358221220ca1a5c18ef0665c3509b30003170a6c28966a932d1f88660745d25a6d24a337e64736f6c634300081e0033\n}\n",
				"bytecode": {
					"linkReferences": {},
					"object": "6080604052348015600e575f5ffd5b50610c448061001c5f395ff3fe608060405234801561000f575f5ffd5b506004361061004a575f3560e01c80634772e23d1461004e578063518bddd91461006a5780636e5410241461009a578063a82c98d0146100b6575b5f5ffd5b610068600480360381019061006391906105d0565b6100e8565b005b610084600480360381019061007f91906105d0565b61020a565b60405161009191906106f6565b60405180910390f35b6100b460048036038101906100af9190610740565b6102f4565b005b6100d060048036038101906100cb91906105d0565b610393565b6040516100df93929190610800565b60405180910390f35b5f816040516100f79190610876565b90815260200160405180910390206002015f9054906101000a900460ff1615610155576040517f08c379a000000000000000000000000000000000000000000000000000000000815260040161014c906108d6565b60405180910390fd5b60405180606001604052808281526020015f8152602001600115158152505f826040516101829190610876565b90815260200160405180910390205f820151815f0190816101a39190610af1565b50602082015181600101556040820151816002015f6101000a81548160ff0219169083151502179055509050507fb8925ac9d3465bf9cbb2513f647fd542cfc05dd7ea17956ea38e53cec3327f58816040516101ff9190610bc0565b60405180910390a150565b610212610462565b5f826040516102219190610876565b90815260200160405180910390206040518060600160405290815f8201805461024990610921565b80601f016020809104026020016040519081016040528092919081815260200182805461027590610921565b80156102c05780601f10610297576101008083540402835291602001916102c0565b820191905f5260205f20905b8154815290600101906020018083116102a357829003601f168201915b5050505050815260200160018201548152602001600282015f9054906101000a900460ff1615151515815250509050919050565b815f816040516103049190610876565b90815260200160405180910390206002015f9054906101000a900460ff166103305761032f816100e8565b5b815f846040516103409190610876565b9081526020016040518091039020600101819055507ff6cdc57e3c9b661aec04104be7e7832f4cf5b58525e133b1dd5d8f617be770258383604051610386929190610be0565b60405180910390a1505050565b5f818051602081018201805184825260208301602085012081835280955050505050505f91509050805f0180546103c990610921565b80601f01602080910402602001604051908101604052809291908181526020018280546103f590610921565b80156104405780601f1061041757610100808354040283529160200191610440565b820191905f5260205f20905b81548152906001019060200180831161042357829003601f168201915b505050505090806001015490806002015f9054906101000a900460ff16905083565b6040518060600160405280606081526020015f81526020015f151581525090565b5f604051905090565b5f5ffd5b5f5ffd5b5f5ffd5b5f5ffd5b5f601f19601f8301169050919050565b7f4e487b71000000000000000000000000000000000000000000000000000000005f52604160045260245ffd5b6104e28261049c565b810181811067ffffffffffffffff82111715610501576105006104ac565b5b80604052505050565b5f610513610483565b905061051f82826104d9565b919050565b5f67ffffffffffffffff82111561053e5761053d6104ac565b5b6105478261049c565b9050602081019050919050565b828183375f83830152505050565b5f61057461056f84610524565b61050a565b9050828152602081018484840111156105905761058f610498565b5b61059b848285610554565b509392505050565b5f82601f8301126105b7576105b6610494565b5b81356105c7848260208601610562565b91505092915050565b5f602082840312156105e5576105e461048c565b5b5f82013567ffffffffffffffff81111561060257610601610490565b5b61060e848285016105a3565b91505092915050565b5f81519050919050565b5f82825260208201905092915050565b8281835e5f83830152505050565b5f61064982610617565b6106538185610621565b9350610663818560208601610631565b61066c8161049c565b840191505092915050565b5f819050919050565b61068981610677565b82525050565b5f8115159050919050565b6106a38161068f565b82525050565b5f606083015f8301518482035f8601526106c3828261063f565b91505060208301516106d86020860182610680565b5060408301516106eb604086018261069a565b508091505092915050565b5f6020820190508181035f83015261070e81846106a9565b905092915050565b61071f81610677565b8114610729575f5ffd5b50565b5f8135905061073a81610716565b92915050565b5f5f604083850312156107565761075561048c565b5b5f83013567ffffffffffffffff81111561077357610772610490565b5b61077f858286016105a3565b92505060206107908582860161072c565b9150509250929050565b5f82825260208201905092915050565b5f6107b482610617565b6107be818561079a565b93506107ce818560208601610631565b6107d78161049c565b840191505092915050565b6107eb81610677565b82525050565b6107fa8161068f565b82525050565b5f6060820190508181035f83015261081881866107aa565b905061082760208301856107e2565b61083460408301846107f1565b949350505050565b5f81905092915050565b5f61085082610617565b61085a818561083c565b935061086a818560208601610631565b80840191505092915050565b5f6108818284610846565b915081905092915050565b7f437573746f6d657220416c7265616479205265676973746572656400000000005f82015250565b5f6108c0601b8361079a565b91506108cb8261088c565b602082019050919050565b5f6020820190508181035f8301526108ed816108b4565b9050919050565b7f4e487b71000000000000000000000000000000000000000000000000000000005f52602260045260245ffd5b5f600282049050600182168061093857607f821691505b60208210810361094b5761094a6108f4565b5b50919050565b5f819050815f5260205f209050919050565b5f6020601f8301049050919050565b5f82821b905092915050565b5f600883026109ad7fffffffffffffffffffffffffffffffffffffffffffffffffffffffffffffffff82610972565b6109b78683610972565b95508019841693508086168417925050509392505050565b5f819050919050565b5f6109f26109ed6109e884610677565b6109cf565b610677565b9050919050565b5f819050919050565b610a0b836109d8565b610a1f610a17826109f9565b84845461097e565b825550505050565b5f5f905090565b610a36610a27565b610a41818484610a02565b505050565b5b81811015610a6457610a595f82610a2e565b600181019050610a47565b5050565b601f821115610aa957610a7a81610951565b610a8384610963565b81016020851015610a92578190505b610aa6610a9e85610963565b830182610a46565b50505b505050565b5f82821c905092915050565b5f610ac95f1984600802610aae565b1980831691505092915050565b5f610ae18383610aba565b9150826002028217905092915050565b610afa82610617565b67ffffffffffffffff811115610b1357610b126104ac565b5b610b1d8254610921565b610b28828285610a68565b5f60209050601f831160018114610b59575f8415610b47578287015190505b610b518582610ad6565b865550610bb8565b601f198416610b6786610951565b5f5b82811015610b8e57848901518255600182019150602085019450602081019050610b69565b86831015610bab5784890151610ba7601f891682610aba565b8355505b6001600288020188555050505b505050505050565b5f6020820190508181035f830152610bd881846107aa565b905092915050565b5f6040820190508181035f830152610bf881856107aa565b9050610c0760208301846107e2565b939250505056fea2646970667358221220ca1a5c18ef0665c3509b30003170a6c28966a932d1f88660745d25a6d24a337e64736f6c634300081e0033",
					"opcodes": "PUSH1 0x80 PUSH1 0x40 MSTORE CALLVALUE DUP1 ISZERO PUSH1 0xE JUMPI PUSH0 PUSH0 REVERT JUMPDEST POP PUSH2 0xC44 DUP1 PUSH2 0x1C PUSH0 CODECOPY PUSH0 RETURN INVALID PUSH1 0x80 PUSH1 0x40 MSTORE CALLVALUE DUP1 ISZERO PUSH2 0xF JUMPI PUSH0 PUSH0 REVERT JUMPDEST POP PUSH1 0x4 CALLDATASIZE LT PUSH2 0x4A JUMPI PUSH0 CALLDATALOAD PUSH1 0xE0 SHR DUP1 PUSH4 0x4772E23D EQ PUSH2 0x4E JUMPI DUP1 PUSH4 0x518BDDD9 EQ PUSH2 0x6A JUMPI DUP1 PUSH4 0x6E541024 EQ PUSH2 0x9A JUMPI DUP1 PUSH4 0xA82C98D0 EQ PUSH2 0xB6 JUMPI JUMPDEST PUSH0 PUSH0 REVERT JUMPDEST PUSH2 0x68 PUSH1 0x4 DUP1 CALLDATASIZE SUB DUP2 ADD SWAP1 PUSH2 0x63 SWAP2 SWAP1 PUSH2 0x5D0 JUMP JUMPDEST PUSH2 0xE8 JUMP JUMPDEST STOP JUMPDEST PUSH2 0x84 PUSH1 0x4 DUP1 CALLDATASIZE SUB DUP2 ADD SWAP1 PUSH2 0x7F SWAP2 SWAP1 PUSH2 0x5D0 JUMP JUMPDEST PUSH2 0x20A JUMP JUMPDEST PUSH1 0x40 MLOAD PUSH2 0x91 SWAP2 SWAP1 PUSH2 0x6F6 JUMP JUMPDEST PUSH1 0x40 MLOAD DUP1 SWAP2 SUB SWAP1 RETURN JUMPDEST PUSH2 0xB4 PUSH1 0x4 DUP1 CALLDATASIZE SUB DUP2 ADD SWAP1 PUSH2 0xAF SWAP2 SWAP1 PUSH2 0x740 JUMP JUMPDEST PUSH2 0x2F4 JUMP JUMPDEST STOP JUMPDEST PUSH2 0xD0 PUSH1 0x4 DUP1 CALLDATASIZE SUB DUP2 ADD SWAP1 PUSH2 0xCB SWAP2 SWAP1 PUSH2 0x5D0 JUMP JUMPDEST PUSH2 0x393 JUMP JUMPDEST PUSH1 0x40 MLOAD PUSH2 0xDF SWAP4 SWAP3 SWAP2 SWAP1 PUSH2 0x800 JUMP JUMPDEST PUSH1 0x40 MLOAD DUP1 SWAP2 SUB SWAP1 RETURN JUMPDEST PUSH0 DUP2 PUSH1 0x40 MLOAD PUSH2 0xF7 SWAP2 SWAP1 PUSH2 0x876 JUMP JUMPDEST SWAP1 DUP2 MSTORE PUSH1 0x20 ADD PUSH1 0x40 MLOAD DUP1 SWAP2 SUB SWAP1 KECCAK256 PUSH1 0x2 ADD PUSH0 SWAP1 SLOAD SWAP1 PUSH2 0x100 EXP SWAP1 DIV PUSH1 0xFF AND ISZERO PUSH2 0x155 JUMPI PUSH1 0x40 MLOAD PUSH32 0x8C379A000000000000000000000000000000000000000000000000000000000 DUP2 MSTORE PUSH1 0x4 ADD PUSH2 0x14C SWAP1 PUSH2 0x8D6 JUMP JUMPDEST PUSH1 0x40 MLOAD DUP1 SWAP2 SUB SWAP1 REVERT JUMPDEST PUSH1 0x40 MLOAD DUP1 PUSH1 0x60 ADD PUSH1 0x40 MSTORE DUP1 DUP3 DUP2 MSTORE PUSH1 0x20 ADD PUSH0 DUP2 MSTORE PUSH1 0x20 ADD PUSH1 0x1 ISZERO ISZERO DUP2 MSTORE POP PUSH0 DUP3 PUSH1 0x40 MLOAD PUSH2 0x182 SWAP2 SWAP1 PUSH2 0x876 JUMP JUMPDEST SWAP1 DUP2 MSTORE PUSH1 0x20 ADD PUSH1 0x40 MLOAD DUP1 SWAP2 SUB SWAP1 KECCAK256 PUSH0 DUP3 ADD MLOAD DUP2 PUSH0 ADD SWAP1 DUP2 PUSH2 0x1A3 SWAP2 SWAP1 PUSH2 0xAF1 JUMP JUMPDEST POP PUSH1 0x20 DUP3 ADD MLOAD DUP2 PUSH1 0x1 ADD SSTORE PUSH1 0x40 DUP3 ADD MLOAD DUP2 PUSH1 0x2 ADD PUSH0 PUSH2 0x100 EXP DUP2 SLOAD DUP2 PUSH1 0xFF MUL NOT AND SWAP1 DUP4 ISZERO ISZERO MUL OR SWAP1 SSTORE POP SWAP1 POP POP PUSH32 0xB8925AC9D3465BF9CBB2513F647FD542CFC05DD7EA17956EA38E53CEC3327F58 DUP2 PUSH1 0x40 MLOAD PUSH2 0x1FF SWAP2 SWAP1 PUSH2 0xBC0 JUMP JUMPDEST PUSH1 0x40 MLOAD DUP1 SWAP2 SUB SWAP1 LOG1 POP JUMP JUMPDEST PUSH2 0x212 PUSH2 0x462 JUMP JUMPDEST PUSH0 DUP3 PUSH1 0x40 MLOAD PUSH2 0x221 SWAP2 SWAP1 PUSH2 0x876 JUMP JUMPDEST SWAP1 DUP2 MSTORE PUSH1 0x20 ADD PUSH1 0x40 MLOAD DUP1 SWAP2 SUB SWAP1 KECCAK256 PUSH1 0x40 MLOAD DUP1 PUSH1 0x60 ADD PUSH1 0x40 MSTORE SWAP1 DUP2 PUSH0 DUP3 ADD DUP1 SLOAD PUSH2 0x249 SWAP1 PUSH2 0x921 JUMP JUMPDEST DUP1 PUSH1 0x1F ADD PUSH1 0x20 DUP1 SWAP2 DIV MUL PUSH1 0x20 ADD PUSH1 0x40 MLOAD SWAP1 DUP2 ADD PUSH1 0x40 MSTORE DUP1 SWAP3 SWAP2 SWAP1 DUP2 DUP2 MSTORE PUSH1 0x20 ADD DUP3 DUP1 SLOAD PUSH2 0x275 SWAP1 PUSH2 0x921 JUMP JUMPDEST DUP1 ISZERO PUSH2 0x2C0 JUMPI DUP1 PUSH1 0x1F LT PUSH2 0x297 JUMPI PUSH2 0x100 DUP1 DUP4 SLOAD DIV MUL DUP4 MSTORE SWAP2 PUSH1 0x20 ADD SWAP2 PUSH2 0x2C0 JUMP JUMPDEST DUP3 ADD SWAP2 SWAP1 PUSH0 MSTORE PUSH1 0x20 PUSH0 KECCAK256 SWAP1 JUMPDEST DUP2 SLOAD DUP2 MSTORE SWAP1 PUSH1 0x1 ADD SWAP1 PUSH1 0x20 ADD DUP1 DUP4 GT PUSH2 0x2A3 JUMPI DUP3 SWAP1 SUB PUSH1 0x1F AND DUP3 ADD SWAP2 JUMPDEST POP POP POP POP POP DUP2 MSTORE PUSH1 0x20 ADD PUSH1 0x1 DUP3 ADD SLOAD DUP2 MSTORE PUSH1 0x20 ADD PUSH1 0x2 DUP3 ADD PUSH0 SWAP1 SLOAD SWAP1 PUSH2 0x100 EXP SWAP1 DIV PUSH1 0xFF AND ISZERO ISZERO ISZERO ISZERO DUP2 MSTORE POP POP SWAP1 POP SWAP2 SWAP1 POP JUMP JUMPDEST DUP2 PUSH0 DUP2 PUSH1 0x40 MLOAD PUSH2 0x304 SWAP2 SWAP1 PUSH2 0x876 JUMP JUMPDEST SWAP1 DUP2 MSTORE PUSH1 0x20 ADD PUSH1 0x40 MLOAD DUP1 SWAP2 SUB SWAP1 KECCAK256 PUSH1 0x2 ADD PUSH0 SWAP1 SLOAD SWAP1 PUSH2 0x100 EXP SWAP1 DIV PUSH1 0xFF AND PUSH2 0x330 JUMPI PUSH2 0x32F DUP2 PUSH2 0xE8 JUMP JUMPDEST JUMPDEST DUP2 PUSH0 DUP5 PUSH1 0x40 MLOAD PUSH2 0x340 SWAP2 SWAP1 PUSH2 0x876 JUMP JUMPDEST SWAP1 DUP2 MSTORE PUSH1 0x20 ADD PUSH1 0x40 MLOAD DUP1 SWAP2 SUB SWAP1 KECCAK256 PUSH1 0x1 ADD DUP2 SWAP1 SSTORE POP PUSH32 0xF6CDC57E3C9B661AEC04104BE7E7832F4CF5B58525E133B1DD5D8F617BE77025 DUP4 DUP4 PUSH1 0x40 MLOAD PUSH2 0x386 SWAP3 SWAP2 SWAP1 PUSH2 0xBE0 JUMP JUMPDEST PUSH1 0x40 MLOAD DUP1 SWAP2 SUB SWAP1 LOG1 POP POP POP JUMP JUMPDEST PUSH0 DUP2 DUP1 MLOAD PUSH1 0x20 DUP2 ADD DUP3 ADD DUP1 MLOAD DUP5 DUP3 MSTORE PUSH1 0x20 DUP4 ADD PUSH1 0x20 DUP6 ADD KECCAK256 DUP2 DUP4 MSTORE DUP1 SWAP6 POP POP POP POP POP POP PUSH0 SWAP2 POP SWAP1 POP DUP1 PUSH0 ADD DUP1 SLOAD PUSH2 0x3C9 SWAP1 PUSH2 0x921 JUMP JUMPDEST DUP1 PUSH1 0x1F ADD PUSH1 0x20 DUP1 SWAP2 DIV MUL PUSH1 0x20 ADD PUSH1 0x40 MLOAD SWAP1 DUP2 ADD PUSH1 0x40 MSTORE DUP1 SWAP3 SWAP2 SWAP1 DUP2 DUP2 MSTORE PUSH1 0x20 ADD DUP3 DUP1 SLOAD PUSH2 0x3F5 SWAP1 PUSH2 0x921 JUMP JUMPDEST DUP1 ISZERO PUSH2 0x440 JUMPI DUP1 PUSH1 0x1F LT PUSH2 0x417 JUMPI PUSH2 0x100 DUP1 DUP4 SLOAD DIV MUL DUP4 MSTORE SWAP2 PUSH1 0x20 ADD SWAP2 PUSH2 0x440 JUMP JUMPDEST DUP3 ADD SWAP2 SWAP1 PUSH0 MSTORE PUSH1 0x20 PUSH0 KECCAK256 SWAP1 JUMPDEST DUP2 SLOAD DUP2 MSTORE SWAP1 PUSH1 0x1 ADD SWAP1 PUSH1 0x20 ADD DUP1 DUP4 GT PUSH2 0x423 JUMPI DUP3 SWAP1 SUB PUSH1 0x1F AND DUP3 ADD SWAP2 JUMPDEST POP POP POP POP POP SWAP1 DUP1 PUSH1 0x1 ADD SLOAD SWAP1 DUP1 PUSH1 0x2 ADD PUSH0 SWAP1 SLOAD SWAP1 PUSH2 0x100 EXP SWAP1 DIV PUSH1 0xFF AND SWAP1 POP DUP4 JUMP JUMPDEST PUSH1 0x40 MLOAD DUP1 PUSH1 0x60 ADD PUSH1 0x40 MSTORE DUP1 PUSH1 0x60 DUP2 MSTORE PUSH1 0x20 ADD PUSH0 DUP2 MSTORE PUSH1 0x20 ADD PUSH0 ISZERO ISZERO DUP2 MSTORE POP SWAP1 JUMP JUMPDEST PUSH0 PUSH1 0x40 MLOAD SWAP1 POP SWAP1 JUMP JUMPDEST PUSH0 PUSH0 REVERT JUMPDEST PUSH0 PUSH0 REVERT JUMPDEST PUSH0 PUSH0 REVERT JUMPDEST PUSH0 PUSH0 REVERT JUMPDEST PUSH0 PUSH1 0x1F NOT PUSH1 0x1F DUP4 ADD AND SWAP1 POP SWAP2 SWAP1 POP JUMP JUMPDEST PUSH32 0x4E487B7100000000000000000000000000000000000000000000000000000000 PUSH0 MSTORE PUSH1 0x41 PUSH1 0x4 MSTORE PUSH1 0x24 PUSH0 REVERT JUMPDEST PUSH2 0x4E2 DUP3 PUSH2 0x49C JUMP JUMPDEST DUP2 ADD DUP2 DUP2 LT PUSH8 0xFFFFFFFFFFFFFFFF DUP3 GT OR ISZERO PUSH2 0x501 JUMPI PUSH2 0x500 PUSH2 0x4AC JUMP JUMPDEST JUMPDEST DUP1 PUSH1 0x40 MSTORE POP POP POP JUMP JUMPDEST PUSH0 PUSH2 0x513 PUSH2 0x483 JUMP JUMPDEST SWAP1 POP PUSH2 0x51F DUP3 DUP3 PUSH2 0x4D9 JUMP JUMPDEST SWAP2 SWAP1 POP JUMP JUMPDEST PUSH0 PUSH8 0xFFFFFFFFFFFFFFFF DUP3 GT ISZERO PUSH2 0x53E JUMPI PUSH2 0x53D PUSH2 0x4AC JUMP JUMPDEST JUMPDEST PUSH2 0x547 DUP3 PUSH2 0x49C JUMP JUMPDEST SWAP1 POP PUSH1 0x20 DUP2 ADD SWAP1 POP SWAP2 SWAP1 POP JUMP JUMPDEST DUP3 DUP2 DUP4 CALLDATACOPY PUSH0 DUP4 DUP4 ADD MSTORE POP POP POP JUMP JUMPDEST PUSH0 PUSH2 0x574 PUSH2 0x56F DUP5 PUSH2 0x524 JUMP JUMPDEST PUSH2 0x50A JUMP JUMPDEST SWAP1 POP DUP3 DUP2 MSTORE PUSH1 0x20 DUP2 ADD DUP5 DUP5 DUP5 ADD GT ISZERO PUSH2 0x590 JUMPI PUSH2 0x58F PUSH2 0x498 JUMP JUMPDEST JUMPDEST PUSH2 0x59B DUP5 DUP3 DUP6 PUSH2 0x554 JUMP JUMPDEST POP SWAP4 SWAP3 POP POP POP JUMP JUMPDEST PUSH0 DUP3 PUSH1 0x1F DUP4 ADD SLT PUSH2 0x5B7 JUMPI PUSH2 0x5B6 PUSH2 0x494 JUMP JUMPDEST JUMPDEST DUP2 CALLDATALOAD PUSH2 0x5C7 DUP5 DUP3 PUSH1 0x20 DUP7 ADD PUSH2 0x562 JUMP JUMPDEST SWAP2 POP POP SWAP3 SWAP2 POP POP JUMP JUMPDEST PUSH0 PUSH1 0x20 DUP3 DUP5 SUB SLT ISZERO PUSH2 0x5E5 JUMPI PUSH2 0x5E4 PUSH2 0x48C JUMP JUMPDEST JUMPDEST PUSH0 DUP3 ADD CALLDATALOAD PUSH8 0xFFFFFFFFFFFFFFFF DUP2 GT ISZERO PUSH2 0x602 JUMPI PUSH2 0x601 PUSH2 0x490 JUMP JUMPDEST JUMPDEST PUSH2 0x60E DUP5 DUP3 DUP6 ADD PUSH2 0x5A3 JUMP JUMPDEST SWAP2 POP POP SWAP3 SWAP2 POP POP JUMP JUMPDEST PUSH0 DUP2 MLOAD SWAP1 POP SWAP2 SWAP1 POP JUMP JUMPDEST PUSH0 DUP3 DUP3 MSTORE PUSH1 0x20 DUP3 ADD SWAP1 POP SWAP3 SWAP2 POP POP JUMP JUMPDEST DUP3 DUP2 DUP4 MCOPY PUSH0 DUP4 DUP4 ADD MSTORE POP POP POP JUMP JUMPDEST PUSH0 PUSH2 0x649 DUP3 PUSH2 0x617 JUMP JUMPDEST PUSH2 0x653 DUP2 DUP6 PUSH2 0x621 JUMP JUMPDEST SWAP4 POP PUSH2 0x663 DUP2 DUP6 PUSH1 0x20 DUP7 ADD PUSH2 0x631 JUMP JUMPDEST PUSH2 0x66C DUP2 PUSH2 0x49C JUMP JUMPDEST DUP5 ADD SWAP2 POP POP SWAP3 SWAP2 POP POP JUMP JUMPDEST PUSH0 DUP2 SWAP1 POP SWAP2 SWAP1 POP JUMP JUMPDEST PUSH2 0x689 DUP2 PUSH2 0x677 JUMP JUMPDEST DUP3 MSTORE POP POP JUMP JUMPDEST PUSH0 DUP2 ISZERO ISZERO SWAP1 POP SWAP2 SWAP1 POP JUMP JUMPDEST PUSH2 0x6A3 DUP2 PUSH2 0x68F JUMP JUMPDEST DUP3 MSTORE POP POP JUMP JUMPDEST PUSH0 PUSH1 0x60 DUP4 ADD PUSH0 DUP4 ADD MLOAD DUP5 DUP3 SUB PUSH0 DUP7 ADD MSTORE PUSH2 0x6C3 DUP3 DUP3 PUSH2 0x63F JUMP JUMPDEST SWAP2 POP POP PUSH1 0x20 DUP4 ADD MLOAD PUSH2 0x6D8 PUSH1 0x20 DUP7 ADD DUP3 PUSH2 0x680 JUMP JUMPDEST POP PUSH1 0x40 DUP4 ADD MLOAD PUSH2 0x6EB PUSH1 0x40 DUP7 ADD DUP3 PUSH2 0x69A JUMP JUMPDEST POP DUP1 SWAP2 POP POP SWAP3 SWAP2 POP POP JUMP JUMPDEST PUSH0 PUSH1 0x20 DUP3 ADD SWAP1 POP DUP2 DUP2 SUB PUSH0 DUP4 ADD MSTORE PUSH2 0x70E DUP2 DUP5 PUSH2 0x6A9 JUMP JUMPDEST SWAP1 POP SWAP3 SWAP2 POP POP JUMP JUMPDEST PUSH2 0x71F DUP2 PUSH2 0x677 JUMP JUMPDEST DUP2 EQ PUSH2 0x729 JUMPI PUSH0 PUSH0 REVERT JUMPDEST POP JUMP JUMPDEST PUSH0 DUP2 CALLDATALOAD SWAP1 POP PUSH2 0x73A DUP2 PUSH2 0x716 JUMP JUMPDEST SWAP3 SWAP2 POP POP JUMP JUMPDEST PUSH0 PUSH0 PUSH1 0x40 DUP4 DUP6 SUB SLT ISZERO PUSH2 0x756 JUMPI PUSH2 0x755 PUSH2 0x48C JUMP JUMPDEST JUMPDEST PUSH0 DUP4 ADD CALLDATALOAD PUSH8 0xFFFFFFFFFFFFFFFF DUP2 GT ISZERO PUSH2 0x773 JUMPI PUSH2 0x772 PUSH2 0x490 JUMP JUMPDEST JUMPDEST PUSH2 0x77F DUP6 DUP3 DUP7 ADD PUSH2 0x5A3 JUMP JUMPDEST SWAP3 POP POP PUSH1 0x20 PUSH2 0x790 DUP6 DUP3 DUP7 ADD PUSH2 0x72C JUMP JUMPDEST SWAP2 POP POP SWAP3 POP SWAP3 SWAP1 POP JUMP JUMPDEST PUSH0 DUP3 DUP3 MSTORE PUSH1 0x20 DUP3 ADD SWAP1 POP SWAP3 SWAP2 POP POP JUMP JUMPDEST PUSH0 PUSH2 0x7B4 DUP3 PUSH2 0x617 JUMP JUMPDEST PUSH2 0x7BE DUP2 DUP6 PUSH2 0x79A JUMP JUMPDEST SWAP4 POP PUSH2 0x7CE DUP2 DUP6 PUSH1 0x20 DUP7 ADD PUSH2 0x631 JUMP JUMPDEST PUSH2 0x7D7 DUP2 PUSH2 0x49C JUMP JUMPDEST DUP5 ADD SWAP2 POP POP SWAP3 SWAP2 POP POP JUMP JUMPDEST PUSH2 0x7EB DUP2 PUSH2 0x677 JUMP JUMPDEST DUP3 MSTORE POP POP JUMP JUMPDEST PUSH2 0x7FA DUP2 PUSH2 0x68F JUMP JUMPDEST DUP3 MSTORE POP POP JUMP JUMPDEST PUSH0 PUSH1 0x60 DUP3 ADD SWAP1 POP DUP2 DUP2 SUB PUSH0 DUP4 ADD MSTORE PUSH2 0x818 DUP2 DUP7 PUSH2 0x7AA JUMP JUMPDEST SWAP1 POP PUSH2 0x827 PUSH1 0x20 DUP4 ADD DUP6 PUSH2 0x7E2 JUMP JUMPDEST PUSH2 0x834 PUSH1 0x40 DUP4 ADD DUP5 PUSH2 0x7F1 JUMP JUMPDEST SWAP5 SWAP4 POP POP POP POP JUMP JUMPDEST PUSH0 DUP2 SWAP1 POP SWAP3 SWAP2 POP POP JUMP JUMPDEST PUSH0 PUSH2 0x850 DUP3 PUSH2 0x617 JUMP JUMPDEST PUSH2 0x85A DUP2 DUP6 PUSH2 0x83C JUMP JUMPDEST SWAP4 POP PUSH2 0x86A DUP2 DUP6 PUSH1 0x20 DUP7 ADD PUSH2 0x631 JUMP JUMPDEST DUP1 DUP5 ADD SWAP2 POP POP SWAP3 SWAP2 POP POP JUMP JUMPDEST PUSH0 PUSH2 0x881 DUP3 DUP5 PUSH2 0x846 JUMP JUMPDEST SWAP2 POP DUP2 SWAP1 POP SWAP3 SWAP2 POP POP JUMP JUMPDEST PUSH32 0x437573746F6D657220416C726561647920526567697374657265640000000000 PUSH0 DUP3 ADD MSTORE POP JUMP JUMPDEST PUSH0 PUSH2 0x8C0 PUSH1 0x1B DUP4 PUSH2 0x79A JUMP JUMPDEST SWAP2 POP PUSH2 0x8CB DUP3 PUSH2 0x88C JUMP JUMPDEST PUSH1 0x20 DUP3 ADD SWAP1 POP SWAP2 SWAP1 POP JUMP JUMPDEST PUSH0 PUSH1 0x20 DUP3 ADD SWAP1 POP DUP2 DUP2 SUB PUSH0 DUP4 ADD MSTORE PUSH2 0x8ED DUP2 PUSH2 0x8B4 JUMP JUMPDEST SWAP1 POP SWAP2 SWAP1 POP JUMP JUMPDEST PUSH32 0x4E487B7100000000000000000000000000000000000000000000000000000000 PUSH0 MSTORE PUSH1 0x22 PUSH1 0x4 MSTORE PUSH1 0x24 PUSH0 REVERT JUMPDEST PUSH0 PUSH1 0x2 DUP3 DIV SWAP1 POP PUSH1 0x1 DUP3 AND DUP1 PUSH2 0x938 JUMPI PUSH1 0x7F DUP3 AND SWAP2 POP JUMPDEST PUSH1 0x20 DUP3 LT DUP2 SUB PUSH2 0x94B JUMPI PUSH2 0x94A PUSH2 0x8F4 JUMP JUMPDEST JUMPDEST POP SWAP2 SWAP1 POP JUMP JUMPDEST PUSH0 DUP2 SWAP1 POP DUP2 PUSH0 MSTORE PUSH1 0x20 PUSH0 KECCAK256 SWAP1 POP SWAP2 SWAP1 POP JUMP JUMPDEST PUSH0 PUSH1 0x20 PUSH1 0x1F DUP4 ADD DIV SWAP1 POP SWAP2 SWAP1 POP JUMP JUMPDEST PUSH0 DUP3 DUP3 SHL SWAP1 POP SWAP3 SWAP2 POP POP JUMP JUMPDEST PUSH0 PUSH1 0x8 DUP4 MUL PUSH2 0x9AD PUSH32 0xFFFFFFFFFFFFFFFFFFFFFFFFFFFFFFFFFFFFFFFFFFFFFFFFFFFFFFFFFFFFFFFF DUP3 PUSH2 0x972 JUMP JUMPDEST PUSH2 0x9B7 DUP7 DUP4 PUSH2 0x972 JUMP JUMPDEST SWAP6 POP DUP1 NOT DUP5 AND SWAP4 POP DUP1 DUP7 AND DUP5 OR SWAP3 POP POP POP SWAP4 SWAP3 POP POP POP JUMP JUMPDEST PUSH0 DUP2 SWAP1 POP SWAP2 SWAP1 POP JUMP JUMPDEST PUSH0 PUSH2 0x9F2 PUSH2 0x9ED PUSH2 0x9E8 DUP5 PUSH2 0x677 JUMP JUMPDEST PUSH2 0x9CF JUMP JUMPDEST PUSH2 0x677 JUMP JUMPDEST SWAP1 POP SWAP2 SWAP1 POP JUMP JUMPDEST PUSH0 DUP2 SWAP1 POP SWAP2 SWAP1 POP JUMP JUMPDEST PUSH2 0xA0B DUP4 PUSH2 0x9D8 JUMP JUMPDEST PUSH2 0xA1F PUSH2 0xA17 DUP3 PUSH2 0x9F9 JUMP JUMPDEST DUP5 DUP5 SLOAD PUSH2 0x97E JUMP JUMPDEST DUP3 SSTORE POP POP POP POP JUMP JUMPDEST PUSH0 PUSH0 SWAP1 POP SWAP1 JUMP JUMPDEST PUSH2 0xA36 PUSH2 0xA27 JUMP JUMPDEST PUSH2 0xA41 DUP2 DUP5 DUP5 PUSH2 0xA02 JUMP JUMPDEST POP POP POP JUMP JUMPDEST JUMPDEST DUP2 DUP2 LT ISZERO PUSH2 0xA64 JUMPI PUSH2 0xA59 PUSH0 DUP3 PUSH2 0xA2E JUMP JUMPDEST PUSH1 0x1 DUP2 ADD SWAP1 POP PUSH2 0xA47 JUMP JUMPDEST POP POP JUMP JUMPDEST PUSH1 0x1F DUP3 GT ISZERO PUSH2 0xAA9 JUMPI PUSH2 0xA7A DUP2 PUSH2 0x951 JUMP JUMPDEST PUSH2 0xA83 DUP5 PUSH2 0x963 JUMP JUMPDEST DUP2 ADD PUSH1 0x20 DUP6 LT ISZERO PUSH2 0xA92 JUMPI DUP2 SWAP1 POP JUMPDEST PUSH2 0xAA6 PUSH2 0xA9E DUP6 PUSH2 0x963 JUMP JUMPDEST DUP4 ADD DUP3 PUSH2 0xA46 JUMP JUMPDEST POP POP JUMPDEST POP POP POP JUMP JUMPDEST PUSH0 DUP3 DUP3 SHR SWAP1 POP SWAP3 SWAP2 POP POP JUMP JUMPDEST PUSH0 PUSH2 0xAC9 PUSH0 NOT DUP5 PUSH1 0x8 MUL PUSH2 0xAAE JUMP JUMPDEST NOT DUP1 DUP4 AND SWAP2 POP POP SWAP3 SWAP2 POP POP JUMP JUMPDEST PUSH0 PUSH2 0xAE1 DUP4 DUP4 PUSH2 0xABA JUMP JUMPDEST SWAP2 POP DUP3 PUSH1 0x2 MUL DUP3 OR SWAP1 POP SWAP3 SWAP2 POP POP JUMP JUMPDEST PUSH2 0xAFA DUP3 PUSH2 0x617 JUMP JUMPDEST PUSH8 0xFFFFFFFFFFFFFFFF DUP2 GT ISZERO PUSH2 0xB13 JUMPI PUSH2 0xB12 PUSH2 0x4AC JUMP JUMPDEST JUMPDEST PUSH2 0xB1D DUP3 SLOAD PUSH2 0x921 JUMP JUMPDEST PUSH2 0xB28 DUP3 DUP3 DUP6 PUSH2 0xA68 JUMP JUMPDEST PUSH0 PUSH1 0x20 SWAP1 POP PUSH1 0x1F DUP4 GT PUSH1 0x1 DUP2 EQ PUSH2 0xB59 JUMPI PUSH0 DUP5 ISZERO PUSH2 0xB47 JUMPI DUP3 DUP8 ADD MLOAD SWAP1 POP JUMPDEST PUSH2 0xB51 DUP6 DUP3 PUSH2 0xAD6 JUMP JUMPDEST DUP7 SSTORE POP PUSH2 0xBB8 JUMP JUMPDEST PUSH1 0x1F NOT DUP5 AND PUSH2 0xB67 DUP7 PUSH2 0x951 JUMP JUMPDEST PUSH0 JUMPDEST DUP3 DUP2 LT ISZERO PUSH2 0xB8E JUMPI DUP5 DUP10 ADD MLOAD DUP3 SSTORE PUSH1 0x1 DUP3 ADD SWAP2 POP PUSH1 0x20 DUP6 ADD SWAP5 POP PUSH1 0x20 DUP2 ADD SWAP1 POP PUSH2 0xB69 JUMP JUMPDEST DUP7 DUP4 LT ISZERO PUSH2 0xBAB JUMPI DUP5 DUP10 ADD MLOAD PUSH2 0xBA7 PUSH1 0x1F DUP10 AND DUP3 PUSH2 0xABA JUMP JUMPDEST DUP4 SSTORE POP JUMPDEST PUSH1 0x1 PUSH1 0x2 DUP9 MUL ADD DUP9 SSTORE POP POP POP JUMPDEST POP POP POP POP POP POP JUMP JUMPDEST PUSH0 PUSH1 0x20 DUP3 ADD SWAP1 POP DUP2 DUP2 SUB PUSH0 DUP4 ADD MSTORE PUSH2 0xBD8 DUP2 DUP5 PUSH2 0x7AA JUMP JUMPDEST SWAP1 POP SWAP3 SWAP2 POP POP JUMP JUMPDEST PUSH0 PUSH1 0x40 DUP3 ADD SWAP1 POP DUP2 DUP2 SUB PUSH0 DUP4 ADD MSTORE PUSH2 0xBF8 DUP2 DUP6 PUSH2 0x7AA JUMP JUMPDEST SWAP1 POP PUSH2 0xC07 PUSH1 0x20 DUP4 ADD DUP5 PUSH2 0x7E2 JUMP JUMPDEST SWAP4 SWAP3 POP POP POP JUMP INVALID LOG2 PUSH5 0x6970667358 0x22 SLT KECCAK256 0xCA BYTE TLOAD XOR 0xEF MOD PUSH6 0xC3509B300031 PUSH17 0xA6C28966A932D1F88660745D25A6D24A33 PUSH31 0x64736F6C634300081E00330000000000000000000000000000000000000000 "
				},
				"gasEstimates": {
					"creation": {
						"codeDepositCost": "628000",
						"executionCost": "662",
						"totalCost": "628662"
					},
					"external": {
						"RegisterCustomer(string)": "infinite",
						"customers(string)": "infinite",
						"getCustomer(string)": "infinite",
						"updateCustomerBalance(string,uint256)": "infinite"
					}
				},
				"methodIdentifiers": {
					"RegisterCustomer(string)": "4772e23d",
					"customers(string)": "a82c98d0",
					"getCustomer(string)": "518bddd9",
					"updateCustomerBalance(string,uint256)": "6e541024"
				}
			},
			"storageLayout": {
				"storage": [
					{
						"astId": 13,
						"contract": "contracts/ParkingCustomer.sol:ParkingCustomer",
						"label": "customers",
						"offset": 0,
						"slot": "0",
						"type": "t_mapping(t_string_memory_ptr,t_struct(Customer)8_storage)"
					}
				],
				"types": {
					"t_bool": {
						"encoding": "inplace",
						"label": "bool",
						"numberOfBytes": "1"
					},
					"t_mapping(t_string_memory_ptr,t_struct(Customer)8_storage)": {
						"encoding": "mapping",
						"key": "t_string_memory_ptr",
						"label": "mapping(string => struct ParkingCustomer.Customer)",
						"numberOfBytes": "32",
						"value": "t_struct(Customer)8_storage"
					},
					"t_string_memory_ptr": {
						"encoding": "bytes",
						"label": "string",
						"numberOfBytes": "32"
					},
					"t_string_storage": {
						"encoding": "bytes",
						"label": "string",
						"numberOfBytes": "32"
					},
					"t_struct(Customer)8_storage": {
						"encoding": "inplace",
						"label": "struct ParkingCustomer.Customer",
						"members": [
							{
								"astId": 3,
								"contract": "contracts/ParkingCustomer.sol:ParkingCustomer",
								"label": "registerationNumber",
								"offset": 0,
								"slot": "0",
								"type": "t_string_storage"
							},
							{
								"astId": 5,
								"contract": "contracts/ParkingCustomer.sol:ParkingCustomer",
								"label": "balance",
								"offset": 0,
								"slot": "1",
								"type": "t_uint256"
							},
							{
								"astId": 7,
								"contract": "contracts/ParkingCustomer.sol:ParkingCustomer",
								"label": "registered",
								"offset": 0,
								"slot": "2",
								"type": "t_bool"
							}
						],
						"numberOfBytes": "96"
					},
					"t_uint256": {
						"encoding": "inplace",
						"label": "uint256",
						"numberOfBytes": "32"
					}
				}
			},
			"userdoc": {
				"kind": "user",
				"methods": {},
				"version": 1
			}
		}
	}
}